:020000040800F2
:1000000068C400202D02000881FF0008ADDE000852
:10001000F9FE0008EF3000084F4201080000000020
:100020000000000000000000000000003916010878
:10003000937B000800000000750501088D3201085F
:10004000470200084702000847020008350B010874
:10005000470200084702000847020008470200085C
:10006000470200084702000847020008470200084C
:10007000470200084702000847020008470200083C
:10008000470200084702000847020008470200082C
:10009000470200084702000847020008470200081C
:1000A000470200084702000847020008470200080C
:1000B000470200088D350108470200084702000882
:1000C00047020008470200084702000847020008EC
:1000D000470200085D410108470200084702000886
:1000E00047020008470200084702000847020008CC
:1000F00047020008470200084702000847020008BC
:1001000047020008470200084702000847020008AB
:100110004702000847020008153601084702000898
:10012000470200084702000847020008470200088B
:1001300000F002F800F06AF80AA090E8000C82448F
:100140008344AAF10107DA4501D100F05FF8AFF26C
:10015000090EBAE80F0013F0010F18BFFB1A43F0A5
:100160000103184704B7070024B707000A444FF0FB
:10017000000C10F8013B13F0070408BF10F8014B06
:100180001D1108BF10F8015B641E05D010F8016B4B
:10019000641E01F8016BF9D113F0080F1EBF10F8AF
:1001A000014BAD1C0C1B09D16D1E58BF01F801CBD2
:1001B000FAD505E014F8016B01F8016B6D1EF9D555
:1001C0009142D6D37047000000230024002500266A
:1001D000103A28BF78C1FBD8520728BF30C148BFAA
:1001E0000B607047662939F09084642900F08280A2
:1001F000002070471FB500F0A5FD0400002000217D
:1002000038F0EEFAE0601FBD10B510BD00F09AFEA8
:100210001146FFF7EFFF35F099F800F0B8FE03B490
:10022000FFF7F2FF03BC32F0B7FD0000094880473A
:1002300009480047FEE7FEE7FEE7FEE7FEE7FEE7C8
:10024000FEE7FEE7FEE7FEE704480549054A064BE0
:1002500070470000913201083101000868B70020A2
:1002600068C4002068B9002068B900207047000009
:100270000FB41CB50C0007AA009001D02044401E0A
:10028000074B7B4469460190069800F0DCFC002C8B
:1002900003D06946002000F0E9FC1CBC5DF814FBAB
:1002A000F109000070B5044685690068C10601D5F2
:1002B000302600E02026C00707D070BDD4E9012118
:1002C00030469047206A401C20626D1EF6D570BDF6
:1002D00070B5044685690078C00707D170BDD4E9C0
:1002E000012120209047206A401C20626D1EF6D517
:1002F00070BD00002DE9F041064600241068752904
:10030000314616A510D0AFF30080002802DA404233
:1003100013A507E031688A0701D512A502E0490755
:1003200004D511A5012401E0AFF3008000210A22C9
:1003300006F1240709E0B0FBF2FCB0FBF2F302FB8C
:100340001C00303078541846491C0028F3D123464D
:100350002A463046BDE8F04100F00ABA000000002D
:100360002D0000002B000000200000002DE9F05FB0
:10037000894604464FF0000ADFF824B1FB44C0F878
:1003800020A02046E168884700287DD0252806D097
:10039000D4E901219047206A401C2062F1E7002542
:1003A0005F462046E16888472028064607DB312E55
:1003B00005D2B81910F8200C08B10543F1E7A807D9
:1003C00001D525F00405C4F81CA00027C4F818A026
:1003D0002A2E09D0304632F06FFB38B304EB870881
:1003E000303EC8F8186019E059F8041B204604EBA9
:1003F00087029161E1688847012F064618D1E069BC
:10040000002820DA25F020051DE0D8F8180000EBC0
:10041000800006EB40003038C8F818002046E1683C
:100420008847064632F048FB0028EED1012F0AD05B
:100430002E2E08D12046E16888477F1C0646022FF1
:1004400045F02005C4DBA069002803DA404245F0EE
:100450000105A061E80701D025F01005A6B1A6F1BD
:100460004100192802D8203645F400654A46314635
:10047000204625604D46FFF7B5FE60B1012807D044
:10048000ED1D25F0070000E007E000F1080978E71E
:1004900005F1040975E730467AE7206ABDE8F09F68
:1004A000BCB1070040EA010310B59B070FD1042A35
:1004B0000DD310C808C9121F9C42F8D020BA19BA2F
:1004C000884201D9012010BD4FF0FF3010BD1AB194
:1004D000D30703D0521C07E0002010BD10F8013BE9
:1004E00011F8014B1B1B07D110F8013B11F8014B10
:1004F0001B1B01D1921EF1D1184610BD40EA010329
:10050000024630B59B0710D14FF0013400E008C21D
:1005100008C91D1B9D4315EAC41FF8D013F0FF0145
:1005200002F8011B0DD01B0AF8E711F8013B002B64
:1005300002F8013B05D011F8013B002B02F8013B0A
:10054000F3D130BD10B5431C02E010F8011B71B1AE
:100550008107FAD14FF0013202C88C1A8C4314EA99
:10056000C211F9D0C01A0A0603D0C01E10BDC01AAD
:1005700010BD0A0401D0801E10BD0902FCD0401E2F
:1005800010BD032A40F2308010F0030C00F01580FB
:1005900011F8013BBCF1020F624498BF11F801CB86
:1005A00000F8013B38BF11F8013BA2F1040298BFEB
:1005B00000F801CB38BF00F8013B11F0030300F055
:1005C0006780083AC0F0088051F8043B083A51F8B7
:1005D00004CBA0E80810F5E7121D5CBF51F8043BFE
:1005E00040F8043BAFF30080D20724BF11F8013B71
:1005F00011F801CB48BF11F8012B24BF00F8013BD3
:1006000000F801CB48BF00F8012B7047431A28BF00
:100610009A427FF6B6AF032A1044114440F2268076
:1006200010F0030F1EBF11F8013D521E00F8013DEE
:1006300010F0030F7FF4F6AF11F0030300F03683E0
:10064000083AC0F00B8051F8043D083A51F804CD47
:1006500040F8043D40F804CDFFF7F3BF121D5CBF26
:1006600051F8043D40F8043DAFF30080D20724BFA9
:1006700011F8013D11F801CD48BF11F8012C24BF3C
:1006800000F8013D00F801CD48BF00F8012C70478B
:1006900010B5203AC0F00B80B1E81850203AA0E81D
:1006A0001850B1E81850A0E81850BFF4F5AF5FEA51
:1006B000027C24BFB1E81850A0E8185044BF18C904
:1006C00018C0BDE810405FEA827C24BF51F8043BAB
:1006D00040F8043B08BF7047D20728BF31F8023BFF
:1006E00048BF11F8012B28BF20F8023B48BF00F893
:1006F000012B704702F0FF0343EA032242EA024261
:1007000000F000BB4FF0000200B513469446964639
:10071000203922BFA0E80C50A0E80C50B1F1200114
:10072000BFF4F7AF090728BFA0E80C5048BF0CC0C2
:100730005DF804EB890028BF40F8042B08BF704720
:1007400048BF20F8022B11F0804F18BF00F8012B92
:100750007047704770477047704710B500F0F6FA61
:10076000006810BD10B5044600F0F0FA046010BD3A
:100770002DE9F0470D4699469246044600F12408BB
:100780000168880604D5E06921F01001216000E0CD
:100790000120A84201DD471B00E00027A1697A196A
:1007A00002EB0900081AA0612078C00602D4204696
:1007B000FFF778FD002608E0D4E901211AF80600C9
:1007C0009047206A401C761C20624E45F4DB20785E
:1007D000C0060AD52046FFF765FD06E0D4E90121F1
:1007E00030209047206A401C2062381EA7F1010784
:1007F000F4DC07E0D4E9012118F805009047206AED
:10080000401C2062281EA5F10105F3DC2046FFF7FD
:100810005FFD2078000602D50220BDE8F0870120A8
:10082000FBE770472DE9FF4F0C461E464FF0FF37A0
:100830008BB0D2E90001DDF860800A908A46C1F3EE
:100840000A5505B93D46002108464FF00000BAF1AF
:10085000000F00F4400005DA00EB80004FF4400187
:1008600001EA50004FEA9059B9F1010F00DDB94695
:100870000A9850EA4A000ED044F61050A5F2FF350F
:1008800045432F14B8F1000F1ED07542291E1EDDFE
:10089000C9F100021CE0B8F1010F4FF0000001D0D7
:1008A000302103E0F24305E02154401CB042FBDB61
:1008B00030460022002121540B99C1F80880C1E97B
:1008C00000200FB0BDE8F08FBD1B6D1CDEE74A466F
:1008D00000DA694206A800F0C3FA06AB93E8070005
:1008E00003AB83E8070050460A9900F097FB8DE8B8
:1008F0000700A0F500501F3800900398002D09DD77
:1009000042F21F014A46084403A90390684600F0DA
:10091000F6FD08E0A0F500504A461F3803A90390F1
:10092000684600F000FE8DE807000004000C03D0CC
:100930004FF0FF30410800E01046B8F1000F03D03F
:100940000022009215461EE0751E05D400F002FA42
:10095000303262556D1EF9D5B3460122084302D0EC
:1009600000227F1C04E02078302801D100227F1E65
:10097000002A099786D01DE0112D07DA00F0EAF968
:10098000303262556D1C50EA0102F5D1084302D0A5
:100990000098C8B10EE00021681E05E0235C625C8F
:1009A00063542254401E491C8142F7DBAB46A81B0E
:1009B000401E0990002004F80B000B98099AC0F81B
:1009C0000880C0E9002B7CE711264FF0000859E7AA
:1009D0002DE9F04F88460446D21D22F0070191B060
:1009E000D1E90001CDE90A011DF0F8F802460B98A3
:1009F000C00F01D02D2007E02068810701D52B20F2
:100A000002E0202101EAC000032A099001D0072A50
:100A100005DB03464146204600F0E2F90BE1207871
:100A2000800601D5E06900E00620B8F1650F814637
:100A300006D0B8F1660F18D0B8F1670F70D131E069
:100A40000020B9F1110F009001DB112301E009F141
:100A500001030AAA01A90CA8FFF7E4FEDDE90C7066
:100A6000002609F10105834647E001204B4600902E
:100A70004FF000470AAA01A90CA8FFF7D3FEDDE951
:100A80000DB00C995D46002610B909F101000D1852
:100A9000B9EB050003D4C0F1FF3609F10105A5EB60
:100AA00009002BE0B9F1010F01DA4FF00109002034
:100AB000B9F1110F0090484601DD112300E0034613
:100AC0000AAA01A90CA8FFF7ADFEDDE90C704D469E
:100AD00000268346207800070AD4AB4500DA5D463D
:100AE00001A8012D04DD411911F8011C302907D09E
:100AF0004F4502DA17F1040F04DA012082460FE0B5
:100B00006D1EEEE7002F02DCED1B3E4403E0781C77
:100B1000A84200DD7D1CB81B00F1010A4FF0004720
:100B20002078000703D4AA4501DB4FF0FF3A0021EB
:100B3000B7F1004F0DF143088DF8431024D0022087
:100B40002B23002F01DA7F422D230A21021EA0F160
:100B5000010000DC5FB197FBF1FC97FBF1F201FBB8
:100B60001C7C17460CF1300C08F801CDEEE7A8F11B
:100B7000010003702188090501D5452100E06521A8
:100B8000A0F1010800F8011C09980FA9A1EB0807C2
:100B9000FF1D00B10120411901EBEA70A169384441
:100BA000081A401EA0612078C00602D42046FFF734
:100BB00079FB099828B1D4E901219047206A401CAB
:100BC00020622078C00622D52046FFF76BFB1EE08E
:100BD000002E04DBB34502DD01A8805D00E030207B
:100BE000D4E901219047206A401C2062761CAAF1BA
:100BF00001005FEA000A0AD100F0A4F8C0680168A9
:100C0000405CD4E901219047206A401C2062281EE4
:100C1000A5F10105DCDC07E0D4E9012118F8010B9E
:100C20009047206A401C2062381EA7F10107F3DCC0
:100C30002046FFF74DFB032011B043E601694A1C33
:100C400002610878704700B58FB0CDE9013100210D
:100C5000059105497944CDE9031011466846FFF72F
:100C600085FB0FB000BD0000E5FFFFFF0A6802F83A
:100C7000010B0A607047D1E900239A4202D2531C4B
:100C80000B6010707047431A28BF9A427FF600AD80
:100C9000104410F0030F11441EBF11F8013D521E05
:100CA00000F8013D10F0030F7FF4F6AF103AC0F0EA
:100CB0000A8010B531E91850103A20E91850BFF4F5
:100CC000F9AFBDE81040530724BF31E9081020E90F
:100CD000081044BF51F8043D40F8043D12F0030FE2
:100CE00008BF7047D20728BF31F8023D48BF11F84E
:100CF000012C28BF20F8023D48BF00F8012C7047A6
:100D00004FF000020429C0F0128010F0030C3FF4F1
:100D1000FBACCCF1040CBCF1020F18BF00F8012BA6
:100D2000A8BF20F8022BA1EB0C01FFF7EDBC5FEA96
:100D3000C17C24BF00F8012B00F8012B48BF00F84C
:100D4000012B70470048704728B7002000487047C3
:100D500008B7002030B5B0F10A024FEA900E71F1E9
:100D600000034EEA817EB0EB0E0061EB91014FEA89
:100D7000101E4EEA017E10EB0E0041EB11114FEAFE
:100D8000102E4EEA016E10EB0E0041EB11214FEADE
:100D9000104E4EEA014E10EB0E0041EB114140188F
:100DA00041F100014FEAD00040EA41704FEAD10121
:100DB00010EB80054FEA810444EA907444EB01048F
:100DC0006D1944EB0404521BA3414FF0000348BFCC
:100DD0000A3200D530BD401C41F1000130BD000099
:100DE0002DE9F0411F46044603260168072A01F455
:100DF000006004DB08B116A505E016A503E008B104
:100E000015A500E015A521F010002060A069C01E06
:100E1000A0610FB1401EA0612046FFF743FA4FB119
:100E2000D4E9012138469047206A401C2062C01C4A
:100E3000206206E0206AFAE7D4E9012115F8010BE7
:100E40009047761EF8D22046FFF742FABDE8F081BF
:100E50004E414E006E616E00494E4600696E66005E
:100E60002DE9F047814616468AB0334878440DC8CC
:100E70008DE80D0030487844801C03AC0DC884E830
:100E80000D0041F69B300844372190FBF1F290FBB6
:100E9000F1F5A5F1800501FB12041B3C02D564426B
:100EA000012000E00020DFF890A080460027FA44EF
:100EB000AAF1BE0A0DE0E00709D03246684607EB0A
:100EC00047010AEB810100F02EFB8DE8070064105A
:100ED0007F1C002CEFD1184F7F44AC3F18E0E8078F
:100EE00014D007EB04100DF1180A90E80E008AE800
:100EF0000E00C068F04201D198190890324606A948
:100F000003A800F010FB03AB83E807006D10641C1E
:100F1000002DE4D132466946B8F1000F03A802D093
:100F200000F0EDFA01E000F0FEFAC9E90001C9F8AD
:100F300008200AB0BDE8F08744A9070000487047C0
:100F400008B700207546FFF7F9FFAE460500694671
:100F5000534620F00700854618B020B5FFF774F916
:100F6000BDE820404FF000064FF000074FF00008AA
:100F70004FF0000B21F00701AC46ACE8C009ACE82B
:100F8000C009ACE8C009ACE8C0098D46704704460A
:100F9000AFF300802046FFF742F900004FF0013C1C
:100FA00050F8042B51F8043B9A4221D1A2EB0C03D8
:100FB000934313EACC1317D150F8042B51F8043B98
:100FC0009A4215D1A2EB0C03934313EACC130BD135
:100FD00050F8042B51F8043B9A4209D1A2EB0C03C0
:100FE000934313EACC13DBD04FF00000704700BFEF
:100FF000D01A01BAB1FA81F101F0180122FA01F018
:10100000CB40C1F12001DBB2C0B2C01A2CFA01F30F
:10101000D11A914311EAC311E6D170475FEA400C3F
:1010200008BF91F0000F4FEA8C234FEAC12243EA38
:1010300051514FEA1C5018BF00F5F0404FEA300004
:1010400018BF41F000415FEA6C5C00F02980BCF100
:10105000FF3F08BF40F080407047130C06BF1204EA
:101060004FF0100C4FF0000C130E04BF12020CF1E5
:10107000080C130F04BF12010CF1040C930F04BFF2
:1010800092000CF1020CD30F04BF52000CF1010CC2
:1010900011464FF00002A0F11F00A0EB0C007047BA
:1010A00011F0004F08BF704731F000413FF4D5AF59
:1010B0000B0C06BF09044FF0100C4FF0000C0B0E88
:1010C00004BF09020CF1080C0B0F04BF09010CF15D
:1010D000040C8B0F04BF89000CF1020CCB0F04BF72
:1010E00049000CF1010CCCF12003A0EB0C0022FA1A
:1010F00003F302FA0CF241EA030100F10100704728
:1011000020F07F4C80EA030023F07F47ACEB07031D
:1011100003F57C5300F0004003F1FF032DE9804903
:101120004FEA154B09B44FEA144325EA0B4E24EA63
:1011300003480FF2042606EB132749083E785FEABE
:10114000320203FB0667C7F5000707FB06F64FEA06
:1011500054374FEAD64606F1020607FB066CCCF17F
:10116000005C4FEA1C472CEA074C07FB06F40CFB1B
:1011700006F504EB15464FEA961634BF00204FF0F3
:1011800000404FEAD13706FB07FC4FEA1C4C0CFB32
:101190000BF7D21B03FB0CF761EB07010CFB0EF7FF
:1011A000B0EB074072EB17420CFB08F734BFA2EB21
:1011B0000742B2EB074261EB17414FEA0C444FEA9A
:1011C000910706FB07FC4FEA1C4C0CFB0BF7B0EB3E
:1011D000C74072EB573203FB0CF734BFA2EBC74298
:1011E000B2EBC74261EB57310CFB0EF7B0EBC70017
:1011F00072EB57720CFB08F734BFA2EBC702B2EBDD
:10120000C70261EB5771039F4FEA816141EA921176
:1012100004EBCC044FEAD1374FEA826206FB07FCAD
:1012200042EA90124FEA80604FEA1C4C0CFB0BF72D
:10123000D21B03FB0CF761EB07010CFB0EF7B0EBC5
:10124000074072EB17420CFB08F734BFA2EB0742D2
:10125000B2EB074261EB17414FEA8C554FEA910719
:1012600004EB9C2406FB07FC4FEA1C4C0CFB0BF721
:10127000B0EBC74072EB573203FB0CF734BFA2EB65
:10128000C742B2EBC74261EB57310CFB0EF7B0EB34
:10129000C70072EB57720CFB08F734BFA2EBC70212
:1012A000B2EBC70261EB577115EB4C254FEA816138
:1012B00041EA92114FEA82624FEAD13742EA901234
:1012C00006FB07FC44F100044FEA80604FEA1C4C27
:1012D0000CFB0BF7D21B03FB0CF761EB07010CFBBC
:1012E0000EF7B0EB074072EB17420CFB08F734BF68
:1012F000A2EB0742B2EB074261EB174115EB1C155D
:101300004FEA813141EA92414FEA823242EA904209
:101310004FEA80304FEA0C7644F1000448EA034378
:101320004EEA0B484FF0000EB2EB080C71EB0307CE
:1013300024BF624639464EEB0E0E4FF0000B0018EC
:10134000524149414BEB0B0BB2EB080C71EB03071D
:101350007BF1000B24BF624639464EEB0E0E4FF078
:10136000000B0018524149414BEB0B0BB2EB080C40
:1013700071EB03077BF1000B24BF624639464EEB4D
:101380000E0E51EA020718BF46F0010616EB0E7664
:1013900055F1000254F1000103D5BDE88901BDE813
:1013A0000088BDE88901BDE80048B619524141EB0B
:1013B0000101A3F10103704780807F7E7D7C7B7AF1
:1013C0007978777676757473727171706F6E6E6DF1
:1013D0006C6C6B6A6A696868676666656464636397
:1013E00062616160605F5F5E5E5D5D5C5C5B5B5A1D
:1013F0005A5959585857575656555555545453538A
:1014000052525251515050504F4F4F4E4E4D4D4DE4
:101410004C4C4C4B4B4B4A4A4A494949484848472F
:10142000474747464646454545444444444343436D
:101430004342424242414141002B26D4770021D011
:101440001CB54FEA370703B44FF010004FF01001FE
:101450004FF000000FBCBDE810400BF1010BBBF1D9
:10146000010F08BF5FEA170722BF12F1010211F155
:1014700001014FF0004143F1000300F0004043EA56
:1014800000007047F9D35708DAE746EA064613F139
:10149000400F4FEA16461FDD13F1200FDFBF164342
:1014A0000A46002120335B42C8D0C3F1200746EA38
:1014B000064602FA07F74FEA164646EA0706C3F160
:1014C000200722FA03F201FA07F721FA03F14FF09D
:1014D000000342EA0702B1E746EA020646EA064688
:1014E0004FEA164646EA0106BCBF46EA0646360CF7
:1014F0004FF000034FF000024FF000019EE72DE98E
:10150000C048934630B491E8380007C831EA400C2F
:1015100048BF34EA430C03D5FFF7F2FDFFF78CFF19
:10152000F0BCBDE800882DE9C048934630B491E88E
:10153000380007C810F0804F08BF13F0804F03D168
:1015400000F005F8FFF778FFF0BCBDE8008820F058
:101550007F4780EA030023F07F4C07EB0C03A3F5E1
:101560007C5300F00040A3F1FE0392F0000F00F066
:10157000B38095F0000F00F077802DE901494FEA24
:1015800011404FEA144621EA004800FB06FC24EA19
:10159000064708FB06F607FB08F800FB07F718EB01
:1015A00006484CEB164C4FEA124B18EB07484FEA33
:1015B00015464CEB174022EA0B4E0BFB06FC25EAC6
:1015C00006470EFB06F607FB0EFE0BFB07F71EEBAE
:1015D000064E4CEB164C4FF000061EEB074E4CEB44
:1015E000174B18EB0B0840F1000018EB0E0B58EBF3
:1015F000000840F100008F1A4FF000013CBFC943C2
:10160000661B14BFB5EB040C00213CBFC943F61B9D
:101610004FEA17444EEA8E0E27EA04454FEA1C476C
:1016200004FB07622CEA074C05FB07F70CFB05F6E9
:1016300004FB0CFC16EB074642EB174216EB0C467C
:1016400042EB1C421BEB060658EB0202414146EA04
:101650009E0601D5BDE80189B619524141EB010151
:10166000A3F10103BDE801894FEA14454FEA114790
:1016700024EA054621EA074C05FB07F406FB07F7B9
:101680000CFB06F105FB0CFC11EB074144EB174486
:101690004FEA124711EB0C4144EB1C4422EA074C81
:1016A00005FB07F206FB07F70CFB06F605FB0CFC37
:1016B00016EB074642EB174216EB0C4642EB1C4575
:1016C0006A1854F1000148BF7047B619524141EB06
:1016D0000101A3F10103704795F0000F37D04FEAE5
:1016E00011424FEA144721EA024624EA074C02FB62
:1016F00007F106FB07F70CFB06F402FB0CFC14EBEE
:10170000074441EB17414FEA154714EB0C4441EBFA
:101710001C4125EA074C02FB07F506FB07F70CFB0B
:1017200006F602FB0CFC16EB074645EB174516EBDD
:101730000C4645EB1C42121951F1000148BF70479D
:10174000B619524141EB0101A3F1010370474FEA81
:1017500014454FEA114724EA054621EA074C05FBE8
:1017600007F106FB07F70CFB06F24FF0000605FB3E
:101770000CFC12EB074241EB174112EB0C4251EB10
:101780001C4148BF7047921841EB0101A3F10103CE
:1017900070472DE9F04107460D4616460CF010FD46
:1017A0002912A02242EA4101C8B20CF0D9FC0CF087
:1017B00035FD20B10CF01EFD0020BDE8F081E8B23F
:1017C0000CF0CEFC0CF02AFD18B10CF013FD00203B
:1017D000F3E70CF0F5FC2912A12242EA4101C8B25C
:1017E0000CF0BEFC0CF01AFD18B10CF003FD00204B
:1017F000E3E700240CE00CF08FFC3855701EA0428B
:1018000002D00CF055FB01E00CF06EFC601C84B2C1
:10181000B442F0DB0CF0EEFC0120CEE72DE9F047FE
:10182000074688469146454600243AE014B105F043
:101830000F0040BB0CF0DEFC00260EE00CF0C0FCFC
:101840002912A02242EA4101C8B20CF089FC0CF036
:10185000E5FC00B904E0701C86B2B6F57A7FEDDBDA
:1018600000BFB6F57A7F04D10CF0C4FC0020BDE8BF
:10187000F087E8B20CF074FC0CF0D0FC18B10CF05E
:10188000B9FC0020F3E7385D0CF06AFC0CF0C6FCF4
:1018900018B10CF0AFFC0020E9E7681C85B2601CB1
:1018A00084B24C45C2DB0CF0A5FC0120DFE770B52B
:1018B000044600260CF084FC2546E11704EB116178
:1018C0000912A02242EA4101C8B20CF049FC0CF016
:1018D000A5FCE0B20CF044FC0CF0A0FC0CF070FC99
:1018E000E11704EB11610912A12242EA4101C8B2D9
:1018F0000CF036FC0CF092FC0CF00EFC06460CF0E2
:10190000F3FB0CF077FC304670BD70B504460D4615
:101910000CF056FC2646E11704EB11610912A022D7
:1019200042EA4101C8B20CF01BFC0CF077FCE0B2BB
:101930000CF016FC0CF072FC28460CF011FC0CF0BC
:101940006DFC0CF057FC0A2032F080F870BD0028C6
:1019500000DC40427047000070B532F055F84FF49B
:10196000A0600EF047FB0EF0A5F80DF023F806F08E
:101970009BFD154800681549B0FBF1F0401E85B28B
:10198000294640F2E73011F015FE11F0C7FF0020A4
:1019900033F096FD0CF090FB32F0C0F9C4B20CB9F4
:1019A00000BFFEE70FF0F8F834F008FF31F0D4FD87
:1019B0004FF47A7032F04AF831F0F0F932F03AFB35
:1019C0000EF0AAF870BD00001000002040420F0089
:1019D00010B501200EF000FE00200EF0FDFD10BD40
:1019E00008B5014600200090034800900098084484
:1019F00000900098008808BD006C004008B50022E7
:101A00000092044A0092009A02440092009A1160E7
:101A100008BD0000006C004038B54568044601462A
:101A2000284612F046FE00282BD02068304A1128A4
:101A30000DD006DC0B2825D00E2833D00F2852D12C
:101A400012E0282849D0B0F5107F4CD108E0926808
:101A5000002A16D02146284601B0BDE83040104784
:101A6000214628465268F7E7284608F09FFA00907A
:101A7000406E0468684608F003FB002C01D028463D
:101A8000A04738BD284608F091FA0090683008F069
:101A9000D9F9009803216C3008F0E2F9684608F0A3
:101AA000EFFA20E0E168486809680D2902D0202992
:101AB00013D105E0002810DD284619F0BDFC06E032
:101AC000002804DD2846BDE8384019F0B5BC28469A
:101AD000BDE83840022119F0C5BCE06818B9002102
:101AE000284600F0CBF92046BDE8384013F02CBA68
:101AF00074080020F0B5044685B08069B4F9085038
:101B0000668A0027CDE90265CDE900170490B4F993
:101B10000C00B4F91060C118B4F90A00B4F90E5001
:101B2000104433462A4600F007F80546616800F085
:101B3000D5F905B02846F0BD2DE9F04F85B01F4618
:101B4000DDE911B4DDE90E5690468946824609F07A
:101B50006FFB16484C34CDE90204CDE900563B46F4
:101B600042464946504613F037F9040018D008F0B1
:101B70001DFA10225946049012F060FF049830229A
:101B80000B493430FEF784FD094D04990C3D28685B
:101B9000486604A808F074FA286841682046884717
:101BA0000AF044FF05B02046BDE8F08F191A00087E
:101BB00080080020F0B5044680688B4989B051F850
:101BC0002050606800287DD0052804D006287AD0EF
:101BD000122879D1AEE0E86900284FD095E80E00D0
:101BE0008DE80F0004F110010FC90BF057FB002620
:101BF00055F826000AF00FF8A169E8690A1A216968
:101C000001446069304408F097FFA169E8690A1A45
:101C100021690144E069801B08F08EFFE169E869F1
:101C20000A1A616901442069304409F03BF8E1690E
:101C3000E8690A1A61690144A069801B09F032F859
:101C4000761C022ED4DBA86809F0E5FFE069E9699B
:101C50006669431A206942183144801C521E09F0FB
:101C6000D7F8E169E869A2690B1A61690144101AA1
:101C7000401C921E09F0CCF8EE6913E05FF00006FC
:101C800055F8260009F0C7FFE069831BA069821B95
:101C9000606981192069304408F0C4FF761C022E67
:101CA000EEDB0226D5E90301CDE900016169E069B7
:101CB00008444310A069891C821B2069304408F045
:101CC000FFFE02E089E012E08AE0D5E90501CDE9F6
:101CD0000001E36960690121184401EB6001A0691A
:101CE0009B1E821B2069304408F0EAFE78E02068E1
:101CF00008F05CF90490206814F006FD40B1A0687B
:101D000008B1002008E00498006F28B1012003E02A
:101D10000498406F00B10220049901EB8000C56E69
:101D200004A808F0ADF900231A462846216808F0F7
:101D3000E7FB55E0206808F039F90490866EEEB3B1
:101D4000B0F95C70A168D1B3032942D05FF0000103
:101D500000EB8101406D0C6C09F086FF204609F014
:101D60005AFF05A809F080F9BDF81410A88B0144AA
:101D7000ADF81410BDF81810081AADF81800BDF829
:101D80001600801CADF81600BDF81A00801EADF8D4
:101D90001A000498B0F96020B0F95E1005A809F0A7
:101DA00016FE04A808F06CF9022009F0C9FF3046BD
:101DB00008F0FCF83A4605A9079001E00BE006E0C0
:101DC00008F0C6FC0DF11C0008F05AF908E00121EA
:101DD000BEE70221BCE704A8F6E7206814F046F944
:101DE00009B00020F0BD0000904A0708042905D280
:101DF000034A52F821102022FEF74ABC7047000027
:101E0000904A070838B505004FF000040DD009F0DE
:101E10000FFA284608F0CAF80090408EC0F300245C
:101E2000684608F02DF90AF001FE204638BD000092
:101E3000032903D2024A02EB8101C8607047000007
:101E40008008002000294FF0100101D012F0C5BC1D
:101E500012F016BC38B50D4604000ED009F0E8F9B2
:101E6000204608F0A3F800904565684608F008F998
:101E7000204613F06DFD0AF0D9FD38BD4FF4807295
:101E80000029114601D012F0A8BC12F0F9BB0000E5
:101E900038B50C46054609F0CBF9284608F086F817
:101EA0000090064984654166684608F0E9F82846CE
:101EB00013F04EFD0AF0BAFD38BD0000B008002056
:101EC000042907D2044A52F821300146202218463C
:101ED000FEF7DEBB70470000904A07082DE9FF417E
:101EE0000E4605004FF0010421D009F0A1F9284663
:101EF00008F05CF80190876E01A8009708F0C0F820
:101F0000314668460BF0B0FC78B100980024B84226
:101F100008D0284608F04AF801900099816601A887
:101F200008F0AEF8284613F013FD0AF07FFD04B068
:101F30002046BDE8F081000070B506460C46154607
:101F4000012C01DA012402E0072C00DD0724012D19
:101F500028D120482049097850F821000078012133
:101F6000A140084078B11B481B49097850F821006E
:101F700001780120A04081431648174A127850F892
:101F8000220001700EE013481349097850F821002F
:101F900001780120A04001430E480F4A127850F802
:101FA000220001700B480C49097850F82100017893
:101FB0000120A040014021B908A13046FFF78EFF63
:101FC00003E007A13046FFF789FF304613F0C0FC5D
:101FD00070BD0000A4B30020C40200204F4E0000DA
:101FE0004F46460070B506460C461546012C01DAF0
:101FF000012402E0072C00DD0724012D1DD11A4821
:102000001A49097850F8210000780121A1400840C0
:1020100048B11748006800780121A140884314495D
:102020000968087009E01248006801780120A040A2
:102030000143C8B20E49096808700B480B4909787A
:1020400050F8210001780120A040014021B909A1E8
:102050003046FFF743FF03E007A13046FFF73EFF9E
:10206000304613F075FC70BD24B400200C04002031
:10207000980500204F4E00004F4646002DE9FF4FC7
:102080009BB0052007902A9800287CD11D9836F037
:10209000B3FECDE904011C9836F0AEFEB84AB94B48
:1020A000CDE9000136F0F8FECDE90201DDE90423B7
:1020B00036F09AFCCDE91401DDE9140134F0DAFBC5
:1020C000CDE91201DDE9140131F0F8F9CDE9100193
:1020D0000020AD4934F0AEFC02460B46CDE90001CC
:1020E0000020AA4936F080FC00224FF08043CDE961
:1020F000020136F0D1FE02460B46CDE90401DDE9CE
:10210000120136F071FCCDE90E0100209F49DDE996
:102110000E2336F0ADFBCDE9160100204FF08041D3
:10212000DDE9102336F0B8FE81F00041CDE904016D
:10213000DDE9162336F058FC06460F460020934989
:10214000DDE90E2337F0B4F8CDE90401DDE916230B
:1021500036F04AFC8046894600228D4BDDE9280195
:1021600036F042FC02460B46CDE9000100208949C9
:1021700033F0BEFDCDE9040100208449DDE91023E0
:1021800036F076FB00E095E081F00041CDE90001FA
:10219000DDE9162336F028FCCDE90201DDE9042350
:1021A00036F07AFE04460D4685F0004000224FF0DE
:1021B0008043CDE904402046059936F015FCCDE971
:1021C0001801DDE918AB87F0004789F00049504657
:1021D000594636F01BFB09A9069011F04AFD20462E
:1021E000294636F013FB0AA9069011F042FDDDE9FD
:1021F000180136F00BFB0BA9069011F03AFD404692
:10220000494636F003FB0CA9069011F032FD30462A
:10221000394636F0FBFA0DA9069011F02AFD09ABFC
:10222000042243F6445100200EF04EFE0AAB042275
:1022300043F6455100200EF047FE0BAB042243F657
:10224000465100200EF040FE0CAB042243F64751ED
:1022500000200EF039FE0DAB042243F64851002059
:102260000EF032FE00208DF820008DF821001B9822
:10227000000A8DF822001B98C0B28DF8230008AB2D
:10228000042243F6495100200EF01EFE00208DF876
:1022900020008DF82100079800128DF82200079881
:1022A0008DF8230008AB042243F64A5100200EF0BB
:1022B0000BFE61E02A9801285ED109A9002011F0E7
:1022C000D8FC0AA9002011F0D4FC0BA94FF07E50D5
:1022D00011F0CFFC0CA9002011F0CBFC0DA90020BF
:1022E00011F0C7FC09AB042243F6445100200EF064
:1022F000EBFD0AAB042243F6455100200EF0E4FD4D
:102300000BAB042243F6465100200EF0DDFD0CAB72
:10231000042243F6475100200EF0D6FD0DAB0422F7
:1023200043F6485100200EF0CFFD00208DF820002C
:102330008DF821001B98000A8DF822001B98C0B26E
:102340008DF8230008AB042243F6495100200EF01B
:10235000BBFD00208DF820008DF8210007980012A9
:102360008DF8220007988DF8230008AB042243F66D
:102370004A5100200EF0A8FD1FB0BDE8F08F00000C
:10238000182D4454FB211940000008400000F03F84
:1023900000003440000024402DE9FF4F9BB0052091
:1023A00007902A9800287CD11D9836F025FDCDE9AC
:1023B00004011C9836F020FDB54AB64BCDE900016A
:1023C00036F06AFDCDE90201DDE9042336F00CFBAD
:1023D000CDE91401DDE9140134F04CFACDE9120124
:1023E000DDE9140131F06AF8CDE910010020AA49B5
:1023F00034F020FB02460B46CDE900010020A7493E
:1024000036F0F2FA00224FF08043CDE9020136F0B7
:1024100043FD02460B46CDE90401DDE9120136F029
:10242000E3FACDE90E0100209C49DDE90E2336F0E8
:102430001FFACDE9160100204FF08041DDE910239D
:1024400036F02AFD81F00041CDE90401DDE91623D3
:1024500036F0CAFA06460F4600209049DDE90E2301
:1024600036F026FFCDE90401DDE9162336F0BCFA8B
:102470008046894600228A4BDDE9280136F0B4FA0D
:1024800002460B46CDE900010020864933F030FCBE
:10249000CDE9040100208149DDE9102336F008FF71
:1024A00000E08FE0CDE90001DDE9162336F09CFA6B
:1024B000CDE90201DDE9042336F0EEFCCDE9180197
:1024C00000224FF08043DDE9180136F08DFA824694
:1024D0008B4654465D4687F0004789F00049204608
:1024E000294636F093F909A9069011F0C2FBDDE9FF
:1024F000180136F08BF90AA9069011F0BAFB59467B
:10250000504636F083F90BA9069011F0B2FB404615
:10251000494636F07BF90CA9069011F0AAFB30462B
:10252000394636F073F90DA9069011F0A2FB09ABFC
:10253000042243F6445100200EF0C6FC0AAB0422EC
:1025400043F6455100200EF0BFFC0BAB042243F6CE
:10255000465100200EF0B8FC0CAB042243F6475164
:1025600000200EF0B1FC0DAB042243F648510020D0
:102570000EF0AAFC00208DF820008DF821001B9899
:10258000000A8DF822001B98C0B28DF8230008AB1A
:10259000042243F6495100200EF096FC00208DF8ED
:1025A00020008DF82100079800128DF8220007986E
:1025B0008DF8230008AB042243F64A5100200EF0A8
:1025C00083FC61E02A9801285ED109A9002011F05E
:1025D00050FB0AA9002011F04CFB0BA94FF07E50D4
:1025E00011F047FB0CA9002011F043FB0DA90020BE
:1025F00011F03FFB09AB042243F6445100200EF0DA
:1026000063FC0AAB042243F6455100200EF05CFC4B
:102610000BAB042243F6465100200EF055FC0CABE8
:10262000042243F6475100200EF04EFC0DAB04226D
:1026300043F6485100200EF047FC00208DF82000A2
:102640008DF821001B98000A8DF822001B98C0B25B
:102650008DF8230008AB042243F6495100200EF008
:1026600033FC00208DF820008DF82100079800121F
:102670008DF8220007988DF8230008AB042243F65A
:102680004A5100200EF020FC1FB0BDE8F08F000082
:10269000182D4454FB211940000008400000F03F71
:1026A00000003440000024402DE9FF4FA5B0052074
:1026B0000790349800287CD1279836F09DFBCDE90F
:1026C0000401269836F098FBFD4AFE4BCDE9000147
:1026D00036F0E2FBCDE90201DDE9042336F084F9AE
:1026E000CDE91401DDE9140134F0C4F8CDE912019B
:1026F000DDE9140130F0E2FECDE910010020F249DD
:1027000034F098F902460B46CDE900010020EF496C
:1027100036F06AF900224FF08043CDE9020136F02D
:10272000BBFB02460B46CDE90401DDE9120136F0A0
:102730005BF9CDE90E010020E449DDE90E2336F016
:1027400097F8CDE9160100204FF08041DDE9102314
:1027500036F0A2FB81F00041CDE90401DDE916234A
:1027600036F042F9CDE920010020D849DDE90E23F9
:1027700036F09EFDCDE90401DDE9162336F034F98B
:10278000CDE91E010022D24BDDE9320136F02CF9F1
:1027900002460B46CDE900010020CE4933F0A8FAED
:1027A000CDE904010020C949DDE9102336F060F8C5
:1027B00000E023E181F00041CDE90001DDE91623CD
:1027C00036F012F9CDE90201DDE9042336F064FBAD
:1027D000CDE92201DDE9220181F0004100224FF024
:1027E0008043CDE9040136F0FFF806460F46344633
:1027F0003D46DDE9200181F00041CDE92001DDE920
:102800001E0181F00041CDE91E01DDE92201CDE983
:102810001C01B046B9462646B246AB46DDE920016A
:10282000CDE91A01DDE91E01CDE918012F46304638
:10283000394635F0EBFF09A9069011F01AFADDE9E7
:10284000220135F0E3FF0AA9069011F012FA304692
:10285000394635F0DBFF0BA9069011F00AFADDE9E5
:102860001E0135F0D3FF0CA9069011F002FADDE944
:10287000200135F0CBFF0DA9069011F0FAF909AB54
:10288000042243F6445100200EF01EFB0AAB042242
:1028900043F6455100200EF017FB0BAB042243F624
:1028A000465100200EF010FB0CAB042243F64751BA
:1028B00000200EF009FB0DAB042243F64851002026
:1028C0000EF002FB00208DF820008DF821002598E5
:1028D000000A8DF822002598C0B28DF8230008ABBD
:1028E000042243F6495100200EF0EEFA00208DF844
:1028F00020008DF82100079800128DF8220007981B
:102900008DF8230008AB042243F64A5100200EF054
:10291000DBFA5046594635F079FF09A9069011F0C7
:10292000A8F9DDE91C0135F071FF0AA9069011F044
:10293000A0F94946404635F069FF0BA9069011F011
:1029400098F9DDE9180135F061FF0CA9069011F046
:1029500090F9DDE91A0135F059FF0DA9069011F043
:1029600088F909AB042243F6445100200EF0ACFA7A
:102970000AAB042243F6455100200EF0A5FA0BAB3A
:10298000042243F6465100200EF09EFA0CAB0422BE
:1029900043F6475100200EF097FA0DAB042243F6A0
:1029A000485100200EF090FA00208DF820008DF89C
:1029B00021002598401D000A8DF822002598401D11
:1029C000C0B28DF8230008AB042243F64951002021
:1029D0000EF07AFA00208DF820008DF8210007987B
:1029E00000128DF8220007988DF8230008AB04220E
:1029F00043F64A5100200EF067FAD0E034980128DF
:102A0000FBD109A9002011F034F90AA9002011F026
:102A100030F90BA94FF07E5011F02BF90CA90020D2
:102A200011F027F90DA9002011F023F909AB0422B8
:102A300043F6445100200EF047FA0AAB042243F655
:102A4000455100200EF040FA0BAB042243F64651EC
:102A500000200EF039FA0CAB042243F64751002057
:102A60000EF032FA0DAB042243F6485100200EF06E
:102A70002BFA00208DF820008DF821002598000AFF
:102A80008DF822002598C0B28DF8230008AB0422EF
:102A900043F6495100200EF017FA00208DF820006F
:102AA0008DF82100079800128DF8220007988DF804
:102AB000230008AB042243F64A5100200CE000003A
:102AC000182D4454FB211940000008400000F03F3D
:102AD00000003440000024400EF0F6F909A900205F
:102AE00011F0C7F80AA9002011F0C3F80BA94FF0A4
:102AF0007E5011F0BEF80CA9002011F0BAF80DA913
:102B0000002011F0B6F809AB042243F6445100202E
:102B10000EF0DAF90AAB042243F6455100200EF01C
:102B2000D3F90BAB042243F6465100200EF0CCF94A
:102B30000CAB042243F6475100200EF0C5F90DAB53
:102B4000042243F6485100200EF0BEF900208DF813
:102B500020008DF821002598401D000A8DF82200E4
:102B60002598401DC0B28DF8230008AB042243F61F
:102B7000495100200EF0A8F900208DF820008DF8B2
:102B80002100079800128DF8220007988DF8230085
:102B900008AB042243F64A5100200EF095F929B003
:102BA000BDE8F08F2DE9FF4FA5B0052007903498C0
:102BB00000287CD1279836F01FF9CDE9040126982A
:102BC00036F01AF9FD4AFE4BCDE9000136F064F902
:102BD000CDE90201DDE9042335F006FFCDE914015A
:102BE000DDE9140133F046FECDE91201DDE91401FF
:102BF00030F064FCCDE910010020F24933F01AFFF7
:102C000002460B46CDE900010020EF4935F0ECFE0D
:102C100000224FF08043CDE9020136F03DF9024633
:102C20000B46CDE90401DDE9120135F0DDFECDE909
:102C30000E010020E449DDE90E2335F019FECDE94F
:102C4000160100204FF08041DDE9102336F024F911
:102C500081F00041CDE90401DDE9162335F0C4FE21
:102C6000CDE920010020D849DDE90E2336F020FB14
:102C7000CDE90401DDE9162335F0B6FECDE91E01EC
:102C80000022D24BDDE9320135F0AEFE02460B46A2
:102C9000CDE900010020CE4933F02AF8CDE9040146
:102CA0000020C949DDE9102336F002FB00E01FE1F6
:102CB000CDE90001DDE9162335F096FECDE90201EC
:102CC000DDE9042336F0E8F8CDE9220100224FF0D7
:102CD0008043DDE9220135F087FE06460F46344683
:102CE0003D46DDE9200181F00041CDE92001DDE92B
:102CF0001E0181F00041CDE91E01DDE92201CDE98F
:102D00001C01B046B946A046C246AB46DDE92001EB
:102D1000CDE91A01DDE91E01CDE918012F46404633
:102D2000394635F073FD09A9069010F0A2FFDDE9E0
:102D3000220135F06BFD0AA9069010F09AFFB0460B
:102D40004046394635F062FD0BA9069010F091FF20
:102D5000DDE91E0135F05AFD0CA9069010F089FF3F
:102D6000DDE9200135F052FD0DA9069010F081FF3C
:102D700009AB042243F6445100200EF0A5F80AAB3B
:102D8000042243F6455100200EF09EF80BAB0422BE
:102D900043F6465100200EF097F80CAB042243F6A0
:102DA000475100200EF090F80DAB042243F6485135
:102DB00000200EF089F800208DF820008DF8210009
:102DC0002598000A8DF822002598C0B28DF82300BE
:102DD00008AB042243F6495100200EF075F800209C
:102DE0008DF820008DF82100079800128DF8220040
:102DF00007988DF8230008AB042243F64A510020BF
:102E00000EF062F8D0464046594635F0FFFC09A95D
:102E1000069010F02EFFDDE91C0135F0F7FC0AA941
:102E2000069010F026FF4946404635F0EFFC0BA90E
:102E3000069010F01EFFDDE9180135F0E7FC0CA943
:102E4000069010F016FFDDE91A0135F0DFFC0DA940
:102E5000069010F00EFF09AB042243F64451002007
:102E60000EF032F80AAB042243F6455100200EF072
:102E70002BF80BAB042243F6465100200EF024F849
:102E80000CAB042243F6475100200EF01DF80DABA9
:102E9000042243F6485100200EF016F800208DF869
:102EA00020008DF821002598401D000A8DF8220091
:102EB0002598401DC0B28DF8230008AB042243F6CC
:102EC000495100200EF000F800208DF820008DF808
:102ED0002100079800128DF8220007988DF8230032
:102EE00008AB042243F64A5100200DF0EDFFD0E07C
:102EF00034980128FBD109A9002010F0BAFE0AA9D4
:102F0000002010F0B6FE0BA94FF07E5010F0B1FE7D
:102F10000CA9002010F0ADFE0DA9002010F0A9FEB4
:102F200009AB042243F6445100200DF0CDFF0AAB5B
:102F3000042243F6455100200DF0C6FF0BAB0422DE
:102F400043F6465100200DF0BFFF0CAB042243F6C0
:102F5000475100200DF0B8FF0DAB042243F6485155
:102F600000200DF0B1FF00208DF820008DF8210029
:102F70002598000A8DF822002598C0B28DF823000C
:102F800008AB042243F6495100200DF09DFF0020BC
:102F90008DF820008DF82100079800128DF822008E
:102FA00007988DF8230008AB042243F64A5100200D
:102FB0000DF08AFF09A900200CE00000182D4454F0
:102FC000FB211940000008400000F03F00003440A1
:102FD0000000244010F04DFE0AA9002010F049FE28
:102FE0000BA94FF07E5010F044FE0CA9002010F009
:102FF00040FE0DA9002010F03CFE09AB042243F670
:10300000445100200DF060FF0AAB042243F6455105
:1030100000200DF059FF0BAB042243F6465100206F
:103020000DF052FF0CAB042243F6475100200DF087
:103030004BFF0DAB042243F6485100200DF044FF36
:1030400000208DF820008DF821002598401D000AF1
:103050008DF822002598401DC0B28DF8230008ABE2
:10306000042243F6495100200DF02EFF00208DF878
:1030700020008DF82100079800128DF82200079893
:103080008DF8230008AB042243F64A5100200DF0CE
:103090001BFF29B0BDE8F08FF0B504460D4616467B
:1030A0001F462A2013F034FEC4F30F2013F03AFE1B
:1030B000E0B213F037FEC5F30F2013F033FEE8B291
:1030C00013F030FE2B2013F023FEC6F30F2013F075
:1030D00029FEF0B213F026FEC7F30F2013F022FEF4
:1030E000F8B213F01FFE2C2013F012FEF0BD00BF4B
:1030F000FEE700002DE9FF4F9BB0052007902A98BE
:1031000000287DD11D9835F077FECDE904011C988B
:1031100035F072FEB84AB94BCDE9000135F0BCFE7E
:10312000CDE90201DDE9042335F05EFCCDE91401AF
:10313000DDE9140133F09EFBCDE91201DDE9140154
:1031400030F0BCF9CDE9100100204FF0804133F0A0
:1031500071FC02460B46CDE900010020A84935F07C
:1031600043FC00224FF08043CDE9020135F094FE8C
:1031700002460B46CDE90401DDE9120135F034FCCD
:10318000CDE90E0100209E49DDE90E2335F070FBEC
:10319000CDE9160100204FF08041DDE9102335F024
:1031A0007BFE81F00041CDE90401DDE9162335F015
:1031B0001BFC06460F4600209149DDE90E2336F040
:1031C00077F8CDE90401DDE9162335F00DFC8046E2
:1031D000894600228B4BDDE9280135F005FC0246CB
:1031E0000B46CDE900010020874932F081FDCDE991
:1031F000040100208249DDE9102335F039FB00E0AD
:1032000095E081F00041CDE90001DDE9162335F0BC
:10321000EBFBCDE90201DDE9042335F03DFE044678
:103220000D4685F0004000224FF08043CDE9044078
:103230002046059935F0D8FBCDE91801DDE918AB3A
:1032400087F0004789F000495046594635F0DEFACC
:1032500009A9069010F00DFD2046294635F0D6FA52
:103260000AA9069010F005FDDDE9180135F0CEFA47
:103270000BA9069010F0FDFC4046494635F0C6FA11
:103280000CA9069010F0F5FC3046394635F0BEFA30
:103290000DA9069010F0EDFC09AB042243F6445151
:1032A00000200DF011FE0AAB042243F64551002028
:1032B0000DF00AFE0BAB042243F6465100200DF040
:1032C00003FE0CAB042243F6475100200DF0FCFD39
:1032D0000DAB042243F6485100200DF0F5FD00200F
:1032E0008DF820008DF821001B98000A8DF822002F
:1032F0001B98C0B28DF8230008AB042243F6495155
:1033000000200DF0E1FD00208DF820008DF8210057
:10331000079800128DF8220007988DF8230008AB5B
:10332000042243F64A5100200DF0CEFD61E02A98B8
:1033300001285ED109A9002010F09BFC0AA90020F9
:1033400010F097FC0BA94FF07E5010F092FC0CA9E6
:10335000002010F08EFC0DA9002010F08AFC09ABB3
:10336000042243F6445100200DF0AEFD0AAB0422C6
:1033700043F6455100200DF0A7FD0BAB042243F6A8
:10338000465100200DF0A0FD0CAB042243F647513E
:1033900000200DF099FD0DAB042243F648510020AA
:1033A0000DF092FD00208DF820008DF821001B9873
:1033B000000A8DF822001B98C0B28DF8230008ABDC
:1033C000042243F6495100200DF07EFD00208DF8C7
:1033D00020008DF82100079800128DF82200079830
:1033E0008DF8230008AB042243F64A5100200DF06B
:1033F0006BFD1FB0BDE8F08F182D4454FB21194020
:103400000000F03F00003440000024402DE9FF4F51
:103410009BB0052007902A9800287DD11D9835F093
:10342000EBFCCDE904011C9835F0E6FCB54AB64B3F
:10343000CDE9000135F030FDCDE90201DDE90423DD
:1034400035F0D2FACDE91401DDE9140133F012FAB6
:10345000CDE91201DDE9140130F030F8CDE91001B9
:1034600000204FF0804133F0E5FA02460B46CDE9EB
:1034700000010020A54935F0B7FA00224FF0804343
:10348000CDE9020135F008FD02460B46CDE9040105
:10349000DDE9120135F0A8FACDE90E0100209B49C3
:1034A000DDE90E2335F0E4F9CDE9160100204FF0F7
:1034B0008041DDE9102335F0EFFC81F00041CDE9DA
:1034C0000401DDE9162335F08FFA06460F46002089
:1034D0008E49DDE90E2335F0EBFECDE90401DDE98F
:1034E000162335F081FA804689460022884BDDE9B3
:1034F000280135F079FA02460B46CDE9000100209B
:10350000844932F0F5FBCDE9040100207F49DDE973
:10351000102335F0CDFE00E08FE0CDE90001DDE9BC
:10352000162335F061FACDE90201DDE9042335F017
:10353000B3FCCDE9180100224FF08043DDE918010A
:1035400035F052FA82468B4654465D4687F0004776
:1035500089F000492046294635F058F909A9069016
:1035600010F087FBDDE9180135F050F90AA9069043
:1035700010F07FFB5946504635F048F90BA90690EC
:1035800010F077FB4046494635F040F90CA906900B
:1035900010F06FFB3046394635F038F90DA906902A
:1035A00010F067FB09AB042243F6445100200DF0F4
:1035B0008BFC0AAB042243F6455100200DF084FC3D
:1035C0000BAB042243F6465100200DF07DFC0CAB02
:1035D000042243F6475100200DF076FC0DAB042287
:1035E00043F6485100200DF06FFC00208DF82000BC
:1035F0008DF821001B98000A8DF822001B98C0B29C
:103600008DF8230008AB042243F6495100200DF049
:103610005BFC00208DF820008DF821000798001237
:103620008DF8220007988DF8230008AB042243F69A
:103630004A5100200DF048FC61E02A9801285ED133
:1036400009A9002010F015FB0AA9002010F011FBB9
:103650000BA94FF07E5010F00CFB0CA9002010F0CD
:1036600008FB0DA9002010F004FB09AB042243F66F
:10367000445100200DF028FC0AAB042243F64551CA
:1036800000200DF021FC0BAB042243F64651002034
:103690000DF01AFC0CAB042243F6475100200DF04C
:1036A00013FC0DAB042243F6485100200DF00CFC36
:1036B00000208DF820008DF821001B98000A8DF85D
:1036C00022001B98C0B28DF8230008AB042243F6F9
:1036D000495100200DF0F8FB00208DF820008DF8F6
:1036E0002100079800128DF8220007988DF823001A
:1036F00008AB042243F64A5100200DF0E5FB1FB051
:10370000BDE8F08F182D4454FB2119400000F03F14
:1037100000003440000024402DE9FF4FABB082464A
:1037200001202A9000BF00BF4FF0050B3A980028F7
:103730007ED101202A900021FE48CDE928102D9845
:1037400035F05AFBCDE906012C9835F055FBFA4AC5
:10375000FA4BCDE9020135F09FFBCDE90401DDE92B
:10376000062335F041F9CDE91401DDE9140133F008
:1037700081F8CDE91201DDE914012FF09FFECDE9BA
:1037800010012A9835F038FB0022ED4BCDE90201FB
:1037900035F06EF8CDE90601E748EA49DDE928236E
:1037A00035F022F9CDE90401DDE9062335F074FB9B
:1037B000CDE92601DDE9260133F05CF800224FF067
:1037C0008043CDE9000135F067FB02460B46CDE9A9
:1037D00002010020DC4935F007F900224FF0804358
:1037E000CDE9040135F058FB02460B46CDE9060150
:1037F000DDE9120135F0F8F8CDE90E010020D249DB
:10380000DDE90E2335F034F8CDE9160100204FF044
:103810008041DDE9102335F03FFB81F00041CDE927
:103820000601DDE9162335F0DFF88046894600E021
:103830000FE20020C449DDE90E2335F039FDCDE962
:103840000601DDE9162335F0CFF8CDE9200100228D
:10385000BE4BDDE9380135F0C7F802460B46CDE92D
:1038600002010020BA4932F043FACDE906010020F6
:10387000B549DDE9102334F0FBFF81F00041CDE9CB
:103880000201DDE9162335F0AFF8CDE90401DDE9E9
:10389000062335F001FB06460F4687F00041002263
:1038A0004FF080433046CDE9066135F09DF8CDE913
:1038B0002401DDE92401CDE9220189F00049DDE997
:1038C000200181F00041CDE9200100202A90994992
:1038D000CDE928012D9835F08FFACDE906012C9815
:1038E00035F08AFA944A954BCDE9020135F0D4FAC5
:1038F000CDE90401DDE9062335F076F8CDE91401C0
:10390000DDE9140132F0B6FFCDE91201DDE9140161
:103910002FF0D4FDCDE910012A9835F06DFA002280
:10392000874BCDE9020134F0A3FFCDE906018248BF
:103930008449DDE9282335F057F8CDE90401DDE9B4
:10394000062335F0A9FACDE92601DDE9260132F09A
:1039500091FF00224FF08043CDE9000135F09CFA41
:1039600002460B46CDE902010020774935F03CF8CC
:1039700000224FF08043CDE9040135F08DFA024674
:103980000B46CDE90601DDE9120135F02DF8CDE950
:103990000E0100206C49DDE90E2334F069FFCDE90A
:1039A000160100204FF08041DDE9102335F074FA54
:1039B00081F00041CDE90601DDE9162335F014F868
:1039C000CDE91A0100206049DDE90E2335F070FCD5
:1039D000CDE90601DDE9162335F006F8CDE9180139
:1039E00000225A4BDDE9380134F0FEFF02460B4657
:1039F000CDE902010020564932F07AF9CDE90601FD
:103A000000205149DDE9102334F032FF81F00041FC
:103A1000CDE90201DDE9162334F0E6FFCDE904012A
:103A2000DDE9062335F038FA04460D4685F00040FE
:103A300000224FF08043CDE906402046079934F03C
:103A4000D3FFCDE91E01DDE91E01CDE91C01DDE951
:103A50001A0181F00041CDE91A01DDE9180181F078
:103A60000041CDE91801DDE9220134F0CFFE09A9BA
:103A7000079010F0FEF83046394634F0C7FE0AA928
:103A8000079010F0F6F8DDE9240134F0BFFE0BA931
:103A9000079010F0EEF8DDE9200134F0B7FE0CA934
:103AA000079010F0E6F84046494634F0AFFE0DA905
:103AB000079010F0DEF809AB042243F644510020D1
:103AC0000DF002FA0AAB042243F6455100200DF036
:103AD000FBF90BAB042243F6465100200DF0F4F93C
:103AE0000CAB042243F6475100200DF0EDF90DAB6D
:103AF000042243F6485100200DF0E6F900208DF82D
:103B000020008DF821004FEA1A208DF822000AF0DB
:103B1000FF008DF8230008AB042243F64951002032
:103B20000DF0D2F900208DF820008DF821004FEA29
:103B30002B200FE000001040182D4454FB211940A9
:103B40000000E03FFB2109400000F03F000034404E
:103B5000000024408DF822008DF823B008AB042229
:103B600043F64A5100200DF0AFF9DDE91C0134F0B5
:103B70004DFE09A9079010F07CF82046294634F044
:103B800045FE0AA9079010F074F8DDE91E0134F033
:103B90003DFE0BA9079010F06CF8DDE9180134F038
:103BA00035FE0CA9079010F064F8DDE91A0134F035
:103BB0002DFE0DA9079010F05CF809AB042243F626
:103BC000445100200DF080F90AAB042243F6455120
:103BD00000200DF079F90BAB042243F6465100208A
:103BE0000DF072F90CAB042243F6475100200DF0A2
:103BF0006BF90DAB042243F6485100200DF064F937
:103C000000208DF820008DF821000AF10500000A3F
:103C10008DF822000AF10500C0B28DF8230008AB30
:103C2000042243F6495100200DF04EF900208DF892
:103C300020008DF821004FEA2B208DF822008DF80E
:103C400023B008AB042243F64A5100200DF03CF9A2
:103C5000C0E03A980128FBD109A9002010F009F82A
:103C60000AA9002010F005F80BA94FF07E5010F0C3
:103C700000F80CA900200FF0FCFF0DA900200FF0A8
:103C8000F8FF09AB042243F6445100200DF01CF963
:103C90000AAB042243F6455100200DF015F90BAB99
:103CA000042243F6465100200DF00EF90CAB04221D
:103CB00043F6475100200DF007F90DAB042243F6FF
:103CC000485100200DF000F900208DF820008DF8FB
:103CD00021004FEA1A208DF822000AF0FF008DF82B
:103CE000230008AB042243F6495100200DF0ECF804
:103CF00000208DF820008DF821004FEA2B208DF850
:103D000022008DF823B008AB042243F64A5100206C
:103D10000DF0DAF809A900200FF0ABFF0AA9002086
:103D20000FF0A7FF0BA94FF07E500FF0A2FF0CA9D8
:103D300000200FF09EFF0DA900200FF09AFF09ABA5
:103D4000042243F6445100200DF0BEF80AAB0422D1
:103D500043F6455100200DF0B7F80BAB042243F6B3
:103D6000465100200DF0B0F80CAB042243F6475149
:103D700000200DF0A9F80DAB042243F648510020B5
:103D80000DF0A2F800208DF820008DF821000AF136
:103D90000500000A8DF822000AF10500C0B28DF876
:103DA000230008AB042243F6495100200DF08CF8A3
:103DB00000208DF820008DF821004FEA2B208DF88F
:103DC00022008DF823B008AB042243F64A510020AC
:103DD0000DF07AF82FB0BDE8F08F00002DE9FF4F0D
:103DE000ABB0824601202A9000BF00BF4FF0050B08
:103DF0003A9800287ED101202A900021FE48CDE982
:103E000028102D9834F0F8FFCDE906012C9834F0F5
:103E1000F3FFFA4AFA4BCDE9020135F03DF8CDE95E
:103E20000401DDE9062334F0DFFDCDE91401DDE90D
:103E3000140132F01FFDCDE91201DDE914012FF06C
:103E40003DFBCDE910012A9834F0D6FF0022ED4B5E
:103E5000CDE9020134F00CFDCDE90601E748EA495D
:103E6000DDE9282334F0C0FDCDE90401DDE90623B6
:103E700035F012F8CDE92601DDE9260132F0FAFC31
:103E800000224FF08043CDE9000135F005F80246ED
:103E90000B46CDE902010020DC4934F0A5FD0022EB
:103EA0004FF08043CDE9040134F0F6FF02460B46A3
:103EB000CDE90601DDE9120134F096FDCDE90E01F0
:103EC0000020D249DDE90E2334F0D2FCCDE9160101
:103ED00000204FF08041DDE9102334F0DDFF81F058
:103EE0000041CDE90601DDE9162334F07DFD0446ED
:103EF0000D4600E0FEE10020C449DDE90E2335F067
:103F0000D7F9CDE90601DDE9162334F06DFD06464B
:103F10000F460022BE4BDDE9380134F065FD024654
:103F20000B46CDE902010020BA4931F0E1FECDE9AE
:103F300006010020B549DDE9102335F0B9F9CDE9D6
:103F40000201DDE9162334F04FFDCDE90401DDE97E
:103F5000062334F0A1FFCDE9220100224FF0804377
:103F6000DDE9220134F040FDCDE92401DDE9240141
:103F7000CDE9200185F0004587F0004700202A9018
:103F800000219D48CDE928102D9834F035FFCDE96A
:103F900006012C9834F030FF984A994BCDE9020184
:103FA00034F07AFFCDE90401DDE9062334F01CFD8D
:103FB000CDE91401DDE9140132F05CFCCDE9120118
:103FC000DDE914012FF07AFACDE910012A9834F0D6
:103FD00013FF00228B4BCDE9020134F049FCCDE9FF
:103FE000060186488849DDE9282334F0FDFCCDE947
:103FF0000401DDE9062334F04FFFCDE92601DDE9B8
:10400000260132F037FC00224FF08043CDE9000159
:1040100034F042FF02460B46CDE9020100207B4905
:1040200034F0E2FC00224FF08043CDE9040134F08B
:1040300033FF02460B46CDE90601DDE9120134F0FB
:10404000D3FCCDE90E0100207049DDE90E2334F0E8
:104050000FFCCDE9160100204FF08041DDE910236F
:1040600034F01AFF81F00041CDE90601DDE91623A5
:1040700034F0BAFC8046894600206449DDE90E230D
:1040800035F016F9CDE90601DDE9162334F0ACFC74
:10409000CDE9180100225E4BDDE9380134F0A4FCC3
:1040A00002460B46CDE9020100205A4931F020FEBC
:1040B000CDE9060100205549DDE9102335F0F8F877
:1040C000CDE90201DDE9162334F08EFCCDE90401CF
:1040D000DDE9062334F0E0FECDE91C0100224FF0BB
:1040E0008043DDE91C0134F07FFCCDE91E01DDE9F0
:1040F0001E01CDE91A0189F00049DDE9180181F0BE
:104100000041CDE91801DDE9200134F07FFB09A968
:1041100007900FF0AEFDDDE9220134F077FB0AA92C
:1041200007900FF0A6FDDDE9240134F06FFB0BA929
:1041300007900FF09EFD3046394634F067FB0CA91E
:1041400007900FF096FD2046294634F05FFB0DA93D
:1041500007900FF08EFD09AB042243F64451002076
:104160000CF0B2FE0AAB042243F6455100200CF0DD
:10417000ABFE0BAB042243F6465100200CF0A4FE2C
:104180000CAB042243F6475100200CF09DFE0DAB12
:10419000042243F6485100200CF096FE00208DF8D2
:1041A00020008DF821004FEA1A208DF822000AF035
:1041B000FF008DF8230008AB042243F6495100208C
:1041C0000CF082FE00208DF820008DF821004FEACF
:1041D0002B208DF822008DF823B008AB042243F683
:1041E0004A5100200CF070FEDDE91A0134F00EFB9C
:1041F00009A9079010E0000000001040182D445459
:10420000FB2119400000E03FFB2109400000F03F86
:1042100000003440000024400FF02BFDDDE91C01BC
:1042200034F0F4FA0AA907900FF023FDDDE91E012E
:1042300034F0ECFA0BA907900FF01BFDDDE9180133
:1042400034F0E4FA0CA907900FF013FD40464946FC
:1042500034F0DCFA0DA907900FF00BFD09AB042236
:1042600043F6445100200CF02FFE0AAB042243F623
:10427000455100200CF028FE0BAB042243F64651BA
:1042800000200CF021FE0CAB042243F64751002025
:104290000CF01AFE0DAB042243F6485100200CF03E
:1042A00013FE00208DF820008DF821000AF1050092
:1042B000000A8DF822000AF10500C0B28DF8230033
:1042C00008AB042243F6495100200CF0FDFD00200C
:1042D0008DF820008DF821004FEA2B208DF8220068
:1042E0008DF823B008AB042243F64A5100200CF0AD
:1042F000EBFDC0E03A980128FBD109A900200FF09E
:10430000B8FC0AA900200FF0B4FC0BA94FF07E50B6
:104310000FF0AFFC0CA900200FF0ABFC0DA90020A2
:104320000FF0A7FC09AB042243F6445100200CF027
:10433000CBFD0AAB042243F6455100200CF0C4FD2E
:104340000BAB042243F6465100200CF0BDFD0CAB34
:10435000042243F6475100200CF0B6FD0DAB0422B9
:1043600043F6485100200CF0AFFD00208DF82000EE
:104370008DF821004FEA1A208DF822000AF0FF0084
:104380008DF8230008AB042243F6495100200CF0BD
:104390009BFD00208DF820008DF821004FEA2B2096
:1043A0008DF822008DF823B008AB042243F64A5161
:1043B00000200CF089FD09A900200FF05AFC0AA981
:1043C00000200FF056FC0BA94FF07E500FF051FC6F
:1043D0000CA900200FF04DFC0DA900200FF049FCA6
:1043E00009AB042243F6445100200CF06DFD0AABEA
:1043F000042243F6455100200CF066FD0BAB04226D
:1044000043F6465100200CF05FFD0CAB042243F64E
:10441000475100200CF058FD0DAB042243F64851E3
:1044200000200CF051FD00208DF820008DF82100B7
:104430000AF10500000A8DF822000AF10500C0B259
:104440008DF8230008AB042243F6495100200CF0FC
:104450003BFD00208DF820008DF821004FEA2B2035
:104460008DF822008DF823B008AB042243F64A51A0
:1044700000200CF029FD2FB0BDE8F08F00B589B009
:10448000012101A8FDF7B2FC4FF47F40019000200C
:104490000290FF2003900690FF2107910490059160
:1044A000012101A8FDF70CFD002101A8FDF708FD81
:1044B00002210448FDF704FD00210846FDF7B8FC81
:1044C00009B000BDD40D002000B589B0022101A8BB
:1044D000FDF78CFC4FF47F400190002002904FF4D8
:1044E0007F000390069001460791049005910221F8
:1044F00001A8FDF7E5FC00216FF07F40FDF798FC77
:1045000009B000BDF8B5446805460146204610F0E4
:10451000D0F8002836D028680B2839D00E2805D0CE
:104520000F2821D0B0F5107F3CD12CE0204605F0BB
:104530003DFD009010F8746F4778684605F0A0FDC7
:10454000204612F0E1F810B3E8684168002929DD3F
:104550000068202826D17F1CB7FBF6F006FB1071FF
:10456000204600F04DF91DE02546204605F01EFDD1
:104570000090006F0468684605F082FD002C01D0B1
:104580002846A047F8BD2946204617F0EDF809E077
:10459000204605F00BFD0090783005F053FC68468E
:1045A00005F06EFD2846BDE8F84010F0CDBCF0B532
:1045B00085B0B0F90850468A84690296CDE9035463
:1045C0000027CDE90017B0F90C10B0F91050B0F980
:1045D0000E40B0F90A00194410442B46224600F060
:1045E00003F805B0F0BD00002DE9F04F85B01D4681
:1045F000DDE90E9716468A468346DDF8488006F0C8
:1046000017FE254C0EB135B10AE0206880680068BD
:1046100080470646F7E720688068006880470546BF
:104620001D486FF07041001DC068884201D147F0FD
:10463000010708F15400194ACDE90220CDE900979D
:104640002B4632465146584610F0C6FB05001CD09A
:1046500005F0ACFC10220490119910F0EFF90E490E
:1046600004983C22091D3430FCF712F804982168A4
:104670000167022180F874100F21C16704A805F0BA
:10468000FFFC206841682846884708F0CFF905B04C
:104690002846BDE8F08F0000F00B0020054500081B
:1046A0002DE9FF470446006810B112F02DF868B1FB
:1046B0000022314850F8221060680A2841D007DCF7
:1046C000F0B306280DD0072854D106E00122F0E708
:1046D00012280AD019284DD137E0204613F00CF9E2
:1046E00048E0204614F0CEFC44E0206805F05EFC73
:1046F0000290B0F9548090F85650476C466B02A86F
:1047000005F0BEFC206800F039F88146684610F0DC
:1047100059FDBDF8001009EB05000844ADF8000094
:10472000246A304607F0A0FA022007F009FB384659
:1047300007F071FA42466946204606F009F819E08A
:1047400007E0204614F0D3FD14E0886904B0BDE80A
:10475000F087206811F08AFC206805F027FC0390A0
:10476000B0F90610B0F90220891A491CC16703A8E4
:1047700005F086FC0020E9E734B5070838B50446A3
:1047800006F056FD204605F011FC0090C46F684607
:1047900005F076FC08F04AF9204638BDF8B50D461C
:1047A00006004FF0000412D006F042FD304605F03E
:1047B000FDFB0090816CA94204D085640C46304614
:1047C00011F0C6F8684605F05BFC08F02FF92046AA
:1047D000F8BD38B50C46050011D006F029FD284675
:1047E00005F0E4FB0090416BA14203D044632846EE
:1047F00011F0AEF8684605F043FC08F017F938BD33
:1048000038B50C4605001BD006F012FD284605F011
:10481000CDFB009090F87410A1420CD980F875403F
:10482000684605F02DFC284611F092F8052128462F
:1048300011F081F902E0684605F022FC08F0F6F874
:1048400038BDFEB50D46040022D0002D20D006F064
:10485000EFFC204605F0AAFB0190866F01A80096A8
:1048600005F00EFC2946684608F0FEFF70B100987E
:10487000B04208D0204605F099FB0190009981676D
:1048800001A805F0FDFB204611F062F808F0CEF813
:10489000FEBD38B50C46050011D006F0C9FC28460F
:1048A00005F084FB0090416CA14203D0446428468B
:1048B00011F04EF8684605F0E3FB08F0B7F838BD94
:1048C00000B589B024216846FBF71CFF1920019030
:1048D00003480068806841686846884709B000BDA1
:1048E000F00B00202DE9F05F0024002500260027B2
:1048F000A246A046A1469948006811F092F8002807
:1049000078D003F0B1FC054603F06EFD064603F0D7
:104910000BFD074615B90EB9002F42D0904800781C
:1049200000283ED10DB12C4604E00EB1344601E022
:1049300007B13C46072C2FD2DFE804F02E040B12FF
:104940001920270040F2F7418448006811F005FA69
:1049500023E04FF49F618148006811F0FEF91CE0EC
:1049600040F2F9417D48006811F0F7F915E040F296
:10497000FA417A48006811F0F0F90EE040F2FB418C
:104980007648006811F0E9F907E040F2FC4173480D
:10499000006811F0E2F900E000BF00BF4FF000092D
:1049A0000CE009F10109B9F52F7F07D34FF0000999
:1049B00040F2FD416948006811F0CFF900200AF08B
:1049C00025F80446002C73D000206649086064482E
:1049D0000078012802D1062C00D03724052C56D0AF
:1049E00009DC012C0ED0022C1ED0032C2BD0042C61
:1049F0006DD13AE082E0062C50D0072C59D0FF2C24
:104A000065D15DE00F21584805F00CF808215648A3
:104A100005F00AF800215148006806F06BF909F02A
:104A2000DFFE4E49086053E00F214F4804F0FAFFC3
:104A300002214D4804F0F8FF4FF49E61474800689A
:104A400011F08BF944E00F21474804F0EBFF0121FE
:104A5000454804F0E9FF00214048006806F04AF9A3
:104A60000BF0E0FA3D49086032E00F213E4804F0C7
:104A7000D9FF04213C4804F0D7FF002137480068E3
:104A800006F038F90EF034FC3449086020E040F2BA
:104A9000F4413248006811F060F919E001202EF06D
:104AA000B7FA40F2F5412D48006811F056F90FE0D1
:104AB0000FE040F2F6412948006811F04EF907E096
:104AC00040F2FE412548006811F047F900E000BFC0
:104AD00030E024480068401C22490860084600680D
:104AE000B0F5FA6F26D3002008602EF091FA40F25C
:104AF000FF411A48006811F030F91BE0FF2007F071
:104B00007FF805F0A1FB002007F085F8002108469A
:104B100006F04CFB05F02AFA834605F03BFD002029
:104B200030F044FD82460A21002006F03FFB50464B
:104B300005F030FDB8F57A7F07D14FF000080B483B
:104B40000068C0430A49C1F88001012005F0EEFC6D
:104B500008F101001FFA80F8BDE8F09F0000002076
:104B6000D30000200C0000200010014080012142F1
:104B7000000021420178012901DD00210170704708
:104B80007CB501200A490870FFF778FC0BF0FAFEAB
:104B900010F046FB0546002000902B46054A0821F0
:104BA0000190054805F09CFB044620467CBD0000B2
:104BB000AC0000203DEC0108781904087CB510F029
:104BC0002FFB0546002000902B46044A032101904C
:104BD000034805F085FB044620467CBDFD280308FC
:104BE000304004087CB5FFF749FC10F019FB05467E
:104BF000002000902B46044A0F210190034805F045
:104C00006FFB044620467CBDADBD02088C3E040807
:104C100070B504460D46062C28D2DFE804F00309DF
:104C20000F151B21294644F6244033F0BDFD1DE03D
:104C3000294643F64B5031F075FE17E0294643F6FE
:104C4000555031F025FF11E0294643F65D5032F012
:104C50005DF80BE0294643F6675031F02DFD05E085
:104C6000294644F62D4033F09FFD00BF00BF70BDC4
:104C700070B504460D46082C35D2DFE804F0040A6E
:104C800010161C22282E294644F674402EF0DEF918
:104C900029E0294644F67B402EF0D8F923E0294646
:104CA00044F682402EF0D2F91DE0294644F66640D3
:104CB0002EF0CCF917E0294644F66D402EF0C6F9E7
:104CC00011E0294644F689402EF0C0F90BE0294650
:104CD00044F65F402EF0BAF905E0294644F6584004
:104CE0002EF0B4F900BF00BF70BD70B504460D468C
:104CF000082C35D2DFE804F0040A10161C22282EF6
:104D0000294644F675402EF047FA29E0294644F634
:104D10007C402EF041FA23E0294644F683402EF0F1
:104D20003BFA1DE0294644F667402EF035FA17E0BD
:104D3000294644F66E402EF02FFA11E0294644F63B
:104D40008A402EF029FA0BE0294644F660402EF006
:104D500023FA05E0294644F659402EF01DFA00BF1B
:104D600000BF70BD2DE9F04106460F461446082FDE
:104D70001BD2DFE807F00406080C0E1214186500B9
:104D800013E0A50011E004EB440045000DE0E50050
:104D90000BE004EB4400850007E0250105E004EB8F
:104DA0004400C50001E0650100BF00BF082E35D2F8
:104DB000DFE806F0040A10161C22282E294644F6C5
:104DC00076402EF0A1F929E0294644F67D402EF0E8
:104DD0009BF923E0294644F684402EF095F91DE026
:104DE000294644F668402EF08FF917E0294644F62C
:104DF0006F402EF089F911E0294644F68B402EF0E1
:104E000083F90BE0294644F661402EF07DF905E078
:104E1000294644F65A402EF077F900BF00BFBDE89E
:104E2000F0812DE9FC470646894614461D46082EAA
:104E30006DD2DFE806F004111E2B3845525F48465C
:104E400033F0C3FF07463A460B4643F6A970CDE957
:104E500000452EF0D1F95AE0484633F0B6FF074638
:104E60003A460B4643F6DF70CDE900452EF0C4F913
:104E70004DE0484633F0A9FF07463A460B4644F258
:104E80001500CDE900452EF0B7F940E0484633F073
:104E90009CFF07463A460B4643F63D70CDE9004578
:104EA0002EF0AAF933E0484633F08FFF07463A4622
:104EB0000B4643F67370CDE900452EF09DF926E0D0
:104EC000484633F082FF07463A460B4644F24B0011
:104ED000CDE900452EF090F919E0484633F075FF12
:104EE00007463A460B4643F60770CDE900452EF0DB
:104EF00083F90CE0484633F068FF07463A460B4614
:104F000043F6D160CDE900452EF076F900BF00BF31
:104F1000BDE8FC871FB58AB0169810B9002008902C
:104F200001E001200890149818B9FE480068099023
:104F30000CE01498012803D1FA484068099005E074
:104F40001498022802D1F748806809901598022821
:104F50007AD10A98082878D2DFE800F004A4F1F0AA
:104F6000EFEEEDEC0B98082819D2DFE800F0990479
:104F7000192E43586F8408980690DDE91201CDE997
:104F800004010021029103914BF680311098CDE984
:104F9000000144F25920DDE90C23099988477FE09C
:104FA00008980690DDE91201CDE904010021029183
:104FB00003914BF680311098CDE9000144F25E2058
:104FC000DDE90C23099988476AE008980690DDE935
:104FD0001201CDE904010021029103914BF68031C9
:104FE0001098CDE9000144F26320DDE90C23099912
:104FF000884755E008980690DDE91201CDE90401E3
:10500000002102914BF6803203911098CDE9000205
:1050100044F26820DDE90C230999884740E00898AC
:105020000690DDE91201CDE904010021029103910E
:105030004BF680311098CDE9000144F26D20DDE996
:105040000C23099988472BE0FEE30DE208980690AF
:10505000DDE91201CDE904010021029103914BF633
:1050600080311098CDE9000144F27220DDE90C2373
:105070000999884714E008980690DDE91201CDE906
:105080000401002102914BF6803203911098CDE982
:10509000000244F27720DDE90C230999884700BF1C
:1050A00000BFE1E10B98082819D2DFE800F09D0469
:1050B000192E495E738808980690DDE91201CDE942
:1050C0000401002102914BF6803203911098CDE942
:1050D000000244F20830DDE90C230999884783E097
:1050E00008980690DDE91201CDE904010021029142
:1050F00003914BF680311098CDE9000144F20D3058
:10510000DDE90C23099988476EE008980690DDE9EF
:105110001201CDE90401002102914BF68032039186
:105120001098CDE9000244F21230DDE90C23099910
:10513000884759E073E3D4E235E296E1F7E055E0C1
:1051400008980690DDE91201CDE9040100210291E1
:1051500003914BF680311098CDE9000144F21730ED
:10516000DDE90C23099988473EE008980690DDE9BF
:105170001201CDE90401002102914BF68032039126
:105180001098CDE9000244F21C30DDE90C230999A6
:10519000884729E008980690DDE91201CDE904016D
:1051A000002102914BF6803203911098CDE9000264
:1051B00044F22130DDE90C230999884714E008986E
:1051C0000690DDE91201CDE904010021029103916D
:1051D0004BF680311098CDE9000144F22630DDE92C
:1051E0000C230999884700BF00BFB8E30B98082833
:1051F00019D2DFE800F09A04192E43586D820898FE
:105200000690DDE91201CDE90401002102914BF67F
:10521000803203911098CDE9000244F23620DDE996
:105220000C230999884780E008980690DDE912016F
:10523000CDE90401002102914BF6803203911098D0
:10524000CDE9000244F23B20DDE90C2309998847AF
:105250006BE008980690DDE91201CDE90401002118
:10526000029103914BF680311098CDE9000144F290
:105270004020DDE90C230999884756E008980690FC
:10528000DDE91201CDE904010021029103914BF601
:1052900080311098CDE9000144F24520DDE90C236E
:1052A0000999884741E008980690DDE91201CDE9A7
:1052B00004010021029103914BF680311098CDE951
:1052C000000144F24A20DDE90C23099988472CE0CB
:1052D00008980690DDE91201CDE904010021029150
:1052E0004BF6803203911098CDE9000244F24F2032
:1052F000DDE90C230999884717E008980690DDE955
:105300001201CDE90401002102914BF68032039194
:105310001098CDE9000244F25420DDE90C230999EC
:10532000884701E0DC06002000BF00BF17E30B98B0
:10533000082819D2DFE800F09704192E43586D822F
:1053400008980690DDE91201CDE9040100210291DF
:105350004BF6803203911098CDE9000244F21320FD
:10536000DDE90C23099988477DE008980690DDE97E
:105370001201CDE904010021029103914BF6803125
:105380001098CDE9000144F21820DDE90C230999B9
:10539000884768E008980690DDE91201CDE904012C
:1053A000002102914BF6803203911098CDE9000262
:1053B00044F21D20DDE90C230999884753E0089841
:1053C0000690DDE91201CDE90401002102914BF6BE
:1053D000803203911098CDE9000244F22220DDE9E9
:1053E0000C23099988473EE008980690DDE91201F0
:1053F000CDE90401002002904BF680310390109813
:10540000CDE9000144F22720DDE90C230999884702
:1054100029E008980690DDE91201CDE90401002198
:1054200002914BF6803203911098CDE9000244F2CC
:105430002C20DDE90C230999884714E00898069090
:10544000DDE91201CDE90401002002904BF6803223
:1054500003901098CDE9000244F23120DDE90C23DD
:105460000999884700BF00BF79E20B98082819D234
:10547000DFE800F09704192E43586D8208980690D3
:10548000DDE91201CDE90401002102914BF68032E1
:1054900003911098CDE9000244F2CB10DDE90C2312
:1054A000099988477DE008980690DDE91201CDE969
:1054B0000401002002904BF6803203901098CDE951
:1054C000000244F2D010DDE90C230999884768E016
:1054D00008980690DDE91201CDE90401002102914E
:1054E00003914BF680311098CDE9000144F2D510BC
:1054F000DDE90C230999884753E008980690DDE917
:105500001201CDE90401002102914BF68032039192
:105510001098CDE9000244F2DA10DDE90C23099974
:1055200088473EE008980690DDE91201CDE90401C4
:10553000002002904BF6803103901098CDE90001D5
:1055400044F2DF10DDE90C230999884729E0089827
:105550000690DDE91201CDE90401002002904BF62E
:10556000803203901098CDE9000244F2E410DDE9A6
:105570000C230999884714E008980690DDE9120188
:10558000CDE90401002102914BF68032039110987D
:10559000CDE9000244F2E910DDE90C2309998847BE
:1055A00000BF00BFDBE10B98082819D2DFE800F04C
:1055B0009704192E43586D8208980690DDE9120170
:1055C000CDE90401002002904BF680310390109841
:1055D000CDE9000144F2EE10DDE90C23099988477A
:1055E0007DE008980690DDE91201CDE90401002173
:1055F000029103914BF680311098CDE9000144F2FD
:10560000F310DDE90C230999884768E008980690B3
:10561000DDE91201CDE90401002002904BF6803152
:1056200003901098CDE9000144F2F810DDE90C2355
:105630000999884753E008980690DDE91201CDE901
:105640000401002102914BF6803203911098CDE9BC
:10565000000244F2FD10DDE90C23099988473EE081
:1056600008980690DDE91201CDE9040100200290BE
:105670004BF6803203901098CDE9000244F20220EC
:10568000DDE90C230999884729E008980690DDE9AF
:105690001201CDE904010021029103914BF6803102
:1056A0001098CDE9000144F20720DDE90C230999A7
:1056B000884714E008980690DDE91201CDE904015D
:1056C000002102914BF6803203911098CDE900023F
:1056D00044F20C20DDE90C230999884700BF00BF84
:1056E0003DE10B98082819D2DFE800F09704192E45
:1056F00043586D8208980690DDE91201CDE9040156
:10570000002102914BF6803203911098CDE90002FE
:1057100044F28A20DDE90C23099988477DE0089846
:105720000690DDE91201CDE90401002002904BF65C
:10573000803103901098CDE9000144F28F20DDE91B
:105740000C230999884768E008980690DDE9120162
:10575000CDE904010021029103914BF680311098AC
:10576000CDE9000144F29420DDE90C230999884732
:1057700053E008980690DDE91201CDE9040100200C
:1057800002904BF6803103901098CDE9000144F26D
:105790009920DDE90C23099988473EE00898069096
:1057A000DDE91201CDE90401002102914BF68032BE
:1057B00003911098CDE9000244F29E20DDE90C230C
:1057C0000999884729E008980690DDE91201CDE99A
:1057D0000401002002904BF6803103901098CDE92F
:1057E000000144F2A320DDE90C230999884714E065
:1057F00008980690DDE91201CDE90401002002902D
:105800004BF6803103901098CDE9000144F2A820B6
:10581000DDE90C230999884700BF00BF9FE00B9882
:1058200008281BD2DFE800F099041B30455A6F842A
:1058300008980690DDE91201CDE9040100200290EC
:105840004BF68031039000E08AE01098CDE900012A
:1058500044F2AD20DDE90C23099988477DE00898E2
:105860000690DDE91201CDE90401002102914BF619
:10587000803203911098CDE9000244F2B220DDE9B4
:105880000C230999884768E008980690DDE9120121
:10589000CDE90401002002904BF68031039010986E
:1058A000CDE9000144F2B720DDE90C2309998847CE
:1058B00053E008980690DDE91201CDE904010021CA
:1058C000029103914BF680311098CDE9000144F22A
:1058D000BC20DDE90C23099988473EE00898069032
:1058E000DDE91201CDE90401002102914BF680327D
:1058F00003911098CDE9000244F2C120DDE90C23A8
:105900000999884729E008980690DDE91201CDE958
:105910000401002102914BF6803203911098CDE9E9
:10592000000244F2C620DDE90C230999884714E0FF
:1059300008980690DDE91201CDE9040100210291E9
:1059400003914BF680311098CDE9000144F2CB2051
:10595000DDE90C230999884700BF00BF00BFF9E3C8
:1059600015980328FBD10A98082877D2DFE800F0C1
:1059700004A3F0EFEEEDECEB0B98082819D2DFE86A
:1059800000F09804192E43586E8308980690DDE9BC
:105990001201CDE904010021029103914BF68031FF
:1059A0001098CDE9000144F23250DDE90C23099949
:1059B00088477EE008980690DDE91201CDE90401F0
:1059C000002102914BF6803203911098CDE900023C
:1059D00044F23750DDE90C230999884769E00898BB
:1059E0000690DDE91201CDE9040100210291039145
:1059F0004BF680311098CDE9000144F23C50DDE9CE
:105A00000C230999884754E008980690DDE91201B3
:105A1000CDE90401002102914BF6803203911098E8
:105A2000CDE9000244F24150DDE90C230999884791
:105A30003FE008980690DDE91201CDE9040100215C
:105A4000029103914BF680311098CDE9000144F2A8
:105A50004650DDE90C23099988472AE00AE20898B4
:105A60000690DDE91201CDE90401002002904BF619
:105A7000803103901098CDE9000144F24B50DDE9EC
:105A80000C230999884714E008980690DDE9120173
:105A9000CDE904010021029103914BF68031109869
:105AA000CDE9000144F25050DDE90C230999884703
:105AB00000BF00BFDEE10B98082819D2DFE800F034
:105AC0009D04192E495E738808980690DDE912013D
:105AD000CDE90401002002904BF68032039010982B
