:020000040800F2
:10000000C81603200D020008D97300087D5B0008A4
:10001000D5730008290D000887880008000000003B
:1000200000000000000000000000000057790008F8
:10003000C11100080000000061740008AD7B0008D9
:1000400027020008270200082702000827020008EC
:1000500027020008270200082702000827020008DC
:1000600027020008270200082702000827020008CC
:1000700027020008270200082702000827020008BC
:1000800027020008270200082702000827020008AC
:10009000270200082702000827020008270200089C
:1000A000270200082702000827020008270200088C
:1000B00027020008317E00082702000827020008F6
:1000C000270200082702000827020008270200086C
:1000D0002702000895870008270200082702000869
:1000E000270200082702000827020008270200084C
:1000F000270200082702000827020008270200083C
:10010000270200082702000827020008270200082B
:100110002702000827020008D97E000827020008ED
:10012000270200082702000827020008270200080B
:1001300000F002F800F05AF80AA090E8000C82449F
:100140008344AAF10107DA4501D100F04FF8AFF27C
:10015000090EBAE80F0013F0010F18BFFB1A43F0A5
:100160000103184780C10200A0C102000A444FF0F9
:10017000000C10F8013B13F0070408BF10F8014B06
:100180001D1108BF10F8015B641E05D010F8016B4B
:10019000641E01F8016BF9D113F0080F1EBF10F8AF
:1001A000014BAD1C0C1B09D16D1E58BF01F801CBD2
:1001B000FAD505E014F8016B01F8016B6D1EF9D555
:1001C0009142D6D37047000000230024002500266A
:1001D000103A28BF78C1FBD8520728BF30C148BFAA
:1001E0000B6070471FB51FBD10B510BD00F0FCF9C6
:1001F0001146FFF7F7FF12F08BFF00F01AFA03B475
:10020000FFF7F2FF03BC12F02BFF00000948804704
:1002100009480047FEE7FEE7FEE7FEE7FEE7FEE7E8
:10022000FEE7FEE7FEE7FEE704480549054A064B00
:1002300070470000B17B000831010008C80C0320A2
:10024000C8160320C80E0320C80E0320704740EADA
:10025000010310B59B070FD1042A0DD310C808C99C
:10026000121F9C42F8D020BA19BA884201D9012045
:1002700010BD4FF0FF3010BD1AB1D30703D0521C90
:1002800007E0002010BD10F8013B11F8014B1B1BCB
:1002900007D110F8013B11F8014B1B1B01D1921E35
:1002A000F1D1184610BD40EA0103024630B59B0764
:1002B00010D14FF0013400E008C208C91D1B9D4356
:1002C00015EAC41FF8D013F0FF0102F8011B0DD08E
:1002D0001B0AF8E711F8013B002B02F8013B05D09F
:1002E00011F8013B002B02F8013BF3D130BD10B5F2
:1002F000431C02E010F8011B71B18107FAD14FF0E5
:10030000013202C88C1A8C4314EAC211F9D0C01A07
:100310000A0603D0C01E10BDC01A10BD0A0401D0C9
:10032000801E10BD0902FCD0401E10BD032A40F201
:10033000308010F0030C00F0158011F8013BBCF187
:10034000020F624498BF11F801CB00F8013B38BF9F
:1003500011F8013BA2F1040298BF00F801CB38BFAD
:1003600000F8013B11F0030300F06780083AC0F089
:10037000088051F8043B083A51F804CBA0E8081073
:10038000F5E7121D5CBF51F8043B40F8043BAFF3A6
:100390000080D20724BF11F8013B11F801CB48BF00
:1003A00011F8012B24BF00F8013B00F801CB48BF36
:1003B00000F8012B7047431A28BF9A427FF6B6AF68
:1003C000032A1044114440F2268010F0030F1EBF90
:1003D00011F8013D521E00F8013D10F0030F7FF4AB
:1003E000F6AF11F0030300F0AB80083AC0F00B80C9
:1003F00051F8043D083A51F804CD40F8043D40F866
:1004000004CDFFF7F3BF121D5CBF51F8043D40F867
:10041000043DAFF30080D20724BF11F8013D11F86D
:1004200001CD48BF11F8012C24BF00F8013D00F8B0
:1004300001CD48BF00F8012C704710B5203AC0F03C
:100440000B80B1E81850203AA0E81850B1E81850D5
:10045000A0E81850BFF4F5AF5FEA027C24BFB1E812
:100460001850A0E8185044BF18C918C0BDE8104083
:100470005FEA827C24BF51F8043B40F8043B08BF8C
:100480007047D20728BF31F8023B48BF11F8012B53
:1004900028BF20F8023B48BF00F8012B704702F04C
:1004A000FF0343EA032242EA024200F075B84FF02C
:1004B000000200B5134694469646203922BFA0E8B4
:1004C0000C50A0E80C50B1F12001BFF4F7AF0907C0
:1004D00028BFA0E80C5048BF0CC05DF804EB8900B1
:1004E00028BF40F8042B08BF704748BF20F8022BF4
:1004F00011F0804F18BF00F8012B7047704770470C
:100500007047704710B500F067F8006810BD10B56F
:10051000044600F061F8046010BD431A28BF9A42F7
:100520007FF68BAF104410F0030F11441EBF11F87B
:10053000013D521E00F8013D10F0030F7FF4F6AFAD
:10054000103AC0F00A8010B531E91850103A20E98D
:100550001850BFF4F9AFBDE81040530724BF31E98C
:10056000081020E9081044BF51F8043D40F8043D4C
:1005700012F0030F08BF7047D20728BF31F8023DC1
:1005800048BF11F8012C28BF20F8023D48BF00F8F1
:10059000012C70474FF000020429C0F0128010F0C7
:1005A000030C3FF486AFCCF1040CBCF1020F18BF72
:1005B00000F8012BA8BF20F8022BA1EB0C01FFF7DC
:1005C00078BF5FEAC17C24BF00F8012B00F8012B43
:1005D00048BF00F8012B704700487047640C0320A7
:1005E00000487047640C03207546FFF7F9FFAE46DC
:1005F00005006946534620F00700854618B020B52F
:10060000FFF712FEBDE820404FF000064FF0000754
:100610004FF000084FF0000B21F00701AC46ACE8AA
:10062000C009ACE8C009ACE8C009ACE8C0098D4617
:1006300070470446AFF300802046FFF7E0FD2DE948
:10064000F04180460C46164605F05CFB2746E11754
:1006500004EB11610912A02202EB4101C8B205F0BE
:1006600021FB05F07DFB20B105F066FB0020BDE815
:10067000F0812746E11704EB11610912A4EB012177
:10068000C8B205F00FFB05F06BFB18B105F054FB89
:100690000020ECE705F036FBA12005F003FB05F098
:1006A0005FFB18B105F048FB0020E0E700250DE0F6
:1006B00005F0D4FA08F80500701EA84202D005F033
:1006C0005FFA01E005F0B2FA681C85B2B542EFDBD3
:1006D00005F032FB0120CAE72DE9F0478046894644
:1006E00092464C46002547E015B104F00F0098BB38
:1006F00005F022FB002612E005F004FB2746E11777
:1007000004EB11610912A02202EB4101C8B205F00D
:10071000C9FA05F025FB00B904E0701C86B2B6F5F5
:100720007A7FE9DB00BFB6F57A7F04D105F004FBE0
:100730000020BDE8F0872746E11704EB116109129C
:10074000A4EB0121C8B205F0ADFA05F009FB18B120
:1007500005F0F2FA0020ECE7FFE718F8050005F0D5
:10076000A1FA05F0FDFA18B105F0E6FA0020E0E77D
:10077000601C84B2681C85B25545B5DB05F0DCFA17
:100780000120D6E7002800DC4042704710B512F087
:100790006BFC40F6B83012F089FC4FF4A06006F014
:1007A00055FE06F01FFC05F0C5FB00F03FFE06F00D
:1007B0004BFC0A4800680A49B0FBF1F0401E84B2C5
:1007C000214640F2E73007F057FB07F009FD002013
:1007D00012F0D8FD05F012FA10BD00000400002050
:1007E00040420F0038B5456804460146284608F0E7
:1007F00065F800282BD02068304A11280DD006DC7F
:100800000B2825D00E2833D00F2852D112E02828EB
:1008100049D0B0F5107F4CD108E09268002A16D07C
:100820002146284601B0BDE8304010472146284601
:100830005268F7E7284601F07DFD0090406E04689D
:10084000684601F0B5FD002C01D02846A04738BD10
:10085000284601F06FFD0090683001F0B7FC009869
:1008600003216C3001F0C0FC684601F0A1FD20E0DE
:10087000E168486809680D2902D0202913D105E0F4
:10088000002810DD28460DF03FFF06E0002804DDBB
:100890002846BDE838400DF037BF2846BDE838404F
:1008A00002210DF047BFE06818B90021284600F08A
:1008B000CBF92046BDE8384008F008BB0003002013
:1008C000F0B5044685B08069B4F90850668A0027FF
:1008D000CDE90265CDE900170490B4F90C00B4F934
:1008E0001060C118B4F90A00B4F90E501044334630
:1008F0002A4600F007F80546616800F0BDF905B02A
:100900002846F0BD2DE9F04F85B01F46DDE911B452
:10091000DDE90E5690468946824602F0AFFD164844
:100920004C34CDE90204CDE900563B4642464946E7
:10093000504608F013FA040018D001F0FBFC102216
:100940005946049008F0A0F8049830220B4934303E
:10095000FFF773FD094D04990C3D2868486604A80B
:1009600001F026FD286841682046884704F036F9E2
:1009700005B02046BDE8F08FE50700080C03002015
:10098000F0B5044680688B4989B051F82050606802
:1009900000287DD0052804D006287AD0122879D1E5
:1009A000AEE0E86900284FD095E80E008DE80F0012
:1009B00004F110010FC904F0BFFC002655F8260011
:1009C00003F04FFAA169E8690A1A216901446069D4
:1009D000304402F011FAA169E8690A1A2169014458
:1009E000E069801B02F008FAE169E8690A1A6169A6
:1009F00001442069304402F08FFAE169E8690A1A7B
:100A000061690144A069801B02F086FA761C022EFF
:100A1000D4DBA86803F025FAE069E9696669431A3E
:100A2000206942183144801C521E02F02BFBE16900
:100A3000E869A2690B1A61690144101A401C921EF0
:100A400002F020FBEE6913E05FF0000655F8260087
:100A500003F007FAE069831BA069821B60698119B2
:100A60002069304402F018FA761C022EEEDB0226D2
:100A7000D5E90301CDE900016169E069084443104B
:100A8000A069891C821B2069304402F079F902E0D8
:100A900089E012E08AE0D5E90501CDE90001E369CA
:100AA00060690121184401EB6001A0699B1E821B53
:100AB0002069304402F064F978E0206801F03AFCE3
:100AC0000490206809F064FC40B1A06808B10020DF
:100AD00008E00498006F28B1012003E00498406FFB
:100AE00000B10220049901EB8000C56E04A801F05A
:100AF0005FFC00231A462846216801F083FE55E07A
:100B0000206801F017FC0490866EEEB3B0F95C70BB
:100B1000A168D1B3032942D05FF0000100EB81014D
:100B2000406D0C6C03F0C6F9204603F09AF905A855
:100B300002F0CAFBBDF81410A88B0144ADF81410E4
:100B4000BDF81810081AADF81800BDF81600801C82
:100B5000ADF81600BDF81A00801EADF81A00049812
:100B6000B0F96020B0F95E1005A803F056F804A8AB
:100B700001F01EFC022003F009FA304601F0DAFB16
:100B80003A4605A9079001E00BE006E001F040FFBE
:100B90000DF11C0001F00CFC08E00121BEE7022170
:100BA000BCE704A8F6E7206809F0B2F809B0002015
:100BB000F0BD0000C44E0208042905D2034A52F8D1
:100BC00021102022FFF739BC70470000C44E0208F4
:100BD00038B505004FF000040DD002F04FFC284658
:100BE00001F0A8FB0090408EC0F30024684601F09D
:100BF000DFFB03F0F3FF204638BD0000032903D2DA
:100C0000024A02EB8101C860704700000C0300201B
:100C100000294FF0100101D007F0E4BE07F035BE07
:100C200038B50D4604000ED002F028FC204601F035
:100C300081FB00904565684601F0BAFB204608F04C
:100C4000C5FD03F0CBFF38BD4FF48072002911467B
:100C500001D007F0C7BE07F018BE0000042907D274
:100C6000044A52F82130014620221846FFF7E5BB1E
:100C700070470000C44E02082DE9FF410E460500F2
:100C80004FF0010421D002F0F9FB284601F052FB9D
:100C90000190876E01A8009701F08AFB31466846F3
:100CA00004F00EFE78B100980024B84208D028461F
:100CB00001F040FB01900099816601A801F078FBEA
:100CC000284608F083FD03F089FF04B02046BDE804
:100CD000F081F0B504460D4616461F462A2009F05D
:100CE0003BFEC4F30F2009F041FEE0B209F03EFEE6
:100CF000C5F30F2009F03AFEE8B209F037FE2B20C9
:100D000009F02AFEC6F30F2009F030FEF0B209F018
:100D10002DFEC7F30F2009F029FEF8B209F026FED8
:100D20002C2009F019FEF0BD00BFFEE700B589B028
:100D3000012101A8FFF740FF4FF47F400190002000
:100D40000290FF2003900690FF21079104900591E7
:100D5000012101A8FFF782FF002101A8FFF77EFF14
:100D600002210448FFF77AFF00210846FFF746FFFB
:100D700009B000BD5007002000B589B0022101A8CC
:100D8000FFF71AFF4FF47F400190002002904FF4CC
:100D90007F0003900690014607910490059102217F
:100DA00001A8FFF75BFF00216FF07F40FFF726FFF0
:100DB00009B000BDF8B5446805460146204607F075
:100DC0007DFD002836D028680B2839D00E2805D0A4
:100DD0000F2821D0B0F5107F3CD12CE0204601F047
:100DE000A9FA009010F8746F4778684601F0E0FAAD
:100DF000204609F0CDFA10B3E8684168002929DDE2
:100E00000068202826D17F1CB7FBF6F006FB107186
:100E1000204600F04DF91DE02546204601F08AFAF3
:100E20000090006F0468684601F0C2FA002C01D0FF
:100E30002846A047F8BD294620460DF097FD09E059
:100E4000204601F077FA0090783001F0BFF968464B
:100E500001F0AEFA2846BDE8F84008F037B8F0B522
:100E600085B0B0F90850468A84690296CDE90354EA
:100E70000027CDE90017B0F90C10B0F91050B0F907
:100E80000E40B0F90A00194410442B46224600F0E7
:100E900003F805B0F0BD00002DE9F04F85B01D4608
:100EA000DDE90E9716468A468346DDF8488002F053
:100EB000E5FA254C0EB135B10AE02068806800687B
:100EC00080470646F7E72068806800688047054647
:100ED0001D486FF07041001DC068884201D147F085
:100EE000010708F15400194ACDE90220CDE9009725
:100EF0002B4632465146584607F030FF05001CD0BD
:100F000001F018FA10220490119907F0BDFD0E4966
:100F100004983C22091D3430FFF78FFA04982168A9
:100F20000167022180F874100F21C16704A801F045
:100F30003FFA206841682846884703F04FFE05B015
:100F40002846BDE8F08F00008C050020B50D000894
:100F50002DE9FF470446006810B109F019FA68B19D
:100F60000022314850F8221060680A2841D007DC7E
:100F7000F0B306280DD0072854D106E00122F0E78F
:100F800012280AD019284DD137E020460AF0AAF8D5
:100F900048E020460BF06CFC44E0206801F0CAF900
:100FA0000290B0F9548090F85650476C466B02A8F6
:100FB00001F0FEF9206800F039F88146684608F033
:100FC00087F8BDF8001009EB05000844ADF80000F3
:100FD000246A304602F06EFF022002F0D7FF384646
:100FE00002F03FFF42466946204601F011FD19E03C
:100FF00007E020460BF01EFD14E0886904B0BDE850
:10100000F087206808F084FE206801F093F90390CF
:10101000B0F90610B0F90220891A491CC16703A86B
:1010200001F0C6F90020E9E77CC1020838B50446A2
:1010300002F024FA204601F07DF90090C46F684662
:1010400001F0B6F903F0CAFD204638BDF8B50D46EB
:1010500006004FF0000412D002F010FA304601F002
:1010600069F90090816CA94204D085640C46304631
:1010700008F0ACFB684601F09BF903F0AFFD204699
:10108000F8BD38B50C46050011D002F0F7F9284636
:1010900001F050F90090416BA14203D0446328460F
:1010A00008F094FB684601F083F903F097FD38BD22
:1010B00038B50C4605001BD002F0E0F9284601F0D7
:1010C00039F9009090F87410A1420CD980F875405D
:1010D000684601F06DF9284608F078FB052128469E
:1010E00008F0F8FB02E0684601F062F903F076FDD3
:1010F00038BDFEB50D46040022D0002D20D002F0F0
:10110000BDF9204601F016F90190866F01A80096FE
:1011100001F04EF92946684604F0D2FB70B1009800
:10112000B04208D0204601F005F90190009981678E
:1011300001A801F03DF9204608F048FB03F04EFD00
:10114000FEBD38B50C46050011D002F097F92846CF
:1011500001F0F0F80090416CA14203D044642846AD
:1011600008F034FB684601F023F903F037FD38BD81
:1011700000B589B024216846FFF799F9192001903C
:1011800003480068806841686846884709B000BD28
:101190008C0500207CB5FFF7C9FD07F0C7FF0546A9
:1011A000002000902B46044A07210190034801F0DB
:1011B00019FA044620467CBD85080108B0BF010825
:1011C0007047000070B506460D4614462B462A4669
:1011D00031463046FFF77DFDA0B204F0B3FF044670
:1011E0000148048070BD0000000002602DE9F0415C
:1011F00000250026002700242848007830B9284818
:101200000068264908700020BDE8F0812448006885
:1012100030B1002700202349487008464078F3E7A2
:10122000012011F043FF1E48006830B10027002064
:101230001C49487008464078E6E71948001F0068D6
:10124000C6B205E01648001F0068C5B20127641C3D
:101250001348006810B914488442F3D3104800685A
:101260000E490870BFB11048844214D200272EB92D
:10127000012D03D102200B49487009E0012E04D151
:101280001DB901200749487002E000200549487057
:1012900004484078B8E70020B6E700003800002096
:1012A000180123423300002020A107002DE9F0415E
:1012B00000250026002700242848007830B9284857
:1012C0000068264908700020BDE8F08124480068C5
:1012D00030B1002700202349C8700846C078F3E7E2
:1012E000012011F0E3FE1E48006830B10027002005
:1012F0001C49C8700846C078E6E71948001F006816
:10130000C6B205E01648001F0068C5B20127641C7C
:101310001348006810B914488442F3D31048006899
:101320000E490870BFB11048844214D200272EB96C
:10133000012D03D106200B49C87009E0012E04D10C
:101340001DB905200749C87002E000200549C87092
:101350000448C078B8E70020B6E700003A00002053
:10136000080123423300002020A107002DE9F041AD
:1013700000250026002700242848007830B9284896
:101380000068264908700020BDE8F0812448006804
:1013900030B1002700202349887008468078F3E7A1
:1013A000012011F083FE1E48006830B100270020A4
:1013B0001C49887008468078E6E71948001F0068D5
:1013C000C6B205E01648001F0068C5B20127641CBC
:1013D0001348006810B914488442F3D310480068D9
:1013E0000E490870BFB11048844214D200272EB9AC
:1013F000012D03D104200B49887009E0012E04D18E
:101400001DB903200749887002E000200549887053
:1014100004488078B8E70020B6E7000039000020D3
:10142000100123423300002020A1070008B501214C
:10143000402006F037F803208DF802007E20ADF83A
:10144000000048208DF803006946024800F0DAFBEE
:1014500008BD00000018014010B5034806F00CFA62
:1014600005F092FF10BD0000EDCE000851B18200E2
:10147000A2F1C042126842F001038200A2F1C04210
:10148000136009E08200A2F1C0421268034B1A40C7
:101490008300A3F1C0431A6070470000FEFF0F00F5
:1014A000D0E901121143C268114302691143426934
:1014B000114382691143C2691143026A1143426AAE
:1014C0001143826A1143C26A1143026B11430268DD
:1014D0009200A2F1C0421160816808290BD1016815
:1014E0008900A1F1C041096841F04002016889000A
:1014F000A1F1C0410A60416B0968426B526841EA40
:101500000211426B926841EA0221426B928941EAE0
:101510000241426B128A41EA0251426B127D41EA5A
:101520000261426B926911430268521C9200A2F15F
:10153000C0421160C16AB1F5804F1BD1816B09684F
:10154000826B526841EA0211826B926841EA022181
:10155000826B128A41EA0251826B127D41EA02617A
:10156000826B9269114302689200A2F1C042C2F8F4
:10157000041107E06FF0704201688900A1F1C041D9
:10158000C1F80421704700002DE9F0430446C56806
:1015900087B090468946002002F080FC064625B1BF
:1015A000287910B146F0020001E026F0020002F0B6
:1015B00075FC2069012558B1D4E902128DE8260096
:1015C000039563882288046841464846A0471EE088
:1015D000124F134B214638681B68427CE0689847DD
:1015E00030B9E088012801D0002001E03868806B24
:1015F000A288E388A1680095CDE90410CDE9023204
:101600000195638822884146484604F0ABFD07B047
:101610003046BDE8F04302F041BC00002802002043
:10162000200200201CB50024019401AC009400F0BD
:10163000E7F81CBD2DE9FF4F83B0814606988A4626
:10164000A0EB0A08109E00200090A2EB0904356868
:10165000934654EA080018D02046FFF793F807464F
:101660004046FFF78FF887420BDA20464446804613
:101670004846D14682465846DDF818B0069001200B
:101680000090002C07DD204606E007B04846BDE884
:10169000F04F00F03BB96042A0420AD04846D9461C
:1016A0006442C8F1000883464FF0FF37DDF818A008
:1016B00000E001275148B8F1000F11D004EBD471BC
:1016C0004FEA610B01DACBF1000B4C480068807ED9
:1016D00088B3002F02DA30682044306000257BE0B8
:1016E00000990029016821D0897E11B10027804628
:1016F00015E007B05A4649465046BDE8F04F04F0A1
:1017000093BE28466D1C0DF0A7FD38B9D8F800002F
:1017100009EB0701406E4268504690477F1CA74284
:10172000EFDD6D1E356007B0BDE8F08F8A7E1AB11F
:101730000027804617E019E0486E5A465146036874
:1017400007B04846BDE8F04F184728466D1C0DF01D
:1017500083FD38B9D8F8001009EB0700496E4A68D4
:10176000514690477F1CA742EFDDDAE700250FE0E6
:1017700008FB05B090FBF4F101EB0A00009951B1B0
:101780001E4A09EB05011268526E526890476D1CA3
:10179000A542EDDDC7E7194909EB05030968496E64
:1017A0004A6801461846F1E708FB05B090FBF4F1E2
:1017B00001EB0A0001903068384430600DF04CFDB8
:1017C00048B9009890B10D4809EB05010068406EDA
:1017D0004268019890476D1CA542E5DD3068002FF6
:1017E00001DA20443060C01B30609CE7034909EBFC
:1017F00005000968496E4A680199EBE72802002054
:101800002DE9FF470F4640491646804609680C9867
:101810001D460A7E012A1CD0A8EB0600791B50EA5F
:1018200001031CD0A2F101090EF0FEFE00F580605C
:10183000824604F034F900FB09F4504604F034F910
:1018400000FB09F1002C0CDAC4F500708012404254
:101850000AE00090324639464046FFF7EBFEBDE80D
:10186000FF8704F50074A012002904DAC1F50071A5
:1018700089124C4202E001F500718C12002804DD4F
:10188000411C01EBD171491003E000EBD07149100C
:10189000401E00EBD0704210002C04DD601C00EBF9
:1018A000D070401003E004EBD4704010641E04EBD1
:1018B000D47308EB0104ADF800403C18ADF80240C9
:1018C000A8EB02045B10B21AADF80440ADF8082092
:1018D0003144FC1AEA1AADF80C102844ADF80A207D
:1018E000ADF80E000023ADF806401A460421684604
:1018F00000F07AF8394640460BF048FA294630465F
:101900000BF044FAABE7000028020020064A1368F7
:101910001A7E012A05D0521E02EBD272521000F03C
:1019200005B85A6E52681047280200202DE9F05F72
:101930000646884640F2C32002FB00F14FF47A705D
:1019400091FBF0F702FB02F102EBD27001EB600BAE
:101950001446B118234A301B7F1C1268526E13685C
:101960000A4641469847012538E000BF05FB05F0CF
:1019700004FB040159451CDDBC4219DD194B06EB83
:10198000050AA6EB05091B68AAF1010208EB040190
:101990005B6E09F101001B689847124BAAF1010226
:1019A000A8EB04011B6809F101005B6E1B689847F6
:1019B000641E0C4B3219301B1B68924608EB050164
:1019C0005B6E81461B689847064B5246A8EB0501A3
:1019D0001B6848465B6E1B6898476D1CBD42C5DDA1
:1019E000BDE8F09F280200202DE9FF4F43F6FF7469
:1019F0000F46664283B09B46814600210BE000BF44
:101A000009EB8100B0F90200A04200DA0446B042BE
:101A100000DD0646491CB942F2DB674800684069B0
:101A200000280DD0B0F906101A46A1EB0B01B14207
:101A300000DA0E46B0F90200801AA04200DD04462A
:101A4000B4E0DFF878A100200546CAF8000088E07D
:101A5000781E854201DA6B1C00E0002309EB850C3F
:101A600009EB8302BCF90200B2F90210A04244D192
:101A7000A14215D139F92330059A39F9251003EB24
:101A8000020C4D4A05981268084404EB0B01526E93
:101A90006045136801DA62462AE00246604627E0A4
:101AA0002846A4464FF000087A1E0BE008B1401EFD
:101AB00000E0781E09EB8003B3F90230634504D1DE
:101AC00008F101089045F1DB2346A34248D01A1BD8
:101AD00039F92500A1EB040C059B92EA0C0F09D4FF
:101AE000354A184404EB0B011268526E1368024623
:101AF000984735E008F046FF32E0A14230D001DBE4
:101B0000A04203DDA0422BDBA14229DCE046884253
:101B10000ADC0346A04223DC0846A14220DBB8F9D8
:101B200000C0B2F9001008E00B46A14218DCA04248
:101B300016DBB2F900C0B8F90010E21AA1EB0C01F3
:101B400051430029A0EB030202DD01EB620102E038
:101B5000A1EB6201491CC01A91FBF0F06044C9E797
:101B60006D1CBD42FFF674AF0598009004EB0B00AE
:101B7000019000208046054613E01149B8F1000F9E
:101B800031F915A009D0009901EB0A0208440A496D
:101B90000968496E0B680199984788F0010850461A
:101BA0006D1C064909688D42E7DB641CB4427FF76F
:101BB00048AF07B0BDE8F08F280200207C0200206B
:101BC000DC0A032010B5002002F040F96FF07F40DE
:101BD00002F047F9012002F0BBF9002002F0C6F93B
:101BE000002002F0D3F9002002F058F90448006800
:101BF00002F060F9BDE81040002002F07BB900005F
:101C0000240200202DE9F041024600250026002094
:101C100000230024002791F803C00CF00F0591F871
:101C200003C00CF0100CBCF1000F03D091F802C0FF
:101C30004CEA050591F800C0BCF1000F31D01468E2
:101C400000202BE04FF0010C0CFA00F3B1F800C0BB
:101C50000CEA03069E4220D183004FF00F0C0CFAD1
:101C600003F7BC4305FA03FC4CEA040491F803C0F3
:101C7000BCF1280F06D14FF0010C0CFA00FCC2F8A1
:101C800014C00AE091F803C0BCF1480F05D14FF031
:101C9000010C0CFA00FCC2F810C0401C0828D1D37B
:101CA0001460B1F800C0BCF1FF0F34DD54680020AF
:101CB0002EE000F1080C4FF0010808FA0CF3B1F81F
:101CC00000C00CEA03069E4221D183004FF00F0CA6
:101CD0000CFA03F7BC4305FA03FC4CEA040491F840
:101CE00003C0BCF1280F05D100F1080C08FA0CF86C
:101CF000C2F8148091F803C0BCF1480F07D100F17D
:101D0000080C4FF0010808FA0CF8C2F81080401CCB
:101D10000828CED35460BDE8F0810000F0B50A4633
:101D2000002300240021002500F00046B6F1004FFA
:101D300002D11D4EF16901E01B4E7168C0F30345ED
:101D400083B200F44016B6F5401F08D121F070614F
:101D5000154E766826F07066134F7E6012E000F430
:101D60008016B6F5801F06D1032606FA05F4A143B6
:101D700041F0706106E0460D360103FA06F6B14304
:101D800041F0706122B1460D360103FA06F6314387
:101D900000F00046B6F1004F02D1034EF16101E0C0
:101DA000014E7160F0BD00000000014041617047CC
:101DB000016170472DE9F04FDFF828B191B04FF085
:101DC000FF35DBF80030B3F922100691DE69B3F974
:101DD00024A0F469A189814206D8E289824203D312
:101DE000471AD4F8008012E0D4E90181002970D0AC
:101DF0000A8882426DD84D8885426AD3801A82B2A1
:101E0000486800EB8200B0F90070B0F90250781C0D
:101E10005FD0307EA27C014600FB02F9207CCDE938
:101E20000710B3F92A60304604F0F0FEC0B20E90FD
:101E3000DBF8001007FB0980A37C8A6B0127CDE942
:101E40000402CDE90273C869089AC17E807ECDE99B
:101E50000001DDE90603514604F084F9681C18D03E
:101E600046F0020004F0D2FEDBF80000A37C05FB84
:101E70000981826BCDE90273CDE90412C069089A29
:101E8000C17E807ECDE90001DDE90603514604F004
:101E900069F9DBF800005D46C069417E007E814241
:101EA00014D9022E12D086F0040004F0AFFE286888
:101EB000C069027EC37E857E02FB03A1437E089A31
:101EC0000698534402FB050204F014FB0E9804F03C
:101ED0009DFEDBF80000627C418C1144418411B00E
:101EE000BDE8F08F2802002004480068C069C0697E
:101EF00009B1027C0A60407C704700002802002083
:101F0000022008807047C06982898A4202D8C2894B
:101F10008A4210D2806880B102888A420DD84388F4
:101F20008B420AD3406800EB8100A0EB8200B0F93D
:101F30000000002801DB01207047002070470000EE
:101F40002DE9F0432F4C034687B020681946B0F9BD
:101F50002A80C069C06900F082F800284ED041682C
:101F60000088181A01EBC0054046AE7804F04EFE1A
:101F7000814620686A680123816BCDE90236CDE98C
:101F80000421C169CB7E8A7ECDE900230B7EB0F9A6
:101F900024102A78B0F9220004F0E4F82068C0691F
:101FA000477E067EB7421DD9C07E47434643B8F1FF
:101FB000020F17D001F08DF9804601F053F901F0BE
:101FC00050FF21682A78CB69B1F92200B1F92410B9
:101FD000DB7E02FB0302CB19314404F08BFA40464E
:101FE00001F03FFF484604F011FE20686A78C3699B
:101FF000B0F922109B7E02FB0311418407B0BDE8BB
:10200000F08300002802002030B50E4C05460B4638
:1020100020682946C069C06900F021F8002810D066
:102020004168008824682A1A0120E46900EBC20094
:10203000085CA47E6043002B03D011F8321061438A
:10204000196030BD2802002001200880704700B5CB
:10205000C06900F004F8002800D0012000BD06E0AF
:1020600002888A4202D842888A4202D280680028C6
:10207000F6D170472DE9F0410025154E154C18E0BA
:102080002069C5EB051700EBC7007022001D316801
:10209000FEF7D3F92069002140F8371000EBC700A4
:1020A00000F10C018161011D0A1DC0E90F126D1CB8
:1020B0004164A0688542E3DB0CF076F82169C0EB4F
:1020C000001001EBC000001D3060BDE8F081000091
:1020D000280200201005002070B50F490D48086047
:1020E000084603F0E5FB0C4C143CA068C0EB001064
:1020F000C500284600F086F82A460021206103F03A
:1021000050FC4FF0FF30206002F0ABFDBDE87040A6
:102110000CF04AB85DE800082405002010B5040062
:1021200009D001F0ABF9204608F090FC044602F01B
:1021300055FD204610BD002010BD38B5054601F004
:102140009DF92846FFF7EAFF040009D000F0F2F8F5
:102150002A460021009003F024FC684600F028F98C
:1021600002F03CFD204638BD024A106021F0030019
:1021700050607047600A032010B5040016D001F0CB
:102180007DF90B48406B10F8341059B1022909D27F
:10219000042101EBC4014158486808F00FFC2046B7
:1021A0000CF090FEBDE8104002F018BD10BD00001C
:1021B000A0090320002805D0034AD16B016001B1BA
:1021C0004860D06370470000A009032010B50446A2
:1021D00001F054F92068FFF7CFFF00202060BDE830
:1021E000104002F0FBBC000070B50D46064600240E
:1021F00005E000BF06EB8400FFF7E8FF641CAC427B
:10220000F8DB70BD2DE9F04104460CF011F92848C7
:10221000E41C24F00305016C2D1DA94200D90D46D4
:10222000C46B13E054F8042CAA420ED184B1216887
:1022300009B162684A60616809B122680A60C26BCC
:10224000A24231D12168C1632EE02468002CE9D17B
:102250008046816BC0680F1857F8040C3E1A30682E
:1022600038B100200CF098FE57F8040C3E1A306884
:10227000D0B97068A84217DB3044441B3046241D97
:102280000CF042FED8F80C10491BC8F80C10D8F816
:1022900014102944C8F814107068401B02D031464D
:1022A00008F08CFB44F8045C2046BDE8F081000097
:1022B000A009032010B500240CF0BAF80C490F2037
:1022C00001EBC002526C1AB101EBC000406C08E097
:1022D000401EF5D508E04168A14200D90C4680684F
:1022E00010B180680028F6D1A4F10C0010BD0000E8
:1022F000A0090320034800680C38002800DC0020F7
:1023000070470000A0090320002138B104490422CD
:1023100002EBC000496B085841680C390846704709
:10232000A009032002488169491C816170470000AF
:10233000A00903200549CA69521CCA61496B01EB17
:10234000C0010A78521C0A7000F04AB8A0090320A4
:1023500010B501F093F8FFF7ADFF64220849B0F51E
:10236000800F04D990FBF2F4086A444303E0096A41
:102370004143B1FBF2F402F031FC204610BD0000F5
:10238000A00903200549102805D94A68B0EB520F6F
:1023900002D3500800E0102088607047600A0320D4
:1023A00002488169491E816170470000A00903202D
:1023B0000A4902684B6B52F8082C03EBC2021378EF
:1023C000022B03D3CB690BB15B1ECB611178491E85
:1023D000117000210160084670470000A009032029
:1023E000002806D00349042202EBC000496B0858BC
:1023F00008307047A009032070B50C46054601F06F
:1024000073F8C1B223462846BDE87040002200F0B0
:1024100001B80000F0B52D271C68B0F1004F08D0BE
:10242000002600280DDA651C1D602770404201243B
:1024300008E0651C01261D606FF000402770491EF2
:1024400001E00024091BC9B22AB3491EC9B222E027
:102450000C46491EC9B2944205D1124C27781C681B
:10246000651C1D602770104C54F8215090FBF5F44A
:10247000E4B20A2C11D804FB150011B90EB1641C8A
:10248000E4B20A2C02D10124491CC9B21D686F1C98
:1024900030341F602C700029DAD1196800200870D0
:1024A000F0BD00001C0200203451020870B5144633
:1024B0000D46064600F0E2FF204600F017FF03003D
:1024C000174804EB840109D050F821004168806866
:1024D000711A2A1A184601F0FDFC1CE000EB810479
:1024E000A268B24201D0012200E00022E368AB42C0
:1024F00001D0012300E000231A430CD0236943B12B
:1025000050F82100816840686A1A311A184601F0B3
:102510004BFCC4E90265BDE8704002F05FBB0000FF
:10252000240C032010B5C2B2CBB2D21A00D552424D
:1025300093B25B43C0F30722C1F30724121B00D5FB
:102540005242000C92B2A0EB114002FB023200B2E8
:10255000002801DA404200B280B200FB002010BD2A
:1025600010B50021084600F047FF43F6FF725042C5
:10257000BDE8104013460146AFF300802DE9FC4151
:102580001C4615460E46074600F078FF042004F06E
:102590003DFB80461248C068C16C006D0F44064484
:1025A0000D440444ADF80070ADF80450ADF802607D
:1025B000ADF80640684607F077FD07E023462A4657
:1025C0003146384603F096FF07F030FD0028F5D17C
:1025D000404604F01BFB02F001FBBDE8FC8100005B
:1025E0001C0200202DE9F8431C00DDE9089816467E
:1025F0000F46054602D106F099FD044600962E6866
:1026000043464A4621462846B047061E39D006F0C2
:1026100082FD8146698A304606F0E4F9304607F0CB
:10262000CFFB484607F0CCFB4FF000080CE000BFA2
:10263000CDF8008055F81CCF00231A46494628469D
:10264000E04700B307F0BCFB7F1E002FF0DC1D212C
:10265000484607F050FA601C12D000F00FFF06F059
:1026600099FD30B1FFF7BCFE8469B44201D020006F
:10267000F8D1B44202D0304607F018FB02F0AEFAAF
:102680003046BDE8F883304606F058FC0020F8E7F5
:102690002DE9F0411C4616460D460746022B02DB8B
:1026A0000020BDE8F0811C20FFF7ACFD0028F8D029
:1026B0000DB105610AE0094A52F8241009B905E094
:1026C00011460A68002AFBD109690161846186828A
:1026D000002101604160C0E90217E2E748020020E2
:1026E00070B51D46FFF7D4FF040009D000F00EF8C6
:1026F000E068006820B90348006800EB8500846545
:10270000204670BD28020020FFF754BD70B590B37D
:102710008269022A30DA1E4C54F8221019B944F8A2
:10272000220032E019464B68002BFBD106E0CB6853
:10273000C5681B682D68AB4203DD09680029F6D126
:102740001AE0C1B1CB68C6681B683668B3420CD1C9
:10275000838A012B05D008E01946DB681B68AB4271
:1027600003DB0B68002BF7D129B14B6833B118603C
:102770004A68426004E0FFE7012070BD44F822008F
:102780004860884200D100210160002070BD000037
:102790004802002010B503E00468FFF7B7FF2046A9
:1027A0000028F9D110BD000010B50B4B8169002243
:1027B00053F82140844204D1046843F82140016861
:1027C0004A60416809B103680B60016809B1436858
:1027D0004B600260426010BD48020020002070473C
:1027E000022801DB00207047054951F8200004E071
:1027F000C16809680029F6D000680028F8D1704740
:10280000480200202DE9F8431D461646884604007C
:102810000CD0FFF78FFD0090006807686846FFF74F
:10282000C7FD2B46324641462046B847BDE8F883EF
:102830002DE9F041044602F00DFA06191EE000BF32
:1028400000F0A4FB052F00DD052700F017FE11485E
:102850000568FFF767FD2C0017D000BF02F0BEF936
:10286000641EFBD1384602F0E5F91DB100F006FE0A
:102870006D1EFBD1FFF794FD02F0B0F902F0EAF90A
:10288000371A002FDCDCBDE8F081384602F0D2F9BF
:10289000F0E700001C0500201FB503A9CDF80CD0FF
:1028A000FFF7AAFD684600F001F81FBD2DE9FC47BF
:1028B00006005FD000F0E2FD00F030FD3C4C8146A8
:1028C0002068B0F9228000F065FD216807468A8CF7
:1028D000D01B888441E000BF47F6FF71304602F00C
:1028E0007BFE82460146304602F04CFE21680546DA
:1028F00091F82C0000F00300012841D002283BD0C1
:1029000000204A8C101A4884ADF800006A1E10445A
:10291000ADF80400888CADF80200A9F1010108446B
:10292000ADF806006A465146304602F023FB2168A6
:10293000BDF8020088845146304602F03DF8064456
:1029400030780A281ED00D281CD0BDF80000216860
:1029500028444884307818B1761C30780028BBD1E0
:102960002068818C39448184818D21F00301818527
:1029700002F034F9BDE8FC8705EBD5704010C0E7E4
:102980002846BEE7206890F82C1001F003010129C9
:102990000BD0022909D0018C418431780A29D9D180
:1029A000828C02EB09018184D4E7A0F82280F4E74D
:1029B0002802002070B514460D46064600F05EFD64
:1029C00005480068458484843046FFF76FFFBDE802
:1029D000704002F003B90000280200202DE9F04108
:1029E00007460A4815460E460068B0F92C0040F02C
:1029F000020001F0BBFA04462A4631463846FFF78A
:102A0000D9FF2046BDE8F04101F0B0BA280200200D
:102A100047F6FF73AFF300802DE9FC411F46904657
:102A20000D4606004FF000041AD000F027FD65B1F6
:102A3000284607F0B5F9040007D002462946684643
:102A400002F037FE684607F0ABF93B46424629469E
:102A5000304602F0E7FA204607F0A2F902F0BEF88D
:102A6000BDE8FC812DE9FF4F87B0904689460700FD
:102A70007ED000F003FDD9F80040D9F8045021B20F
:102A800028B2401A401C029000F048FC064618F09C
:102A90000C0F1ED038460A9A029902F0A9F808F0E5
:102AA0000C01042904D0082902D00C2911D104E01A
:102AB000291400FB1610401C09E02114C1EB25422B
:102AC00000FB1620401C00EBD07001EB600060F3AF
:102AD0001F44484607F064F95FEA000B09D002463C
:102AE000494604A8CDE9044502F0E3FD04A807F037
:102AF00057F9A6F1010A38460A9A029902F020FF16
:102B000003900AEB244060F31F45CDE900453846A9
:102B1000039902F037FD18F003010FD001292DD0E1
:102B200002290FD1B9F90420B9F90010521A101A6C
:102B3000401C00EBD07001EB600001E0B9F8000030
:102B4000ADF800006A463846039902F013FA384699
:102B50000A9A029902F0EAFE074406EB244060F369
:102B60001F4438780028C6D1584607F019F900E00C
:102B700001E002F033F80BB0BDE8F08FB9F80410B3
:102B8000081A401CDCE700007CB514460D460646DA
:102B900000F074FC11480068C16C006D0D440444E1
:102BA0003188681E0844ADF80400ADF80050718803
:102BB000601E0844ADF80600ADF80240684607F014
:102BC00073FA06E0224629463046FEF7DDFC07F0A0
:102BD0002DFA0028F6D102F001F87CBD2802002071
:102BE0001CB50A460146684602F055FE00F046FC58
:102BF0002548BDF80010006830F84C2F1144ADF89E
:102C00000010BDF8021082881144ADF80210BDF822
:102C1000041002881144ADF80410BDF80610808835
:102C20000844ADF80600684607F03EFA27E000BF0A
:102C3000BDF900400BE000BFBDF90210204603F0D3
:102C4000BFFBBDF90610204603F0BAFBA41CBDF97A
:102C50000400A042F0DABDF902400AE0BDF900002C
:102C6000214603F0ADFBBDF90400214603F0A8FBAB
:102C7000A41CBDF90600A042F0DA07F0D7F900283D
:102C8000D6D101F0ABFF1CBD280200202DE9F04F8A
:102C900087B09B46DDE9109892460C46054600F049
:102CA000EDFB16480168C86C096D47190E1900EB59
:102CB0000A0501EB0B04ADF81070ADF81450ADF837
:102CC0001260ADF8164004A807F0EEF988B1DFF8FD
:102CD00030B04FF0000ACDE90098CDE902BA2B469A
:102CE00022463946304609F00EFF07F09FF90028CA
:102CF000F1D101F073FF07B0BDE8F08F280200208A
:102D0000296400082DE9FF4F87B09346DDE9159847
:102D10000C460546DDF850A000F0B0FB16480168EF
:102D2000C86C096D471900EB0B050A980E190C18B1
:102D3000ADF81470ADF81850ADF81660ADF81A4043
:102D400005A807F0B1F990B14FF0010B0B49CDE99F
:102D500000A9CDE9028123462A46CDF810B03146BC
:102D6000384609F07AFF07F061F90028EED101F04A
:102D700035FF0BB0BDE8F08F280200206963000822
:102D80002DE9F04F87B09B46DDE9109892460C463E
:102D9000054600F073FB16480168C86C096D4719B9
:102DA0000E1900EB0A0501EB0B04ADF81070ADF83D
:102DB0001450ADF81260ADF8164004A807F074F98D
:102DC00088B1DFF830B04FF0010ACDE90098CDE9C5
:102DD00002BA23462A463146384609F094FE07F0E7
:102DE00025F90028F1D101F0F9FE07B0BDE8F08F18
:102DF00028020020696300082DE9FC4114460D46B5
:102E0000064600F03BFB114F3968C86C096D05445C
:102E100004440E44ADF80050ADF80440ADF8026033
:102E2000ADF80660684607F03FF908E038682246CA
:102E30003146406E03682846984707F0F7F80028A7
:102E4000F4D101F0CBFEBDE8FC8100002802002097
:102E50002DE9F0411C4615460E46074600F00EFBD4
:102E60000C480168C86C096D074405440E440C44C5
:102E7000002007F019F907E023462A463146384674
:102E8000FEF7D0FB07F0D2F80028F5D1BDE8F041FD
:102E900001F0A4BE280200202DE9FC411C46164684
:102EA0000D46074600F0EAFA1A480168087ECA6C27
:102EB000096D17440D440C44401E391A1644ADF8F0
:102EC00000103118ADF80410291A2044ADF806009E
:102ED000ADF80210684607F0E7F815E032462946DB
:102EE000384603F041FA32462146384603F03CFAB0
:102EF000621E691C384603F097FA621E691C304650
:102F000003F092FA07F092F80028E7D101F066FE8C
:102F1000BDE8FC81280200207CB514460D4606461B
:102F200000F0ACFA0F480068C16C006D0E44054417
:102F30000444ADF80060ADF80460ADF80250ADF89F
:102F40000640684607F0B0F806E0224629463046BB
:102F500003F06AFA07F06AF80028F6D101F03EFEA5
:102F60007CBD00002802002070B50C46054600F02C
:102F7000C7F910B10121C0E9001400F07FFA28461A
:102F800006F0D6FFBDE8704001F028BE10B5002461
:102F900000E0012400F004F80028FAD1204610BD1A
:102FA000094810B50068002410B1804700B1012421
:102FB00006F03CF800B101240448006810B18047D5
:102FC00000B10124204610BD340200205002002030
:102FD00070B516460C46054600F050FA0B480068DE
:102FE000C16C006D0D440444002007F05DF806E05C
:102FF000324621462846FEF799FC07F017F80028CC
:10300000F6D1BDE8704001F0E9BD000028020020C3
:103010002DE9FC471D4616468846814600F02EFAEB
:10302000164C2068C16C006D0E440544002007F06A
:103030003BF8F0B1124F20681121407C57F8200076
:103040000190C068426A01A890475FEA000C06D070
:1030500033464246494600950198E04705E02B4635
:10306000324641464846FEF7BFFC06F0DFFF002827
:10307000E1D101F0B3FDBDE8FC870000280200208B
:10308000480200202DE9FC411C4615460E46074625
:1030900000F0F4F910480068C16C006D0F4406445C
:1030A0000D440444ADF80070ADF80450ADF8026072
:1030B000ADF80640684606F0F7FF07E023462A46CB
:1030C0003146384603F016FA06F0B0FF0028F5D175
:1030D00001F084FDBDE8FC81280200202DE9F04FBD
:1030E00087B01C4615460E46074600F0C7F92F4824
:1030F000016802A8CA6C096D02EB070A02EB050918
:103100000E4401EB0408ADF808A0ADF80C90ADF842
:103110000A60ADF80E8006F0C7FFE0B3A8EB06002A
:10312000401C0590109C0598B0EB440F32DBA9EBD6
:103130000A00401CB0EB440F2CDB04FB04F02746D4
:10314000354606EB040B04901AE0049807FB1700C1
:1031500002F06BFC0AEB0401091A0191A9EB0401CE
:103160000844024600902946019803F0FDF8DDE985
:103170000020A91BA8EB010103F0F6F86D1C7F1ECF
:10318000AB45E2DAA8EB04034A46294650465B1EEB
:1031900003F0B0F900E003E006F048FF0028C1D1D9
:1031A00001F01CFD07B0BDE8F08F000028020020F0
:1031B00008B50B46002805D0009281888268C08837
:1031C00000F001F808BD10B50828029C30D008DCDA
:1031D00004FB01F401280AD0022813D0042804D1EA
:1031E0001CE0102828D020282CD0002010BD04EB93
:1031F000D30003F00701105CC1F10701C84000F0E3
:10320000010010BD04EB93000621105C01EA4301AC
:10321000C1F10601C84000F0030010BD04EB5300EB
:10322000D907105C02D000F00F0010BD000910BDDE
:1032300004FB0130105C10BD481004FB003032F874
:10324000100010BD881004FB003052F8200010BDA3
:10325000034951F82000C1688A6A0821104700001C
:103260004802002010B500F009F903F0EDF903F071
:10327000CDFA044601F0B2FC204610BD10B504465C
:1032800000F0FCF8054800210068C069426820464B
:103290009047044601F0A2FC204610BD2802002001
:1032A00070B50C46054600F0E9F80648214600686E
:1032B000C069426828469047044601F08FFC2046CA
:1032C00070BD000028020020002801D005F000BFDA
:1032D000704710B500F0D2F803F0BEF903F096FA8B
:1032E000044601F07BFC204610BD000000210228AE
:1032F00002D2024951F82010084670470805002004
:103300001FB500210191029103912A210091694684
:1033100006F0E2FB039804B010BD000010B500F009
:10332000ADF804480068C069447E01F057FC2046AF
:1033300010BD00002802002070B515460E46044658
:1033400000F09CF82A463146204603F0F1F90400CB
:1033500002D000203060286001F040FC204670BDA3
:1033600070B50C46054600F089F82146284602F063
:103370005DF9BDE8704001F031BC10B5044602F0C3
:1033800047F901462046BDE8104002F0FBB801F0C5
:1033900061BC000010B5002400F070F80B48006814
:1033A00090F82C1001F00C01042904D0082906D053
:1033B0000C2907D103E0C069047E641E02E0C069E5
:1033C000007E440801F00AFC204610BD28020020BF
:1033D000017EC07E48437047024951F820000069D1
:1033E0000068704748020020024951F82000006937
:1033F000406870474802002070B50D46044600F052
:103400003DF820460AF04AFF044628460AF04EFFDF
:10341000044301F0E3FB204670BD000070B501F0ED
:10342000D9FC144D2E20287001F01AFC12480AF025
:10343000B1FF03F011FA064603F0A2F910B103F050
:10344000B3F938B903F0B9F9044603F0A2F92146FB
:1034500003F0D6FB0021084600F05AFD06F00CF9F7
:10346000FEF708FE286900B18047012068703046E9
:1034700070BD00001C0200206C0A032070B5184CBF
:10348000E06820B101F0E3FB6168884204D001F0FC
:10349000E9FB01F0DCFB6060E068401CE0600128B3
:1034A0001CD10AF081FE05462068854216D000280E
:1034B00013DBFFF793F901462068C0EB0012206987
:1034C00000EBC2025167C5EB0511064A00EBC100D3
:1034D000011D1160406FFFF75DF9256070BD0000B0
:1034E000100500202802002010B5011E01DD024653
:1034F00000E04A42064B012053F82040944202D893
:10350000401C0A28F8DB002900DA401C10BD00002E
:10351000345102081CB5040004D10E480068046E42
:10352000002C16D0FFF7AAFF2046FEF703FF0090FD
:1035300044696846FEF73CFF4CB12046FEF7FAFEB0
:10354000019081688968884701A8FEF731FF01F082
:1035500045FB1CBD2802002001490A4600F002B8C4
:1035600001F0FFFF2DE9F04387B015460C465FEAF6
:10357000000846D0FFF782FF002000F08FFC814654
:1035800021480068066E4046FEF7D4FE00900068B1
:10359000806900F031FC074640F6FF70C44204D158
:1035A0000098B0F90440B0F906500098611E0289F5
:1035B000ADF804401144ADF808104189681E084474
:1035C000ADF80650ADF80A0005F042FB6846FEF77C
:1035D000EFFE01A806F068FD06E02A4621464046B7
:1035E00000F0D0FA06F022FD0028F6D1384600F0AF
:1035F00003FC304600F090F9484600F04FFC01F023
:10360000EDFA07B0BDE8F083280200202DE9FE4F57
:10361000984691468A46834600270C9EFFF72EFF68
:10362000184819490068407C51F82040E168096851
:10363000042903D02468002CF8D100E01CB9FFF75E
:10364000CFF8041E1BD0E0680121C26A20469047D3
:10365000050011D02469A0688047401C02D10B4CA2
:1036600046F001060096CDE9015443464A465146CC
:10367000584600F0E5F9074601F0B0FA3846BDE8D3
:10368000FE8F0000280200204802002030CC0108F4
:1036900038B504001CD0FFF7F1FE0E480068006E3C
:1036A000A04201D100F09AFB2046FEF743FE0090B5
:1036B000406908B101F07BFA00980068FFF724F830
:1036C0006846FEF775FE2046FEF756FD01F086FAC5
:1036D00038BD0000280200202DE9FF4F83B09A4634
:1036E0008B460746FFF7CAFEDFF83891D9F800008D
:1036F000447C4D4800570128204606DD03F046F87B
:103700000546204603F056F805E003F027F8054685
:10371000204603F029F804461FB302A901A8FFF7C9
:103720001FFEB7F90000002800DA0020B7F9026098
:103730008046002E00DA002601984119B7F90400EE
:10374000491E0AF096FF054602980119B7F90600CE
:10375000491E0AF08EFFA5EB0802841B521C641C54
:1037600003E04FF0000846462A46BAF1000F01D1A7
:10377000C4F1000A002A51DD002C4FDD10980090A2
:10378000534631464046FFF741FF5FEA000A10D03A
:1037900000F07CF80746A04206D0D9F80000806C03
:1037A00010B1322107F010F8504600F0B5F80025AE
:1037B00023E059460598884701F010FA012007B028
:1037C000BDE8F08F611BB94202DA504600F088F87C
:1037D0003DB172194146504600F0C6F85046FFF719
:1037E00099FE5946059888471048016809B100209C
:1037F00088475046FFF7B0FE3D44A542E2DB504605
:10380000FFF746FF002000F087F8A74206D0D9F85E
:103810000000806C10B1332106F0D6FF01F0DEF914
:103820000020CCE728020020640200207805002058
:1038300038B505004FF0000411D0FFF71FFE2846F1
:10384000FEF778FD0090006800698068804703F00B
:103850008BFB04466846FEF7ABFD01F0BFF920463E
:1038600038BD38B504000ED0FFF708FE2046FEF73D
:1038700061FD00F1180400906846FEF799FD01F023
:10388000ADF9204638BD002038BD000038B50446EB
:103890000025FFF7F3FD1CB908480068046E44B129
:1038A0002046FEF747FD0090B0F90A506846FEF743
:1038B0007FFD01F093F9284638BD00002802002062
:1038C00070B505460024284607F098FA641C18B124
:1038D000BDE8704000F07AB8052CF4DB70BD000044
:1038E00038B50C46050004D10A480068056E002D65
:1038F0000FD0FFF7C3FD2846FEF71CFD0090B0F97E
:103900000A10A14200DD44816846FEF751FD01F036
:1039100065F938BD28020020F8B50546FFF7AEFD71
:10392000104E3068046ECDB10CB100F057FA05F0BE
:10393000BDFA2846FEF7FEFC009031680D6600686F
:10394000FEF7E4FE6846FEF733FD03F0BDF903F031
:1039500037F900BF01F042F92046F8BD00F03EFA09
:10396000F8E70000280200207CB515460E4604004A
:1039700004D115480068046E002C24D0FFF77EFDAA
:103980002046FEF7D7FC2DB20090C58034B284806B
:1039900003F016F90098406980B1FEF7CBFC009A5D
:1039A0000190B2F908108180B2F90A20C28011B1E9
:1039B0000AB10480458001A8FEF7FAFC6846FEF7CC
:1039C000F7FC01F00BF97CBD2802002001490A46F2
:1039D00000F002B801F0FFFF7FB515460C46060067
:1039E0002DD0FFF74BFD3046FEF7A4FC40F6FF71EB
:1039F0000190CC4203D1B0F90440B0F906500289DD
:103A0000611E1144ADF80840ADF80C104189681EE4
:103A10000844ADF80E00ADF80A5001A8FEF7C8FC46
:103A200002A806F041FB06E02A462146304600F097
:103A300091F806F0FBFA0028F6D101F0CFF87FBD2F
:103A40002DE9FF4FDFF8E8B083B01C46DBF800102B
:103A5000DDE9106092464FF000084B7C4246129917
:103A6000FEF716FE050060D028698068804703F0E5
:103A70007BFA81460AFB09F1C91DCF08FEF768FCF5
:103A8000F10705D1C11700EB9170801000EB4000E9
:103A9000002C09DC1FB11838B0FBF7F000E0002063
:103AA0006442A04200DC0446F00707D10090DDE943
:103AB00003012346524600F0FFFF8046002C03DC42
:103AC0002846FEF721FE30E004FB07F01830F1072E
:103AD00002D0FEF723FB01E0FEF72FFB06001CD00F
:103AE000FEF728FC01900560039981800499C1804C
:103AF000A0F808A04481C0F81480C0E9037901A8A7
:103B0000FEF756FC1298AE602861DBF80000407C9E
:103B1000A861304607B0BDE8F08F2846FEF7F4FDF7
:103B2000B8F1000001D0FEF727FB0020F2E700000B
:103B300028020020054B30B41B68054C5B7C54F810
:103B400023301B6930BC0CF0C3B8000028020020F1
:103B500048020020F8B515460E460746FEF7EAFB78
:103B6000009000681621C068426A00209047044611
:103B70006846FEF71DFC002C03D02A463146384625
:103B8000A047F8BDF8B516460F46050012D0FEF75F
:103B9000D1FB009044696846FEF70AFC2846FFF70F
:103BA00047FE0346082800DD2CB132463946284638
:103BB0000CF04EF9F8BD3246394628460CF0E8FACA
:103BC000F8BD10B5002821D009B30AB3B1F90040FF
:103BD000B2F900309C4200DA23460380B1F902407A
:103BE000B2F902309C4200DA23464380B1F9044026
:103BF000B2F904309C4200DD23468380B1F90610FF
:103C0000B2F90620914200DC1146C18010BD114678
:103C10000A6802604968416010BD00280BD0038823
:103C20000B4403808388194481804188114441807A
:103C3000C1881144C180704770B50E4D0446D5E966
:103C40000001884209D10C49884201D13C3000E092
:103C50000C3807C884E8070006E090E80E0084E806
:103C60000E000AF039FB2860207A002800D00120DD
:103C700070BD0000F4040020880B03200448D0E944
:103C80000010814201D101207047002070470000E0
:103C9000F404002010B509490446086820B9084812
:103CA0000860084601F004FE0749064808602046FF
:103CB0000BF0D4FEBDE8104000F078B900050020FC
:103CC00049E80008AD9200085402002070B50025B4
:103CD000FFF7D4FB094CD4E9002082420AD0D2E994
:103CE000005610460AF002FB20603146284605F0D7
:103CF000F9FD012500F072FF284670BD800200200A
:103D00002DE9FC41154DDDE908742D68B5F9086011
:103D1000864200DD3046B5F90C60964200DA324644
:103D2000824219DBB5F90A608E4200DD3146B5F9F1
:103D30000E509D4200DA2B468B420DDB00E02C46F4
:103D4000E5682D6825B1042D02D02568002DF6D137
:103D5000CDE9007402F01EFEBDE8FC8128020020BF
:103D6000B0F90220B1F906309A4213DCB1F9022011
:103D7000B0F906309A420DDCB0F90020B1F90430F8
:103D80009A4207DCB1F90010B0F90400814201DC6D
:103D900001207047002070470146024870220068E9
:103DA000FCF74BBB2802002070B515460E460400F8
:103DB0000AD0FFF763FB2A46314620460BF01AFB78
:103DC000BDE8704000F00ABF70BD000002497022DB
:103DD0000968FCF732BB00002802002010B5FFF78D
:103DE0004DFB02F0A3FE02F06FFF04F031FFBDE8CF
:103DF000104000F0F3BE000070B50B4D044628687B
:103E0000467CFFF73BFB022C09D22046FEF7E8FC7C
:103E100028B128684474FFF7E1FF0448046000F00B
:103E2000DDFE304670BD0000280200204C0400205A
:103E300070B50C46054605F055FD002805D1214614
:103E40002846BDE8704000F0C1B870BD10B504460A
:103E5000FFF714FB204602F089FEBDE8104000F099
:103E6000BDBE10B50446FFF709FB204602F0B6FEC2
:103E7000BDE8104000F0B2BE10B50446FFF7FEFAF0
:103E800005496FF0704009680863204602F0ACFEF7
:103E9000BDE8104000F0A2BE2802002010B5044684
:103EA000FFF7ECFA204602F0B1FE044600F096FE61
:103EB000204610BD70B50446FFF7E0FA04480068DC
:103EC000C56904B1C46100F089FE284670BD0000D8
:103ED0002802002070B514460D460646FFF7CEFABC
:103EE00022462946304602F0ADFE044600F076FE3A
:103EF000204670BD70B50546FFF7C0FA034800685C
:103F0000847E857600F06AFE204670BD280200207F
:103F100070B50C460546FFF7B1FA09482246058000
:103F20000848048008480068417C084850F821008F
:103F3000C1680B6A29469847BDE8704000F04EBE44
:103F40006C0200206E02002028020020480200209F
:103F500070B50546FFF792FA03480068047E0576BF
:103F600000F03CFE204670BD2802002070B50446DB
:103F7000FFF784FA04480068B0F92C50848500F0FB
:103F80002DFE284670BD00002802002070B50446B2
:103F9000FFF774FA04480068B0F92A50448500F02D
:103FA0001DFE284670BD000028020020024800685F
:103FB000002800D0004770474005002002498A6869
:103FC00002B98860FFF7F2BF800200207CB50A4C7E
:103FD0000546CDE900016068019A6E46C0E90052CD
:103FE00021680AF06BF96060E16809B130468847E2
:103FF000A560FFF7DBFF7CBD800200202DE9FC41BE
:10400000984616460D460746FFF738FA1C20FEF77D
:1040100094F804002DD01C491A4808602046FEF789
:1040200089F9009015B9FFF7B2F9054600980760C5
:10403000C0E90465A0F80C806846FEF7B9F920468F
:104040000AF080FA114DA86840B90120A86005F176
:104050000C010F480860084601F02AFC2046FEF7D4
:1040600069F90190296849B181602C6001A8FEF7C7
:104070009FF900F0B3FD2046BDE8FC8100212C60D3
:104080008160F3E7BD400008340200202C050020C9
:1040900071E8000810B504000ED0FFF7EFF92046D4
:1040A0000AF04CFF20460BF0A9FD2046FEF764F80D
:1040B000BDE8104000F092BD10BD00002DE9F041B8
:1040C00088B00025FFF7DAF9184C676825E000BFD3
:1040D000FFF75DF906466068FEF72CF9019041692B
:1040E000891B002915DC616802960491016903911E
:1040F00046686660D0F8008001A8FEF759F902A86A
:104100004146884766B160680125B84205D100255F
:1041100006E001A8FEF74CF902E060680028D7D15C
:1041200000F05CFD08B02846BDE8F0812C050020B9
:1041300038B50C46050011D0FFF7A0F92846FEF768
:10414000F9F800908089204201D0012400E0002489
:104150006846FEF72DF900F041FD00E001242046FD
:1041600038BD38B5040017D0FFF788F92046FEF7B0
:10417000E1F80090FFF70BF90146009882691144BD
:1041800041616846FEF714F920460BF037FD2046E2
:104190000AF0D8F900F022FD38BD38B50C4605000C
:1041A0000BD0FFF76BF92846FEF7C4F80090846146
:1041B0006846FEF7FDF800F011FD38BD38B505463C
:1041C000002028600648046844B12046FEF7B2F893
:1041D0000090006928606846FEF7EAF8204638BD7E
:1041E0002C05002038B504004FF000000D46086093
:1041F00011D02046FEF79EF80090846844B16846CE
:10420000FEF7D6F82046FEF795F800900069286082
:104210006846FEF7CDF8204638BD00002DE9F04F86
:1042200097B01D461646894604464FF00008FE49E1
:10423000DDF888B0DDF880A0C1F80080CDF84080BE
:1042400002282AD06A4603AB0BAF0DF1200C032CD9
:104250007DDB57D14FF000084FEA0C0755F82800D6
:104260000FF088FE4DF828005AF828000FF082FE63
:1042700003A941F8280059F828000FF07BFE0BA98C
:1042800041F8280056F828000FF074FE47F828007F
:1042900008F10108A045E1DBE6E068681F68C01B83
:1042A0000FF068FE0446D9E90001081A0FF062FE1B
:1042B00021460FF081FDDD4C0546C4E90008384673
:1042C0000FF058FE29460FF081FE80F00040C4E94F
:1042D0000208DAE90071C81B0FF04CFE0546D6E96A
:1042E0000010401A0FF046FE29460FF065FD054606
:1042F000206138460FF03EFE29460FF067FE80F041
:104300000040B0E1002041464CF8201047F8201052
:1043100043F8201042F82010401C0328F4DB00274B
:1043200060E000BF55F827000FF024FE11900299BD
:104330000FF0E0FC02905AF827000FF01BFE8046B9
:1043400005990FF0D7FC059059F8270000E0BEE171
:104350000FF010FE13900D990FF0CCFC0D9056F855
:1043600027000FF007FE12900A990FF0C3FC0A9085
:10437000119801460FF02AFE00990FF0BBFC009047
:10438000414611980FF022FE01990FF0B3FC019005
:104390000390414640460FF019FE04990FF0AAFC25
:1043A0000490139911980FF011FE0B990FF0A2FCD5
:1043B0000B90404613990FF009FE0C990FF09AFCF0
:1043C0000C90DDE911010FF001FE08990FF092FC4D
:1043D0000890404612990FF0F9FD09990FF08AFCF8
:1043E0007F1C0990A7429DDB029900980FF0E4FC26
:1043F0000090059901980FF0DFFC0190DDE90210B3
:104400000FF0DAFC0390DDE904010FF0D5FC049015
:1044100002990B980FF0D0FC0B9005990C980FF0B7
:10442000CBFC0C90029908980FF0C6FC08900599F7
:1044300009980FF0C1FC099020460FF09BFD04463F
:10444000214602980FF0B8FC0290214605980FF023
:10445000B3FC059021460D980FF0AEFC0D9021465F
:104460000A980FF0A9FC0A90059903980FF07AFEBC
:104470000646DDE9010134460FF074FE21460FF0D7
:10448000A5FD0446DDE904010FF06CFE0546029926
:1044900000980FF067FE29460FF098FD21460FF0B7
:1044A00061FE054610F0FF4F7ED0DDE90C01B046FD
:1044B00044460FF057FE814621460FF087FD074620
:1044C000DDE904010FF04EFE824654460D990B982B
:1044D0000FF048FE064621460FF078FD39460FF0F2
:1044E00041FE29460FF068FC504C2060DDE90101D7
:1044F0000FF038FE0146149030460FF067FD064677
:10450000029900980FF02EFE0146159048460FF0D4
:104510005DFD31460FF026FE29460FF04DFC606030
:104520000C9900980FF052FD06460B9901980FF078
:104530004DFD31460FF016FE05990FF047FD074679
:104540000B9902980FF042FD06460D9900980FF066
:104550003DFD31460FF006FE04990FF037FD06468B
:104560000D9901980FF032FD81460C9902980FF0D9
:104570002DFD49460FF0F6FD03990FF027FD31465A
:104580000FF0B8FB39460FF0B5FB29460FF014FCCD
:10459000A060DDE9090146460FF0E4FD80463146A2
:1045A0000FF014FD064600E062E0D1460A99089833
:1045B0000FF0D8FD074649460FF008FD31460FF0D1
:1045C000D1FD29460FF0F8FBE060384614990FF052
:1045D000FDFC0646404615990FF0F8FC31460FF0F9
:1045E000C1FD29460FF0E8FB2061099900980FF002
:1045F000EDFC0646089901980FF0E8FC31460FF0F3
:10460000B1FD05990FF0E2FC0746089902980FF0FA
:10461000DDFC06460A9900980FF0D8FC31460FF0F1
:10462000A1FD049904E0000094020020580B03202F
:104630000FF0CCFC06460A9901980FF0C7FC8046A3
:10464000099902980FF0C2FC41460FF08BFD0399C7
:104650000FF0BCFC31460FF04DFB39460FF04AFB22
:1046600029460FF0A9FB1B4960610120086001E0A9
:10467000109860B3174C21980021C4E9010B08463B
:1046800009F0A4FF0021E060084609F0C9FF20619D
:104690002198ABF10101401E09F098FF606121985B
:1046A000ABF10101401E09F0BBFFA0616269E16846
:1046B000914201DDE26061612169814201DDA16118
:1046C0002061206818B1002017B0BDE8F08F0120EC
:1046D000FAE700009402002070B5174C06460D461C
:1046E0003268E16801208A421EDB29682369994209
:1046F0001ADB63699A4217DCA269914214DC2946ED
:10470000304600F0DBF800280ED133680022002B81
:1047100001DA326004E061688B4201DB491E3160DE
:104720002B68002B01DA2A6070BDA1688B42FBDB8D
:10473000491E296070BD00009402002000B10148AC
:1047400000F064B8D946000870B5254C86B0607892
:10475000F8B100F003F9E06000F0FEF8E0680390C3
:104760002069049000F03EF88DF8090004A903A820
:10477000FFF7B2FF0025B0B1A07870B36068009079
:10478000A06801908DF80850684600F057F8A570B1
:1047900023E000F0EFF8206100F0DFF86078401CC3
:1047A000607006B070BD039A6068111A00D5494266
:1047B000049BA068181A00D54042A67816B1084498
:1047C00002280ADD62600092A360012601938DF841
:1047D0000860684600F032F8A6706570E1E70000F6
:1047E000B00200200148407A70470000D00B03203F
:1047F000054910B591E81C0080E81C00087A0028E3
:1048000000D0012010BD00004C0B032001490860BE
:104810007047000090020020074A002806DB0029AC
:1048200004DB01231372C2E9000101E000201072D1
:10483000014800F003B80000D00B03203EB5044649
:104840000C221149FBF703FD002813D00F480E4D31
:10485000026882B194E80B008DE80B00684601A95C
:1048600090479DE80E0085E80E00002802D16846BA
:10487000FFF710FA3EBD2046FFF70CFA94E8070058
:1048800085E807003EBD00004C0B0320900200208D
:10489000094B30B41A68821A00D552425C680C1B6E
:1048A00000D564422244022A04DDC3E9000130BC81
:1048B000FFF7B2BF30BC7047E80200202DE9F04797
:1048C000054622480E460068E0B3D5F800803068FF
:1048D0000FF050FB1E4C814661680FF077FB0746D6
:1048E00040460FF047FB804621680FF06FFB3946CA
:1048F0000FF000FAA1680FF0FDF90FF0CFF9154F96
:1049000000223B460EF02AFE0EF0DCFE28604846F0
:1049100021690FF05BFB05464046E1680FF056FB4E
:1049200029460FF0E7F961690FF0E4F90FF0B6F9E5
:1049300000223B460EF012FE0EF0C4FE3060002056
:10494000BDE8F087FFE70120FAE7000094020020AD
:10495000580B03200000E03F7047704710B5044833
:10496000006818B9D02003F0BDFC10BD0020FCE7A2
:104970000481214210B50448006818B9902003F062
:10498000B1FC10BD0020FCE7048121422DE9F0417B
:10499000084E04460568306801682846884707467F
:1049A0003068416828468847284420603846BDE87A
:1049B000F0810000300200202DE9F0410C4606464F
:1049C0000025064F05E038684168304688470644B0
:1049D0000544641EF7D22846BDE8F081300200206D
:1049E0002DE9F0411E46069C1746884605463A4684
:1049F000A8687F1C3346D0F804C041462846E047EB
:104A0000641EF4D1BDE8F08170B5B0F90040091B17
:104A1000B0F904408C422CDD00F11404B0F90250CE
:104A20000069521B02FB0040CA1800EBE104521E51
:104A3000D010B0EBE10501F007034FF0FF0102F0E9
:104A4000070221FA03F0C2F1070201FA02F1CEB225
:104A500021780FD001436D1E04F8011B002D05DDE8
:104A6000FF2229462046FBF71AFD2C4420783043CC
:104A7000207070BD30400143217070BD10B5B0F999
:104A80000030B0F90240C91A00F114030069121B8A
:104A900002FB003000EBE10001F007030278802107
:104AA000D9400A43027010BDB0F9061002695143A3
:104AB0001430FBF7FCBC00002DE9F843804602F1FE
:104AC0000F000011470003FB07F01C4615468946FE
:104AD0001430FDF732FB060018D0FEF7CFFC30464D
:104AE000FDF728FC0090A0F80080A0F802908580D7
:104AF000C480074981600121818107616846FDF713
:104B000057FC00F06BF83046BDE8F8830020FBE767
:104B1000DCB8020870B5B0F90660B0F904400B6863
:104B200000F1140596421BDD0069A34202FB005010
:104B300000EBE30214DA641EE010A0EBE30512F8C8
:104B4000010B03F00704A040C4B206E045B10833EE
:104B500012F8014B23F007036D1E002CF6D004E081
:104B6000002070BD6006040E5B1C2006FAD5FF2CE9
:104B700007D0184602E06406240E401C6606FAD4EC
:104B800000E0D81DC443640705D006E012F8014BCD
:104B9000FF2C09D108306D1EF8D5C01A401C0B60DF
:104BA00070BD6206140E401C2206FAD4F5E738B533
:104BB0000546FEF763FC2846FDF7BCFB00908189A3
:104BC000491E0CB284816846FDF7F2FB14B92846F1
:104BD000FDF7D2FA00F002F838BD00000348C168C2
:104BE000491EC16001D100F03EB870471005002099
:104BF0002DE9F04116460F4605460024FEF73EFC1F
:104C000032463946284600F091FE054408B1641C3E
:104C1000F6E7FFF7E3FF2046BDE8F08110B54FF45B
:104C200016310348FDF7A0FA8020FDF7ABFB10BD5D
:104C300090070020044A1268111800BF024A126847
:104C40008A1A002AFADC7047A8000020704700206A
:104C5000704700000148006870470000A80000206D
:104C600070477047704770470EB508B102AA00E060
:104C70000022002301A9684600F036FC0EBD0000AA
:104C8000074910B50C7818B101200870801E03E0A8
:104C9000002008706FF07F4001F03EFA204610BD02
:104CA0006602002010B5082A0EDC0346012A18D03F
:104CB000022A56D0042A76D010F8042B03F8012BD0
:104CC000491EF9D1012010BD102A08DC4FEA00026C
:104CD00030F8043B22F8023B491EF9D1F2E70020EC
:104CE00010BD10F8042BD207120E491E34D010F854
:104CF000044B491E04F0010442EA84122CD010F83F
:104D0000044B491E04F0010442EA441224D010F876
:104D1000044B491E04F0010442EA04121CD010F8AE
:104D2000044B491E04F0010442EAC40214D010F8F6
:104D3000044B491E04F0010442EA84020CD010F82E
:104D4000044B491E04F0010442EA440204D010F866
:104D5000044B04F00104224303F8012B0029C0D1C5
:104D6000B0E710F8042B9207120E491E15D010F868
:104D7000044B491E04F0030442EA04120DD010F85B
:104D8000044B491E04F0030442EA840205D010F8E3
:104D9000044B04F003042243491E03F8012B0029AD
:104DA000DFD18FE7FFE710F8042B1207120E491E20
:104DB00005D010F8044B04F00F042243491E03F8F9
:104DC000012B0029EFD17DE738B50024009400F0D5
:104DD0001DF838BD0B4810B5016A002910D101211A
:104DE0000162FFF71BFFFDF777F901F07FFF05492F
:104DF000054824310860BDE81040084600F058BD61
:104E000010BD00001C02002071E700082DE9F041F0
:104E10000D460699044601B901461F68082A09DCB7
:104E20000E46012A1AD0022A5BD0042A7DD0082A15
:104E300013D18DE0102A07DCD3F810C00E46BCF168
:104E4000000F04D0022389E00020BDE8F08101CCEE
:104E5000B84726F8020B6D1EF9D189E001CCB8479E
:104E6000C0074FEA10686D1E36D001CCB84748EA3B
:104E7000801000F0FF086D1E2ED001CCB84748EA24
:104E8000401000F0FF086D1E26D001CCB84748EA5C
:104E9000001000F0FF086D1E1ED001CCB84748EA94
:104EA000C00000F0FF086D1E16D001CCB84748EADC
:104EB000800000F0FF086D1E0ED001CCB84748EA14
:104EC000400000F0FF086D1E06D001CCB84740EA54
:104ED000080000F0FF086D1E06F8018B002DBDD103
:104EE00046E001CCB84780074FEA10686D1E16D027
:104EF00001CCB84748EA001000F0FF086D1E0ED044
:104F000001CCB84748EA800000F0FF086D1E06D0CB
:104F100001CCB84740EA080000F0FF086D1E06F813
:104F2000018B002DDDD123E0FFE701CCB84700075E
:104F30004FEA10686D1E06D001CCB84740EA080061
:104F400000F0FF086D1E06F8018B002DEDD10FE07B
:104F5000D3F810C0BCF1000F04D001232A4620462C
:104F6000E04705E001CCB84706F8010B6D1EF9D10A
:104F700001206AE77CB5064628480D46006868B1FE
:104F8000002005F091F806E06A462946304605F013
:104F9000FDFF05F04BF80028F6D17CBD10680090AD
:104FA0001F4C506801902268BDF8000032F84C1F79
:104FB0000844ADF80000BDF8020091880844ADF83F
:104FC0000200BDF8040011880844ADF80400BDF8E3
:104FD000060091880844ADF80600684605F064F8BC
:104FE0000EE000BF2068BDF800106A464184BDF89D
:104FF000021081842946304605F0C8FF05F016F8F6
:105000000028EFD1206830F8221F428D891A0180D4
:105010004188C28D891A41807CBD00006802002051
:10502000280200202DE9FF4F85B09A4690460D4694
:10503000FEF774F94FF00009DDF814B006464C464F
:1050400025B1286800906868019002E06846FEF784
:105050003BF918F00C0F02D05546002713E0BDF9BC
:1050600002402DE029467F1C059800F0B5FA014664
:105070006D1A0598FFF7A0FC05990844059005A84E
:1050800000F0EEFA08B9002DECD108F00C0004286D
:1050900004D0082802D00C2812D105E0BDF9060082
:1050A00007FB1604641C0BE0BDF90600BDF90210F5
:1050B000401A07FB1600401C00EBD07001EB6004A7
:1050C0005546CDF814B043E02946059800F084FA1F
:1050D00007460146ED1B059800F054FA18F003014D
:1050E0000ED0012939D002290DD1BDF90410BDF926
:1050F0000020891A091A01EBD17102EB610101E06C
:10510000BDF900108946174A401E484412683946C6
:10511000A2F822909484ADF80C00A019401EADF8BE
:105120000890ADF80E00ADF80A4002AA0598FFF706
:1051300021FF39460598FFF73FFC05990844059083
:10514000FEF7ECF8044405A800F08AFA002801D123
:10515000002DB9D109B0BDE8F08FBDF90410091ACE
:10516000491CCFE7280200202DE9FF4F8DB0002019
:10517000DDF86CA0164600901D4604460246CAF8AB
:10518000000008AB03A902A800F0AEF918B1002096
:1051900011B0BDE8F08F0898854200DD0546614FEB
:1051A0000B9561493868407C51F8201004910969D9
:1051B0000691FEF74DF805903868407CFEF714F92B
:1051C0005A498146884204D05949894501D0012075
:1051D00000E000200A9001CE1A9988478346000E0D
:1051E000079077D0009870BB0D9800EB04084D48ED
:1051F0000068B0F90800404503DDA0EB08078046D1
:1052000000E000270298049900EB840000EB87007F
:10521000CDE900010B990D98421809920E9B40466A
:105220001946521EFEF76CFD0120009005981828C3
:105230000ADA0298DDE9052300EB840000EB870021
:10524000E91B00F0AFF812E00A9880B1029800EB79
:10525000840000EB87070998A0EB080849463868E6
:10526000884701C7A8F101005FEA0008F6D131487C
:10527000C06980B3DDE9020700EB840007EB84021C
:10528000CDE902022B4C361F3046E4692B460299C9
:10529000A047FF213068B1EB106F02D1029800687F
:1052A00004E0029A1268B1EB126F01D1039A106008
:1052B000029806F10406001D02900398001D039059
:1052C0006D1EE7D10397DAF8000040F00101CAF83B
:1052D000001020E021E0FFE70798FF2811D0C0F17F
:1052E000FF02029850F82410584600F07DFA039906
:1052F00041F82400DAF8000040F00101CAF800107B
:1053000005E00298039950F8240041F82400641C39
:105310006D1E7FF460AF03983AE7039941F824B01B
:10532000E8E7000028020020480200202B6800085F
:1053300029680008A80400202DE9FF4F87B00C461B
:10534000DDE91698DDE914BA0546FEF797F814482A
:10535000099A0168C86C096D471985180E190A98D1
:10536000ADF810700C18ADF81450ADF81260ADF82F
:10537000164004A804F098FE0BE0CDE90298CDE9B0
:1053800000BA23462A463146384607F02FFF04F07C
:105390004DFE0028F1D1FFF721FC0BB0BDE8F08FE6
:1053A000280200202DE9F05F0C1E16DD5E68014624
:1053B00000EB8405082A12DC611E012A26D0022A8D
:1053C00047D0042A6AD0082A07D1071917F8010D17
:1053D000B04745F8040D641EF8D1BDE8F09F102ACF
:1053E000FBDC5F693FB12246BC46BDE8F04F0223BB
:1053F0005DF804EB604701EB440700BF37F8020D8E
:10540000B04745F8040D641EF8D1E6E700EBE10073
:1054100001F0070710F801A98146802020FA07F85B
:10542000B5F104050AEA0800C7F10701C840B04712
:1054300045F804093FB14FEA48604FEA10687F1E03
:10544000641EEFD1C9E719F801A907274FF0010839
:10545000F6E700EBA10001F0030710F801A981466F
:105460007900C02020FA01F84FF0060BB5F10405D1
:105470000AEA0800ABEB4701C840B04745F8040909
:105480003FB14FEA88604FEA10687F1E641EEFD17B
:10549000A3E7032719F801A9B846F7E700EB610075
:1054A000012710F801A9A7438146B900F02020FA8E
:1054B00001F84FF0040B2D1F0AEA0800ABEB87013F
:1054C000C840B04745F804093FB14FEA08704FEAB9
:1054D00010687F1E641EEFD17FE719F801A901272C
:1054E0004FF00F08F6E700002DE9F047224C064682
:1054F0001F46A06990468946002540B90120A06159
:1055000004F128011D480860084600F0D1F96069DF
:1055100030B91B480068606110B901F022F9606180
:1055200007B138604EB1A06830B960698000FCF7FF
:1055300069FEA06000B901253060B9F1000F0AD002
:10554000E06830B960698000FCF75CFEE06000B99B
:105550000125C9F80000B8F1000F0AD0206930B960
:1055600060698000FCF74EFE206100B90125C8F893
:1055700000002846BDE8F087A804002021E80008C4
:105580005C02002073B5124A01A900981268904786
:1055900000240090C8B10F4900250968C96949690C
:1055A00059B10A684AB1019990477CBD6846FFF736
:1055B000EDF90546FDF762FE04440198401E019096
:1055C000F4D5284600F040F8044420467CBD000095
:1055D000F00400202802002073B50D460098002436
:1055E00090B10A490968C969496959B14A684AB11B
:1055F000294690477CBD6846FFF7C8F920B10A28C4
:1056000002D0641CAC42F6DB20467CBD28020020A0
:1056100031B50024009808B905E0641C6846FFF71E
:10562000B5F90028F9D1204638BD0000044AB2F986
:10563000002002600348B0F90000086070470000D5
:105640006C0200206E02002038B5002469460094E8
:10565000FDF726FE0099814200DD0C1A204638BD78
:10566000016811F8012B12B10A2A02D002E00120D0
:105670007047016000207047B0F90030B1F9002098
:10568000934200DA0280B0F90230B1F9022093426D
:1056900000DA4280B0F90430B1F90420934200DD11
:1056A0008280B0F90620B1F906108A4200DDC1807F
:1056B000704770B5B1F90040B2F900309C4200DD8E
:1056C00023460380B1F90250B2F90240A54200DD41
:1056D0002C464480B1F90460B2F90450AE4200DABD
:1056E00035468580B1F90610B2F90620914200DBFB
:1056F0001146C1809D4201DBA14201DA002070BD4C
:10570000012070BD014602480068407C00F002B8EC
:10571000280200202DE9F843012689460446022884
:105720005DDA304F7A6802B190472E4D5FEA09008A
:1057300005F1100532D0012803D0B9F1020F4ED186
:1057400018E055F8240088B92046FDF749F8009084
:1057500018B3C0680D21426A6846904702003ED0E7
:1057600049460098904755F824000026401C45F80B
:10577000240034E02046FDF733F8009068B1C0689B
:105780000D21426A68469047040028D0386800B16D
:10579000804749460098A047002620E055F824009D
:1057A000A846012812D12046FDF71AF8009068B1EA
:1057B000C0680D21426A68469047050006D03868E7
:1057C00000B1804749460098A847002658F82410A1
:1057D00009B1012200E00022891A48F8241030465D
:1057E000BDE8F883D804002070B5FF23B3EB116F38
:1057F00029D0C3B200F47F4500F47F04060E534362
:10580000554354435643C2F1FF00CAB202FB003273
:1058100001F47F4303FB005301F47F0505FB0044C3
:10582000090E01FB0065C2F307204FF47F4101EA36
:105830001322090201EA14214FF07F43104303EAC7
:1058400005430843184370BD2DE9F04F0646DDE9D6
:105850000CB915460C4600208046584519D20B9FBE
:105860004FF0FF0A01CE08CCAAEB106202FB09F24E
:10587000B2FBFAF1CAB21946FFF7B6FF20F07F403B
:1058800001C57F1EEED1099804EB800408F10100E8
:10589000E2E7BDE8F08F0B88134403808B889B1AE6
:1058A00083804B8813444380C988891AC18070471C
:1058B0000249CA694260C861704700001C020020AA
:1058C0002DE9F8430768064688460025384600F06B
:1058D000CBF840B3404600F0D7F8441C3846FCF7FC
:1058E00013FD84420CD1F4B13846FCF723FD224667
:1058F00041460090FAF71AFD6846FCF759FD11E0A1
:105900002046FCF70BFC04000DD0FCF713FD4146CC
:105910000090FAF7C8FC6846FCF74AFD3046FCF7F1
:1059200055FC346001252846BDE8F88310B50446CF
:1059300000F009F801462046BDE81040FFF73CB8EA
:1059400000230AF0A9B977B581B015460E466B461B
:1059500001980AF0A1F9044601460198FFF72CF8D6
:1059600001990844019001A8FFF710F80A2802D015
:10597000012D02D012E0641C10E020280ED1FDF7AA
:105980007DFC054607E02844009001A8641CFEF752
:10599000FDFF202802D100988642F4DA04B02046A8
:1059A00070BD10B502E000F8011B521E0AB183075A
:1059B000F9D1930818D001EB014402F0030204EB83
:1059C000042406E010C01B1F10C040F8084B40F82C
:1059D000044C042BF6DA01E010C05B1E002BFBD157
:1059E00002E000F8011B521E002AFAD110BD10B5CA
:1059F000830702D520F8021B521E530811D001EB79
:105A00000144042B09DB10C01B1F10C0042B40F8FD
:105A1000084B40F8044CF6DA01E010C05B1E002B86
:105A2000FBD1D20700D0018010BD024600204FF00C
:105A300080414318934201D8D21A58184008890867
:105A4000F7D1704700B907A021B906A102E03AB129
:105A5000401C491C02780B789A42F8D0012070470C
:105A6000002070470000000038B50D46012448B101
:105A7000FCF760FC29460090FFF7E4FF0446684607
:105A8000FCF796FC204638BD4FF0FF3128B100BF2F
:105A900010F8012B491C002AFAD10846704700F57E
:105AA000806000F001B8000010B50023C0F30B00C7
:105AB000B0F5006F02DD0123A0F50060B0F5806F46
:105AC00001DDC0F5006081110C4C00F03F00C0F119
:105AD000400234F811005043402A08D0102906DA59
