:020000040800F2
:10000000489200200D020008DD6A000885560008AD
:10001000D96A00084D0B00089B7D00080000000015
:10002000000000000000000000000000AF6F0008AA
:10003000890B000800000000656B0008C170000813
:1000400027020008270200082702000827020008EC
:1000500027020008270200082702000827020008DC
:1000600027020008270200082702000827020008CC
:1000700027020008270200082702000827020008BC
:1000800027020008270200082702000827020008AC
:10009000270200082702000827020008270200089C
:1000A000270200082702000827020008270200088C
:1000B00027020008457300082702000827020008ED
:1000C000270200082702000827020008270200086C
:1000D00027020008A97C0008270200082702000860
:1000E000270200082702000827020008270200084C
:1000F000270200082702000827020008270200083C
:10010000270200082702000827020008270200082B
:100110002702000827020008ED73000827020008E4
:10012000270200082702000827020008270200080B
:1001300000F002F800F05AF80AA090E8000C82449F
:100140008344AAF10107DA4501D100F04FF8AFF27C
:10015000090EBAE80F0013F0010F18BFFB1A43F0A5
:100160000103184710B0010030B001000A444FF0FD
:10017000000C10F8013B13F0070408BF10F8014B06
:100180001D1108BF10F8015B641E05D010F8016B4B
:10019000641E01F8016BF9D113F0080F1EBF10F8AF
:1001A000014BAD1C0C1B09D16D1E58BF01F801CBD2
:1001B000FAD505E014F8016B01F8016B6D1EF9D555
:1001C0009142D6D37047000000230024002500266A
:1001D000103A28BF78C1FBD8520728BF30C148BFAA
:1001E0000B6070471FB51FBD10B510BD00F0FCF9C6
:1001F0001146FFF7F7FF0FF05DFC00F01AFA03B4A9
:10020000FFF7F2FF03BC0FF0FDFB00000948804739
:1002100009480047FEE7FEE7FEE7FEE7FEE7FEE7E8
:10022000FEE7FEE7FEE7FEE704480549054A064B00
:1002300070470000C57000083101000848880020A0
:1002400048920020488A0020488A0020704740EAEF
:10025000010310B59B070FD1042A0DD310C808C99C
:10026000121F9C42F8D020BA19BA884201D9012045
:1002700010BD4FF0FF3010BD1AB1D30703D0521C90
:1002800007E0002010BD10F8013B11F8014B1B1BCB
:1002900007D110F8013B11F8014B1B1B01D1921E35
:1002A000F1D1184610BD40EA0103024630B59B0764
:1002B00010D14FF0013400E008C208C91D1B9D4356
:1002C00015EAC41FF8D013F0FF0102F8011B0DD08E
:1002D0001B0AF8E711F8013B002B02F8013B05D09F
:1002E00011F8013B002B02F8013BF3D130BD10B5F2
:1002F000431C02E010F8011B71B18107FAD14FF0E5
:10030000013202C88C1A8C4314EAC211F9D0C01A07
:100310000A0603D0C01E10BDC01A10BD0A0401D0C9
:10032000801E10BD0902FCD0401E10BD032A40F201
:10033000308010F0030C00F0158011F8013BBCF187
:10034000020F624498BF11F801CB00F8013B38BF9F
:1003500011F8013BA2F1040298BF00F801CB38BFAD
:1003600000F8013B11F0030300F06780083AC0F089
:10037000088051F8043B083A51F804CBA0E8081073
:10038000F5E7121D5CBF51F8043B40F8043BAFF3A6
:100390000080D20724BF11F8013B11F801CB48BF00
:1003A00011F8012B24BF00F8013B00F801CB48BF36
:1003B00000F8012B7047431A28BF9A427FF6B6AF68
:1003C000032A1044114440F2268010F0030F1EBF90
:1003D00011F8013D521E00F8013D10F0030F7FF4AB
:1003E000F6AF11F0030300F0AB80083AC0F00B80C9
:1003F00051F8043D083A51F804CD40F8043D40F866
:1004000004CDFFF7F3BF121D5CBF51F8043D40F867
:10041000043DAFF30080D20724BF11F8013D11F86D
:1004200001CD48BF11F8012C24BF00F8013D00F8B0
:1004300001CD48BF00F8012C704710B5203AC0F03C
:100440000B80B1E81850203AA0E81850B1E81850D5
:10045000A0E81850BFF4F5AF5FEA027C24BFB1E812
:100460001850A0E8185044BF18C918C0BDE8104083
:100470005FEA827C24BF51F8043B40F8043B08BF8C
:100480007047D20728BF31F8023B48BF11F8012B53
:1004900028BF20F8023B48BF00F8012B704702F04C
:1004A000FF0343EA032242EA024200F075B84FF02C
:1004B000000200B5134694469646203922BFA0E8B4
:1004C0000C50A0E80C50B1F12001BFF4F7AF0907C0
:1004D00028BFA0E80C5048BF0CC05DF804EB8900B1
:1004E00028BF40F8042B08BF704748BF20F8022BF4
:1004F00011F0804F18BF00F8012B7047704770470C
:100500007047704710B500F067F8006810BD10B56F
:10051000044600F061F8046010BD431A28BF9A42F7
:100520007FF68BAF104410F0030F11441EBF11F87B
:10053000013D521E00F8013D10F0030F7FF4F6AFAD
:10054000103AC0F00A8010B531E91850103A20E98D
:100550001850BFF4F9AFBDE81040530724BF31E98C
:10056000081020E9081044BF51F8043D40F8043D4C
:1005700012F0030F08BF7047D20728BF31F8023DC1
:1005800048BF11F8012C28BF20F8023D48BF00F8F1
:10059000012C70474FF000020429C0F0128010F0C7
:1005A000030C3FF486AFCCF1040CBCF1020F18BF72
:1005B00000F8012BA8BF20F8022BA1EB0C01FFF7DC
:1005C00078BF5FEAC17C24BF00F8012B00F8012B43
:1005D00048BF00F8012B704700487047E4870020AF
:1005E00000487047E48700207546FFF7F9FFAE46E4
:1005F00005006946534620F00700854618B020B52F
:10060000FFF712FEBDE820404FF000064FF0000754
:100610004FF000084FF0000B21F00701AC46ACE8AA
:10062000C009ACE8C009ACE8C009ACE8C0098D4617
:1006300070470446AFF300802046FFF7E0FD002836
:1006400000DC40427047000038B54568044601466A
:10065000284607F0BDFB00282BD02068304A11281F
:100660000DD006DC0B2825D00E2833D00F2852D110
:1006700012E0282849D0B0F5107F4CD108E09268EC
:10068000002A16D02146284601B0BDE83040104768
:10069000214628465268F7E7284601F007FC0090FB
:1006A000406E0468684601F06BFC002C01D02846BF
:1006B000A04738BD284601F0F9FB0090683001F0F2
:1006C00041FB009803216C3001F04AFB684601F0C1
:1006D00057FC20E0E168486809680D2902D020290C
:1006E00013D105E0002810DD28460CF0F1FF06E0EC
:1006F000002804DD2846BDE838400CF0E9BF284654
:10070000BDE8384002210CF0F9BFE06818B90021BB
:10071000284600F0ACF92046BDE8384007F04ABE54
:10072000C4010020F0B5044685B08069B4F90850D2
:10073000668A0027CDE90265CDE900170490B4F977
:100740000C00B4F91060C118B4F90A00B4F90E50E5
:10075000104433462A4600F007F80546616800F069
:100760009DF905B02846F0BD2DE9F04F85B01F4634
:10077000DDE911B4DDE90E5690468946824602F065
:1007800019FC16484C34CDE90204CDE900563B462D
:1007900042464946504607F055FD040018D001F086
:1007A00085FB10225946049007F0E2FB04983022A2
:1007B0000B493430FFF741FE094D04990C3D286880
:1007C000486604A801F0DCFB286841682046884799
:1007D00003F07EFF05B02046BDE8F08F4906000813
:1007E000D0010020F0B5044680688B4989B051F8EB
:1007F0002050606800287DD0052804D006287AD0D3
:10080000122879D1AEE0E86900284FD095E80E00B3
:100810008DE80F0004F110010FC904F011FB002650
:1008200055F8260003F0ABF8A169E8690A1A2169B6
:1008300001446069304402F0A7F8A169E8690A1A26
:1008400021690144E069801B02F09EF8E169E869D2
:100850000A1A616901442069304402F025F9E1690E
:10086000E8690A1A61690144A069801B02F01CF959
:10087000761C022ED4DBA86803F081F8E069E969F0
:100880006669431A206942183144801C521E02F0E6
:10089000AFF9E169E869A2690B1A61690144101AAC
:1008A000401C921E02F0A4F9EE6913E05FF000060E
:1008B00055F8260003F063F8E069831BA069821BEA
:1008C000606981192069304402F0AEF8761C022E6E
:1008D000EEDB0226D5E90301CDE900016169E0699B
:1008E00008444310A069891C821B2069304402F02F
:1008F0000FF802E089E012E08AE0D5E90501CDE9D0
:100900000001E36960690121184401EB6001A069FD
:100910009B1E821B2069304401F0FAFF78E02068BA
:1009200001F0C4FA0490206808F08CFF40B1A06880
:1009300008B1002008E00498006F28B1012003E00E
:100940000498406F00B10220049901EB8000C56E4D
:1009500004A801F015FB00231A462846216801F07F
:1009600045FD55E0206801F0A1FA0490866EEEB3D3
:10097000B0F95C70A168D1B3032942D05FF00001E7
:1009800000EB8101406D0C6C03F016F8204602F07C
:10099000F6FF05A802F04EFABDF81410A88B01442A
:1009A000ADF81410BDF81810081AADF81800BDF80D
:1009B0001600801CADF81600BDF81A00801EADF8B8
:1009C0001A000498B0F96020B0F95E1005A802F092
:1009D000C0FE04A801F0D4FA022003F059F8304612
:1009E00001F064FA3A4605A9079001E00BE006E041
:1009F00001F002FE0DF11C0001F0C2FA08E0012135
:100A0000BEE70221BCE704A8F6E7206808F0D8FB9F
:100A100009B00020F0BD0000285E0108042905D2BD
:100A2000034A52F821102022FFF707BD704700004B
:100A3000285E010838B505004FF000040DD002F023
:100A4000B9FA284601F032FA0090408EC0F3002433
:100A5000684601F095FA03F03BFE204638BD0029B8
:100A60004FF0100101D007F047BA07F098B94FF4E2
:100A700080720029114601D007F03EBA07F08FB905
:100A8000042907D2044A52F8213001462022184690
:100A9000FFF7D3BC70470000285E01082DE9FF4135
:100AA0000E4605004FF0010421D002F083FA2846DB
:100AB00001F0FCF90190876E01A8009701F060FA3F
:100AC0003146684604F080FC78B100980024B842B2
:100AD00008D0284601F0EAF901900099816601A842
:100AE00001F04EFA284608F0D7F803F0F1FD04B003
:100AF0002046BDE8F081F0B504460D4616461F4677
:100B00002A2009F093F9C4F30F2009F099F9E0B213
:100B100009F096F9C5F30F2009F092F9E8B209F04F
:100B20008FF92B2009F082F9C6F30F2009F088F91C
:100B3000F0B209F085F9C7F30F2009F081F9F8B296
:100B400009F07EF92C2009F071F9F0BD00BFFEE735
:100B500000B589B0012101A8FFF760FF4FF47F4085
:100B6000019000200290FF2003900690FF21079142
:100B700004900591012101A8FFF782FF002101A83F
:100B8000FFF77EFF09B000BD7047000070B5064654
:100B90000D4614462B462A4631463046FFF7ABFF3A
:100BA000A0B204F095FE04460148048070BD000028
:100BB0000000026038B504000DD002F0FBF92046B9
:100BC00001F074F90090846E684601F0D9F903F0E1
:100BD0007FFD204638BD002038BD38B505004FF0F8
:100BE00000040BD002F0E6F9284601F05FF900900E
:100BF000846C684601F0C4F903F06AFD204638BDF4
:100C000070B50D46044602F0D5F934B129462046A8
:100C100000F0C9F8204608F03FF8BDE8704003F046
:100C200057BD00002DE9F8431C46DDE90856904603
:100C30000F46814602F0BEF9B9F1000044D001F040
:100C400035F92349009081652249C1650021C0E939
:100C50001271E0E90F84012105728676017690F821
:100C60004C70684601F08CF9AFB1294620460CF073
:100C700062F80446294640460CF05DF80DB1401C70
:100C8000641CF10700D0641C844200DD204601464C
:100C9000484600F037F848460DF0F4FD484601F0AC
:100CA00005F9009000F06AF80B490978884205D1EF
:100CB0000098C16C4846491C00F075F8684601F080
:100CC0005FF9484607F0E8FF03F002FDBDE8F8834E
:100CD000219F000885E80008EC00002038B50D468B
:100CE00004000ED002F066F9204601F0DFF8009013
:100CF0008566204607F0D0FF684601F041F903F011
:100D0000E7FC38BD7CB50C46060033D002F052F942
:100D1000304601F0CBF80090B0F93810458FA14271
:100D200023D012DD406B80B101F0C0F8019004F0D7
:100D3000F3F9A04206DD2146019803F0B7FB019AC2
:100D40000021115401A801F01BF9684601F018F9BF
:100D5000611B3046491C0CF050FA304601F0A6F8F1
:100D600000900487304607F097FF684601F008F9C5
:100D700003F0AEFC7CBD00220DF076BC38B5054614
:100D8000406B002468B101F091F800900446E96CD2
:100D900003F08CFB204403F063FB0446684601F03B
:100DA000EFF8204638BD1CB50C4601F07FF80090E6
:100DB000406BF0B101F07AF8019004F0ADF90099C0
:100DC00091F8542002B10122002C00DA0024844260
:100DD00000DD0446B1F93800801AA04200DA04466A
:100DE000C86CA04200D0CC640020086501A801F0C6
:100DF000C7F8684601F0C4F81CBD00002DE9F041B9
:100E000000250026002700242848007830B928480B
:100E10000068264908700020BDE8F0812448006879
:100E200030B1002700202349487008464078F3E796
:100E300001200EF00DFE1E48006830B10027002092
:100E40001C49487008464078E6E71948001F0068CA
:100E5000C6B205E01648001F0068C5B20127641C31
:100E60001348006810B914488442F3D3104800684E
:100E70000E490870BFB11048844214D200272EB921
:100E8000012D03D102200B49487009E0012E04D145
:100E90001DB901200749487002E00020054948704B
:100EA00004484078B8E70020B6E700004F00002073
:100EB000180123424A00002020A107002DE9F0413B
:100EC00000250026002700242848007830B928484B
:100ED0000068264908700020BDE8F08124480068B9
:100EE00030B1002700202349C8700846C078F3E7D6
:100EF00001200EF0ADFD1E48006830B10027002033
:100F00001C49C8700846C078E6E71948001F006809
:100F1000C6B205E01648001F0068C5B20127641C70
:100F20001348006810B914488442F3D3104800688D
:100F30000E490870BFB11048844214D200272EB960
:100F4000012D03D106200B49C87009E0012E04D100
:100F50001DB905200749C87002E000200549C87086
:100F60000448C078B8E70020B6E700005100002030
:100F7000080123424A00002020A107002DE9F0418A
:100F800000250026002700242848007830B928488A
:100F90000068264908700020BDE8F08124480068F8
:100FA00030B1002700202349887008468078F3E795
:100FB00001200EF04DFD1E48006830B100270020D2
:100FC0001C49887008468078E6E71948001F0068C9
:100FD000C6B205E01648001F0068C5B20127641CB0
:100FE0001348006810B914488442F3D310480068CD
:100FF0000E490870BFB11048844214D200272EB9A0
:10100000012D03D104200B49887009E0012E04D181
:101010001DB903200749887002E000200549887047
:1010200004488078B8E70020B6E7000050000020B0
:10103000100123424A00002020A1070008B5012129
:10104000402005F0B1FD03208DF802007E20ADF8B0
:10105000000048208DF803006946024800F08EFB2E
:1010600008BD00000018014010B5FFF771FD0348EE
:1010700005F08EFE05F010FD10BD000035BE000825
:1010800051B18200A2F1C042126842F00103820015
:10109000A2F1C042136009E08200A2F1C0421268CE
:1010A000034B1A408300A3F1C0431A60704700004D
:1010B000FEFF0F00D0E901121143C268114302691B
:1010C00011434269114382691143C2691143026AA3
:1010D0001143426A1143826A1143C26A1143026B8F
:1010E000114302689200A2F1C04211608168082990
:1010F0000BD101688900A1F1C041096841F04002AB
:1011000001688900A1F1C0410A60416B0968426B26
:10111000526841EA0211426B926841EA0221426B35
:10112000928941EA0241426B128A41EA0251426BC2
:10113000127D41EA0261426B926911430268521CBE
:101140009200A2F1C0421160C16AB1F5804F1BD17B
:10115000816B0968826B526841EA0211826B926866
:1011600041EA0221826B128A41EA0251826B127DAE
:1011700041EA0261826B9269114302689200A2F116
:10118000C042C2F8041107E06FF0704201688900A4
:10119000A1F1C041C1F8042170471CB5002401949D
:1011A00001AC009400F0E8F81CBD00002DE9FF4FF1
:1011B00083B0814606988A46A0EB0A08109E00205C
:1011C0000090A2EB09043568934654EA080018D051
:1011D0002046FFF734FA07464046FFF730FA8742C9
:1011E0000BDA2046444680464846D1468246584659
:1011F000DDF818B0069001200090002C07DD204695
:1012000006E007B04846BDE8F04F00F03BB9604249
:10121000A0420AD04846D9466442C8F10008834635
:101220004FF0FF37DDF818A000E001275148B8F172
:10123000000F11D004EBD4714FEA610B01DACBF14E
:10124000000B4C480068807E88B3002F02DA3068BB
:101250002044306000257BE000990029016821D0FE
:10126000897E11B10027804615E007B05A464946ED
:101270005046BDE8F04F04F09DBC28466D1C0CF0B4
:10128000D7FE38B9D8F8000009EB0701406E426874
:10129000504690477F1CA742EFDD6D1E356007B0BA
:1012A000BDE8F08F8A7E1AB10027804617E019E06A
:1012B000486E5A465146036807B04846BDE8F04FAD
:1012C000184728466D1C0CF0B3FE38B9D8F800104A
:1012D00009EB0700496E4A68514690477F1CA742B8
:1012E000EFDDDAE700250FE008FB05B090FBF4F135
:1012F00001EB0A00009951B11E4A09EB0501126881
:10130000526E526890476D1CA542EDDDC7E7194942
:1013100009EB05030968496E4A6801461846F1E77A
:1013200008FB05B090FBF4F101EB0A000190306876
:10133000384430600CF07CFE48B9009890B10D48FC
:1013400009EB05010068406E4268019890476D1CEA
:10135000A542E5DD3068002F01DA20443060C01B73
:1013600030609CE7034909EB05000968496E4A684B
:101370000199EBE7F80000202DE9FF470F464049AF
:101380001646804609680C981D460A7E012A1CD024
:10139000A8EB0600791B50EA01031CD0A2F1010959
:1013A0000DF0D6FF00F58060824604F0FCF800FBEB
:1013B00009F4504604F0FCF800FB09F1002C0CDAAB
:1013C000C4F50070801240420AE00090324639466F
:1013D0004046FFF7EBFEBDE8FF8704F50074A0125E
:1013E000002904DAC1F5007189124C4202E001F5CE
:1013F00000718C12002804DD411C01EBD1714910F1
:1014000003E000EBD0714910401E00EBD070421099
:10141000002C04DD601C00EBD070401003E004EBF6
:10142000D4704010641E04EBD47308EB0104ADF8D3
:1014300000403C18ADF80240A8EB02045B10B21A61
:10144000ADF80440ADF808203144FC1AEA1AADF8B2
:101450000C102844ADF80A20ADF80E000023ADF8BA
:1014600006401A460421684600F07AF8394640469C
:101470000AF030FC294630460AF02CFCABE70000AD
:10148000F8000020064A13681A7E012A05D0521E71
:1014900002EBD272521000F005B85A6E5268104733
:1014A000F80000202DE9F05F0646884640F2C32090
:1014B00002FB00F14FF47A7091FBF0F702FB02F1AE
:1014C00002EBD27001EB600B1446B118234A301BBB
:1014D0007F1C1268526E13680A46414698470125E0
:1014E00038E000BF05FB05F004FB040159451CDD95
:1014F000BC4219DD194B06EB050AA6EB05091B6872
:10150000AAF1010208EB04015B6E09F101001B68FE
:101510009847124BAAF10102A8EB04011B6809F1DC
:1015200001005B6E1B689847641E0C4B3219301B20
:101530001B68924608EB05015B6E81461B68984765
:10154000064B5246A8EB05011B6848465B6E1B68BC
:1015500098476D1CBD42C5DDBDE8F09FF800002036
:101560002DE9FF4F43F6FF740F46664283B09B465A
:10157000814600210BE000BF09EB8100B0F90200B9
:10158000A04200DA0446B04200DD0646491CB942DA
:10159000F2DB67480068406900280DD0B0F90610FA
:1015A0001A46A1EB0B01B14200DA0E46B0F9020077
:1015B000801AA04200DD0446B4E0DFF878A10020E4
:1015C0000546CAF8000088E0781E854201DA6B1CE7
:1015D00000E0002309EB850C09EB8302BCF9020053
:1015E000B2F90210A04244D1A14215D139F92330F9
:1015F000059A39F9251003EB020C4D4A059812683B
:10160000084404EB0B01526E6045136801DA624630
:101610002AE00246604627E02846A4464FF000082C
:101620007A1E0BE008B1401E00E0781E09EB800333
:10163000B3F90230634504D108F101089045F1DBAC
:101640002346A34248D01A1B39F92500A1EB040C0C
:10165000059B92EA0C0F09D4354A184404EB0B01A0
:101660001268526E13680246984735E008F0F4FBA2
:1016700032E0A14230D001DBA04203DDA0422BDBEF
:10168000A14229DCE04688420ADC0346A04223DC72
:101690000846A14220DBB8F900C0B2F9001008E00A
:1016A0000B46A14218DCA04216DBB2F900C0B8F923
:1016B0000010E21AA1EB0C0151430029A0EB030238
:1016C00002DD01EB620102E0A1EB6201491CC01ADC
:1016D00091FBF0F06044C9E76D1CBD42FFF674AFAA
:1016E0000598009004EB0B00019000208046054611
:1016F00013E01149B8F1000F31F915A009D0009994
:1017000001EB0A0208440A490968496E0B6801990D
:10171000984788F0010850466D1C064909688D42BB
:10172000E7DB641CB4427FF748AF07B0BDE8F08F39
:10173000F8000020400100208486002010B5002021
:1017400002F012F96FF07F4002F019F9012002F067
:1017500081F9002002F08CF9002002F099F90020B4
:1017600002F01EF90448006802F026F9BDE81040B6
:10177000002002F041B90000F40000202DE9F04102
:10178000024600250026002000230024002791F8AF
:1017900003C00CF00F0591F803C00CF0100CBCF165
:1017A000000F03D091F802C04CEA050591F800C083
:1017B000BCF1000F31D0146800202BE04FF0010C79
:1017C0000CFA00F3B1F800C00CEA03069E4220D1E7
:1017D00083004FF00F0C0CFA03F7BC4305FA03FC2F
:1017E0004CEA040491F803C0BCF1280F06D14FF075
:1017F000010C0CFA00FCC2F814C00AE091F803C016
:10180000BCF1480F05D14FF0010C0CFA00FCC2F8F6
:1018100010C0401C0828D1D31460B1F800C0BCF13E
:10182000FF0F34DD546800202EE000F1080C4FF06B
:10183000010808FA0CF3B1F800C00CEA03069E4256
:1018400021D183004FF00F0C0CFA03F7BC4305FACB
:1018500003FC4CEA040491F803C0BCF1280F05D145
:1018600000F1080C08FA0CF8C2F8148091F803C0D3
:10187000BCF1480F07D100F1080C4FF0010808FA3D
:101880000CF8C2F81080401C0828CED35460BDE884
:10189000F0810000F0B50A46002300240021002555
:1018A00000F00046B6F1004F02D11D4EF16901E093
:1018B0001B4E7168C0F3034583B200F44016B6F5C1
:1018C000401F08D121F07061154E766826F07066D1
:1018D000134F7E6012E000F48016B6F5801F06D12B
:1018E000032606FA05F4A14341F0706106E0460DB7
:1018F000360103FA06F6B14341F0706122B1460D9C
:10190000360103FA06F6314300F00046B6F1004F07
:1019100002D1034EF16101E0014E7160F0BD0000A3
:101920000000014041617047016170472DE9F04FAF
:10193000DFF828B191B04FF0FF35DBF80030B3F994
:1019400022100691DE69B3F924A0F469A1898142CD
:1019500006D8E289824203D3471AD4F8008012E005
:10196000D4E90181002970D00A8882426DD84D885F
:1019700085426AD3801A82B2486800EB8200B0F9CF
:101980000070B0F90250781C5FD0307EA27C014616
:1019900000FB02F9207CCDE90710B3F92A6030463C
:1019A00004F0BCFCC0B20E90DBF8001007FB09800D
:1019B000A37C8A6B0127CDE90402CDE90273C869D3
:1019C000089AC17E807ECDE90001DDE9060351461B
:1019D00003F08EFF681C18D046F0020004F09EFC55
:1019E000DBF80000A37C05FB0981826BCDE9027363
:1019F000CDE90412C069089AC17E807ECDE900015C
:101A0000DDE90603514603F073FFDBF800005D4695
:101A1000C069417E007E814214D9022E12D086F028
:101A2000040004F07BFC2868C069027EC37E857ECA
:101A300002FB03A1437E089A0698534402FB050269
:101A400004F018F90E9804F069FCDBF80000627CE1
:101A5000418C1144418411B0BDE8F08FF8000020A2
:101A600004480068C069C06909B1027C0A60407C12
:101A700070470000F8000020022008807047C0690D
:101A800082898A4202D8C2898A4210D2806880B193
:101A900002888A420DD843888B420AD3406800EB03
:101AA0008100A0EB8200B0F90000002801DB0120DA
:101AB00070470020704700002DE9F0432F4C03468B
:101AC00087B020681946B0F92A80C069C06900F063
:101AD00082F800284ED041680088181A01EBC00532
:101AE0004046AE7804F01AFC814620686A680123FB
:101AF000816BCDE90236CDE90421C169CB7E8A7EB6
:101B0000CDE900230B7EB0F924102A78B0F9220029
:101B100003F0EEFE2068C069477E067EB7421DD9FD
:101B2000C07E47434643B8F1020F17D001F087F952
:101B3000804601F04DF901F022FF21682A78CB6937
:101B4000B1F92200B1F92410DB7E02FB0302CB19AC
:101B5000314404F08FF8404601F011FF484604F08C
:101B6000DDFB20686A78C369B0F922109B7E02FB16
:101B70000311418407B0BDE8F0830000F8000020A5
:101B800030B50E4C05460B4620682946C069C06931
:101B900000F021F8002810D04168008824682A1A33
:101BA0000120E46900EBC200085CA47E6043002BC6
:101BB00003D011F832106143196030BDF8000020E5
:101BC00001200880704700B5C06900F004F80028C3
:101BD00000D0012000BD06E002888A4202D8428877
:101BE0008A4202D280680028F6D170472DE9F04180
:101BF0000025154E154C18E02069C5EB051700EBC4
:101C0000C7007022001D3168FEF717FC2069002113
:101C100040F8371000EBC70000F10C018161011D95
:101C20000A1DC0E90F126D1C4164A0688542E3DB08
:101C30000BF03EFA2169C0EB001001EBC000001D63
:101C40003060BDE8F0810000F80000200C040020A6
:101C500070B50F490D480860084603F0ADFB0C4C09
:101C6000143CA068C0EB0010C500284600F086F8C0
:101C70002A460021206103F018FC4FF0FF3020605D
:101C800002F073FDBDE870400BF012BA25D80008D1
:101C90002004002010B5040009D001F08BF9204683
:101CA00008F054FA044602F013FD204610BD00204F
:101CB00010BD38B5054601F07DF92846FFF7EAFF6B
:101CC000040009D000F0F2F82A460021009003F049
:101CD000ECFB684600F054F902F0FAFC204638BDEF
:101CE000024A106021F0030050607047E085002038
:101CF00010B5040016D001F05DF90B48406B10F8E8
:101D0000341059B1022909D2042101EBC401415810
:101D1000486808F0BDF820460BF0CEFFBDE8104043
:101D200002F0D6BC10BD000020850020002805D0A0
:101D3000034AD16B016001B14860D0637047000075
:101D40002085002010B5044601F034F92068FFF723
:101D5000CFFF00202060BDE8104002F0B9BC0000B9
:101D600070B50D460646002405E000BF06EB840072
:101D7000FFF7E8FF641CAC42F8DB70BD2DE9F041D1
:101D800004460BF027FB2848E41C24F00305016CF3
:101D90002D1DA94200D90D46C46B13E054F8042C44
:101DA000AA420ED184B1216809B162684A606168B3
:101DB00009B122680A60C26BA24231D12168C163B5
:101DC0002EE02468002CE9D18046816BC0680F1892
:101DD00057F8040C3E1A306838B100200BF0D6FFDB
:101DE00057F8040C3E1A3068D0B97068A84217DB67
:101DF0003044441B3046241D0BF080FFD8F80C10F3
:101E0000491BC8F80C10D8F814102944C8F814104D
:101E10007068401B02D0314608F03AF844F8045C80
:101E20002046BDE8F08100002085002010B5002488
:101E30000BF0D0FA0C490F2001EBC002526C1AB122
:101E400001EBC000406C08E0401EF5D508E0416899
:101E5000A14200D90C46806810B180680028F6D1F4
:101E6000A4F10C0010BD000020850020034800688C
:101E70000C38002800DC002070470000208500207E
:101E8000002138B10449042202EBC000496B085814
:101E900041680C3908467047208500200248816956
:101EA000491C816170470000208500200549CA69EE
:101EB000521CCA61496B01EBC0010A78521C0A70BE
:101EC00000F076B8208500207CB506460C46084612
:101ED000FFF7E0FE050020D0FEB13046FFF7D0FF4F
:101EE000A04200DA044601F065F82846FFF7DEFF5D
:101EF00000903046FFF7DAFF014601902246009835
:101F0000FEF714FA684600F03BF801A800F038F834
:101F10003046FFF7EDFE02F0DBFB28467CBD0000FB
:101F200010B501F047F8FFF781FF64220849B0F5CA
:101F3000800F04D990FBF2F4086A444303E0096A75
:101F40004143B1FBF2F402F0C3FB204610BD000098
:101F5000208500200549102805D94A68B0EB520FAA
:101F600002D3500800E0102088607047E085002010
:101F700002488169491E8161704700002085002068
:101F80000A4902684B6B52F8082C03EBC202137823
:101F9000022B03D3CB690BB15B1ECB611178491EB9
:101FA0001170002101600846704700002085002064
:101FB000002806D00349042202EBC000496B0858F0
:101FC000083070472085002070B50C46054601F0AA
:101FD00027F8C1B223462846BDE87040002200F031
:101FE00001B80000F0B52D271C68B0F1004F08D0F3
:101FF000002600280DDA651C1D6027704042012470
:1020000008E0651C01261D606FF000402770491E26
:1020100001E00024091BC9B22AB3491EC9B222E05B
:102020000C46491EC9B2944205D1124C27781C684F
:10203000651C1D602770104C54F8215090FBF5F47E
:10204000E4B20A2C11D804FB150011B90EB1641CBE
:10205000E4B20A2C02D10124491CC9B21D686F1CCC
:1020600030341F602C700029DAD119680020087004
:10207000F0BD0000EC0000209860010810B50028B9
:1020800007DD0A682B24531C0B60147009680022BA
:102090000A7010BD70B514460D46064600F08AFF62
:1020A000204600F0D9FE0300174804EB840109D054
:1020B00050F8210041688068711A2A1A184601F008
:1020C0008BFC1CE000EB8104A268B24201D001222B
:1020D00000E00022E368AB4201D0012300E00023CE
:1020E0001A430CD0236943B150F82100816840683D
:1020F0006A1A311A184601F0F3FBC4E90265BDE81B
:10210000704002F0E5BA00005C86002010B5C2B253
:10211000CBB2D21A00D5524293B25B43C0F307222E
:10212000C1F30724121B00D55242000C92B2A0EB5F
:10213000114002FB023200B2002801DA404200B234
:1021400080B200FB002010BD10B50021084600F051
:10215000EFFE43F6FF725042BDE8104013460146C1
:10216000AFF300802DE9FC411C4615460E4607469C
:1021700000F020FF042004F0D1F880461248C06827
:10218000C16C006D0F4406440D440444ADF800706A
:10219000ADF80450ADF80260ADF80640684607F0AF
:1021A000DDF907E023462A463146384603F062FD52
:1021B00007F096F90028F5D1404604F0AFF802F098
:1021C00087FABDE8FC810000EC0000202DE9F8430F
:1021D0001C00DDE9089816460F46054602D106F0B8
:1021E00019FA044600962E6843464A462146284678
:1021F000B047061E39D006F002FA8146698A304699
:1022000005F07AFE304607F042F8484607F03FF8FE
:102210004FF000080CE000BFCDF8008055F81CCF4F
:1022200000231A4649462846E04700B307F02FF836
:102230007F1E002FF0DC1D21484606F0D2FE601CF8
:1022400012D000F0B7FE06F019FA30B1FFF7B0FE79
:102250008469B44201D02000F8D1B44202D03046A3
:1022600006F07CFF02F034FA3046BDE8F8833046D1
:1022700006F0D8F80020F8E72DE9F0411C46164694
:102280000D460746022B02DB0020BDE8F0811C2032
:10229000FFF774FD0028F8D00DB105610AE0094A86
:1022A00052F8241009B905E011460A68002AFBD14A
:1022B0000969016184618682002101604160C0E991
:1022C0000217E2E71801002070B51D46FFF7D4FFA2
:1022D000040009D000F00EF8E068006820B9034857
:1022E000006800EB85008465204670BDF800002082
:1022F000FFF71CBD70B590B38269022A30DA1E4C1C
:1023000054F8221019B944F8220032E019464B68FB
:10231000002BFBD106E0CB68C5681B682D68AB427B
:1023200003DD09680029F6D11AE0C1B1CB68C6689F
:102330001B683668B3420CD1838A012B05D008E0B4
:102340001946DB681B68AB4203DB0B68002BF7D137
:1023500029B14B6833B118604A68426004E0FFE776
:10236000012070BD44F822004860884200D100215D
:102370000160002070BD00001801002010B503E0CE
:102380000468FFF7B7FF20460028F9D110BD000010
:1023900010B50B4B8169002253F82140844204D1CF
:1023A000046843F8214001684A60416809B1036844
:1023B0000B60016809B143684B600260426010BD68
:1023C0001801002000207047022801DB0020704720
:1023D000054951F8200004E0C16809680029F6D0D9
:1023E00000680028F8D17047180100202DE9F84353
:1023F0001D461646884604000CD0FFF757FD009096
:10240000006807686846FFF7BBFD2B463246414629
:102410002046B847BDE8F8832DE9F041044602F0B4
:102420009DF906191EE000BF00F066FB052F00DDD8
:10243000052700F0BFFD11480568FFF72FFD2C00B0
:1024400017D000BF02F044F9641EFBD1384602F0F9
:1024500075F91DB100F0AEFD6D1EFBD1FFF788FDD3
:1024600002F036F902F07AF9371A002FDCDCBDE809
:10247000F081384602F062F9F0E70000180400200D
:102480001FB503A9CDF80CD0FFF79EFD684600F0FC
:1024900001F81FBD2DE9FC4706005FD000F08AFD62
:1024A00000F0E4FC3C4C81462068B0F9228000F04A
:1024B0000FFD216807468A8CD01B888441E000BF4D
:1024C00047F6FF71304602F00BFE82460146304669
:1024D00002F0DCFD2168054691F82C0000F00300B5
:1024E000012841D002283BD000204A8C101A488491
:1024F000ADF800006A1E1044ADF80400888CADF8F9
:102500000200A9F101010844ADF806006A465146EF
:10251000304602F0B3FA2168BDF8020088845146C3
:10252000304601F0C3FF064430780A281ED00D283B
:102530001CD0BDF80000216828444884307818B1C8
:10254000761C30780028BBD12068818C3944818486
:10255000818D21F00301818502F0BAF8BDE8FC8786
:1025600005EBD5704010C0E72846BEE7206890F81C
:102570002C1001F0030101290BD0022909D0018C94
:10258000418431780A29D9D1828C02EB09018184F6
:10259000D4E7A0F82280F4E7F800002070B51446D4
:1025A0000D46064600F006FD054800684584848413
:1025B0003046FFF76FFFBDE8704002F089B80000B9
:1025C000F80000202DE9F04107460A4815460E465E
:1025D0000068B0F92C0040F0020001F049FA04460E
:1025E0002A4631463846FFF7D9FF2046BDE8F0417C
:1025F00001F03EBAF800002047F6FF73AFF3008009
:102600002DE9FC411F4690460D4606004FF00004A0
:102610001AD000F0CFFC65B1284606F019FE040080
:1026200007D002462946684602F0C7FD684606F014
:102630000FFE3B4642462946304602F077FA2046D6
:1026400006F006FE02F044F8BDE8FC812DE9FF4FDC
:1026500087B09046894607007ED000F0ABFCD9F8E1
:102660000040D9F8045021B228B2401A401C029010
:1026700000F0FCFB064618F00C0F1ED038460A9AF4
:10268000029902F02FF808F00C01042904D008295F
:1026900002D00C2911D104E0291400FB1610401CB3
:1026A00009E02114C1EB254200FB1620401C00EB81
:1026B000D07001EB600060F31F44484606F0C8FD8F
:1026C0005FEA000B09D00246494604A8CDE904455B
:1026D00002F073FD04A806F0BBFDA6F1010A38461E
:1026E0000A9A029902F0B0FE03900AEB244060F3CC
:1026F0001F45CDE900453846039902F0C7FC18F0A4
:1027000003010FD001292DD002290FD1B9F90420DE
:10271000B9F90010521A101A401C00EBD07001EBEE
:10272000600001E0B9F80000ADF800006A463846E4
:10273000039902F0A3F938460A9A029902F07AFE48
:10274000074406EB244060F31F4438780028C6D1C4
:10275000584606F07DFD00E001E001F0B9FF0BB046
:10276000BDE8F08FB9F80410081A401CDCE700003F
:102770001CB50A460146684602F011FE00F01AFC3C
:102780002548BDF80010006830F84C2F1144ADF812
:102790000010BDF8021082881144ADF80210BDF897
:1027A000041002881144ADF80410BDF806108088AA
:1027B0000844ADF80600684606F0D0FE27E000BFEA
:1027C000BDF900400BE000BFBDF90210204603F048
:1027D000BDF9BDF90610204603F0B8F9A41CBDF9F7
:1027E0000400A042F0DABDF902400AE0BDF90000A1
:1027F000214603F0ABF9BDF90400214603F0A6F928
:10280000A41CBDF90600A042F0DA06F069FE00281B
:10281000D6D101F05DFF1CBDF80000202DE9F04F7E
:1028200087B09B46DDE9109892460C46054600F0BD
:10283000C1FB16480168C86C096D47190E1900EBF9
:102840000A0501EB0B04ADF81070ADF81450ADF8AB
:102850001260ADF8164004A806F080FE88B1DFF8DB
:1028600030B04FF0000ACDE90098CDE902BA2B460E
:1028700022463946304609F0E9F806F031FE0028D4
:10288000F1D101F025FF07B0BDE8F08FF80000207E
:10289000B55B00082DE9FF4F87B09346DDE9159839
:1028A0000C460546DDF850A000F084FB1648016890
:1028B000C86C096D471900EB0B050A980E190C1826
:1028C000ADF81470ADF81850ADF81660ADF81A40B8
:1028D00005A806F043FE90B14FF0010B0B49CDE97E
:1028E00000A9CDE9028123462A46CDF810B0314631
:1028F000384609F055F906F0F3FD0028EED101F055
:10290000E7FE0BB0BDE8F08FF8000020F55A000894
:102910002DE9F04F87B09B46DDE9109892460C46B2
:10292000054600F047FB16480168C86C096D471959
:102930000E1900EB0A0501EB0B04ADF81070ADF8B1
:102940001450ADF81260ADF8164004A806F006FE6B
:1029500088B1DFF830B04FF0010ACDE90098CDE939
:1029600002BA23462A463146384609F06FF806F087
:10297000B7FD0028F1D101F0ABFE07B0BDE8F08F44
:10298000F8000020F55A00082DE9FC4114460D46D8
:10299000064600F00FFB114F3968C86C096D0544FD
:1029A00004440E44ADF80050ADF80440ADF80260A8
:1029B000ADF80660684606F0D1FD08E038682246AA
:1029C0003146406E03682846984706F089FD002886
:1029D000F4D101F07DFEBDE8FC810000F80000208C
:1029E0002DE9F0411C4615460E46074600F0E2FA76
:1029F0000C480168C86C096D074405440E440C443A
:102A0000002006F0ABFD07E023462A463146384653
:102A1000FEF7C3FB06F064FD0028F5D1BDE8F041E8
:102A200001F056BEF80000202DE9FC411C46164678
:102A30000D46074600F0BEFA1A480168087ECA6CC7
:102A4000096D17440D440C44401E391A1644ADF864
:102A500000103118ADF80410291A2044ADF8060012
:102A6000ADF80210684606F079FD15E032462946B9
:102A7000384603F03FF832462146384603F03AF82C
:102A8000621E691C384603F095F8621E691C3046C8
:102A900003F090F806F024FD0028E7D101F018FEBD
:102AA000BDE8FC81F80000207CB514460D460646C2
:102AB00000F080FA0F480068C16C006D0E440544B8
:102AC0000444ADF80060ADF80460ADF80250ADF814
:102AD0000640684606F042FD06E02246294630469A
:102AE00003F068F806F0FCFC0028F6D101F0F0FDD8
:102AF0007CBD0000F800002010B5002400E0012497
:102B000000F004F80028FAD1204610BD094810B59D
:102B10000068002410B1804700B1012405F0FAFCE0
:102B200000B101240448006810B1804700B10124BD
:102B3000204610BD040100202001002070B516467B
:102B40000C46054600F036FA0B480068C16C006D73
:102B50000D440444002006F001FD06E03246214603
:102B60002846FEF79FFC06F0BBFC0028F6D1BDE826
:102B7000704001F0ADBD0000F80000202DE9FC47D9
:102B80001D4616468846814600F014FA164C206809
:102B9000C16C006D0E440544002006F0DFFCF0B16E
:102BA000124F20681121407C57F820000190C06826
:102BB000426A01A890475FEA000C06D033464246BD
:102BC000494600950198E04705E02B4632464146CC
:102BD0004846FEF7C5FC06F083FC0028E1D101F071
:102BE00077FDBDE8FC870000F800002018010020F8
:102BF0002DE9FC411C4615460E46074600F0DAF961
:102C000010480068C16C006D0F4406440D44044434
:102C1000ADF80070ADF80450ADF80260ADF80640B4
:102C2000684606F09BFC07E023462A4631463846B4
:102C300003F020F806F054FC0028F5D101F048FD1F
:102C4000BDE8FC81F80000202DE9F04F87B01C465C
:102C500015460E46074600F0ADF92F48016802A858
:102C6000CA6C096D02EB070A02EB05090E4401EB81
:102C70000408ADF808A0ADF80C90ADF80A60ADF806
:102C80000E8006F06BFCE0B3A8EB0600401C05903C
:102C9000109C0598B0EB440F32DBA9EB0A00401CF6
:102CA000B0EB440F2CDB04FB04F02746354606EB63
:102CB000040B04901AE0049807FB170002F039FC9B
:102CC0000AEB0401091A0191A9EB04010844024628
:102CD00000902946019802F00DFFDDE90020A91BB4
:102CE000A8EB010102F006FF6D1C7F1EAB45E2DA86
:102CF000A8EB04034A46294650465B1E02F0BAFF81
:102D000000E003E006F0ECFB0028C1D101F0E0FC9C
:102D100007B0BDE8F08F0000F800002008B50B46B2
:102D2000002805D0009281888268C08800F001F8F0
:102D300008BD10B50828029C30D008DC04FB01F463
:102D400001280AD0022813D0042804D11CE010283E
:102D500028D020282CD0002010BD04EBD30003F095
:102D60000701105CC1F10701C84000F0010010BD6F
:102D700004EB93000621105C01EA4301C1F1060156
:102D8000C84000F0030010BD04EB5300D907105CED
:102D900002D000F00F0010BD000910BD04FB01308F
:102DA000105C10BD481004FB003032F8100010BD5C
:102DB000881004FB003052F8200010BD034951F880
:102DC0002000C1688A6A082110470000180100200D
:102DD00010B500F0EFF802F0F7FF03F09FF804469B
:102DE00001F076FC204610BD10B5044600F0E2F874
:102DF000054800210068C0694268204690470446A3
:102E000001F066FC204610BDF800002070B50C46AD
:102E1000054600F0CFF8064821460068C0694268C0
:102E200028469047044601F053FC204670BD000040
:102E3000F8000020002801D005F0BEBB704710B597
:102E400000F0B8F802F0C8FF03F068F8044601F09B
:102E50003FFC204610BD00000021022802D202499A
:102E600051F82010084670470404002010B500F007
:102E7000A1F804480068C069447E01F029FC20469E
:102E800010BD0000F800002070B515460E4604463F
:102E900000F090F82A463146204602F0D1FF0400A7
:102EA00002D000203060286001F012FC204670BD86
:102EB00070B50C46054600F07DF82146284602F024
:102EC00039F9BDE8704001F003BC01F047BC0000D7
:102ED00010B5002400F06EF80B48006890F82C1034
:102EE00001F00C01042904D0082906D00C2907D1CF
:102EF00003E0C069047E641E02E0C069007E4408ED
:102F000001F0E6FB204610BDF8000020407E70472F
:102F1000024951F82000006900687047180100203C
:102F2000024951F8200000694068704718010020EC
:102F300070B50D46044600F03DF820460AF032F91F
:102F4000044628460AF036F9044301F0C1FB204646
:102F500070BD000070B501F0C1FC144D2E2028702A
:102F600001F002FC12480AF0E7F902F0FDFF064604
:102F700002F08EFF10B102F09FFF38B902F0A5FFFA
:102F8000044602F08EFF214603F0C2F900210846F4
:102F900000F040FD05F0D6FDFEF728FE286900B1DF
:102FA000804701206870304670BD0000EC000020B2
:102FB000EC85002070B5184CE06820B101F0CBFB27
:102FC0006168884204D001F0D1FB01F0C4FB60606D
:102FD000E068401CE06001281CD10AF069F8054651
:102FE0002068854216D0002813DBFFF7EBF9014675
:102FF0002068C0EB0012206900EBC2025167C5EBEC
:103000000511064A00EBC100011D1160406FFFF77A
:10301000B5F9256070BD00000C040020F800002008
:1030200010B5011E01DD024600E04A42064B0120B8
:1030300053F82040944202D8401C0A28F8DB0029AB
:1030400000DA401C10BD0000986001081CB50400A7
:1030500004D10E480068046E002C16D0FFF7AAFFBA
:103060002046FEF723FF009044696846FEF788FF7C
:103070004CB12046FEF71AFF0190816889688847A5
:1030800001A8FEF77DFF01F023FB1CBDF800002026
:1030900001490A4600F002B801F0FFFF2DE9F043B4
:1030A00087B015460C465FEA000846D0FFF782FF5E
:1030B000002000F075FC814621480068066E4046FD
:1030C000FEF7F4FE00900068806900F031FC0746CE
:1030D00040F6FF70C44204D10098B0F90440B0F942
:1030E00006500098611E0289ADF804401144ADF805
:1030F00008104189681E0844ADF80650ADF80A0072
:1031000005F01AF86846FEF73BFF01A806F026FA1C
:1031100006E02A462146404600F0D0FA06F0E0F9E3
:103120000028F6D1384600F003FC304600F090F954
:10313000484600F035FC01F0CBFA07B0BDE8F0835B
:10314000F80000202DE9FE4F984691468A468346B6
:1031500000270C9EFFF72EFF184819490068407C95
:1031600051F82040E1680968042903D02468002C44
:10317000F8D100E01CB9FFF727F9041E1BD0E06866
:103180000121C26A20469047050011D02469A06839
:103190008047401C02D10B4C46F001060096CDE959
:1031A000015443464A465146584600F0E5F9074661
:1031B00001F08EFA3846BDE8FE8F0000F8000020CE
:1031C0001801002090A7010838B504001CD0FFF7B3
:1031D000F1FE0E480068006EA04201D100F09AFB9B
:1031E0002046FEF763FE0090406908B101F059FAED
:1031F00000980068FFF77CF86846FEF7C1FE20469D
:10320000FEF776FD01F064FA38BD0000F8000020FA
:103210002DE9FF4F83B09A468B460746FFF7CAFE5B
:10322000DFF83891D9F80000447C4D480057012858
:10323000204606DD02F032FE0546204602F042FE40
:1032400005E002F013FE0546204602F015FE044696
:103250001FB302A901A8FFF72BFEB7F90000002851
:1032600000DA0020B7F902608046002E00DA00265E
:1032700001984119B7F90400491E0AF0DEF9054624
:1032800002980119B7F90600491E0AF0D6F9A5EB14
:103290000802841B521C641C03E04FF000084646E1
:1032A0002A46BAF1000F01D1C4F1000A002A51DD0B
:1032B000002C4FDD10980090534631464046FFF7F2
:1032C00041FF5FEA000A10D000F07CF80746A042F8
:1032D00006D0D9F80000806C10B1322106F0E4FC71
:1032E000504600F0B5F8002523E059460598884778
:1032F00001F0EEF9012007B0BDE8F08F611BB94283
:1033000002DA504600F088F83DB172194146504645
:1033100000F0C6F85046FFF799FE594605988847D1
:103320001048016809B1002088475046FFF7B0FEF9
:103330003D44A542E2DB5046FFF746FF002000F087
:1033400087F8A74206D0D9F80000806C10B133216D
:1033500006F0AAFC01F0BCF90020CCE7F800002040
:10336000340100207404002038B505004FF000043B
:1033700011D0FFF71FFE2846FEF798FD0090006869
:1033800000698068804703F077F904466846FEF7D5
:10339000F7FD01F09DF9204638BD38B504000ED088
:1033A000FFF708FE2046FEF781FD00F118040090AB
:1033B0006846FEF7E5FD01F08BF9204638BD002098
:1033C00038BD000038B504460025FFF7F3FD1CB9F1
:1033D00008480068046E44B12046FEF767FD00907F
:1033E000B0F90A506846FEF7CBFD01F071F92846A6
:1033F00038BD0000F800002070B5054600242846BE
:1034000007F068F8641C18B1BDE8704000F07AB8A5
:10341000052CF4DB70BD000038B50C46050004D166
:103420000A480068056E002D0FD0FFF7C3FD28463F
:10343000FEF73CFD0090B0F90A10A14200DD448186
:103440006846FEF79DFD01F043F938BDF800002005
:10345000F8B50546FFF7AEFD104E3068046ECDB1ED
:103460000CB100F057FA04F095FF2846FEF71EFD58
:10347000009031680D660068FEF73CFF6846FEF775
:103480007FFD02F0A9FF02F023FF00BF01F020F949
:103490002046F8BD00F03EFAF8E70000F8000020F2
:1034A0007CB515460E46040004D115480068046E2C
:1034B000002C24D0FFF77EFD2046FEF7F7FC2DB24E
:1034C0000090C58034B2848002F002FF0098406909
:1034D00080B1FEF7EBFC009A0190B2F908108180F0
:1034E000B2F90A20C28011B10AB10480458001A856
:1034F000FEF746FD6846FEF743FD01F0E9F87CBDA6
:10350000F800002001490A4600F002B801F0FFFF70
:103510007FB515460C4606002DD0FFF74BFD304613
:10352000FEF7C4FC40F6FF710190CC4203D1B0F924
:103530000440B0F906500289611E1144ADF80840FC
:10354000ADF80C104189681E0844ADF80E00ADF8C6
:103550000A5001A8FEF714FD02A805F0FFFF06E0DF
:103560002A462146304600F091F805F0B9FF0028C0
:10357000F6D101F0ADF87FBD2DE9FF4FDFF8E8B0DF
:1035800083B01C46DBF80010DDE9106092464FF076
:1035900000084B7C42461299FEF76EFE050060D093
:1035A00028698068804703F067F881460AFB09F1C3
:1035B000C91DCF08FEF7B4FCF10705D1C11700EB18
:1035C0009170801000EB4000002C09DC1FB118380E
:1035D000B0FBF7F000E000206442A04200DC0446AB
:1035E000F00707D10090DDE903012346524600F0C1
:1035F000DDFF8046002C03DC2846FEF779FE30E034
:1036000004FB07F01830F10702D0FEF743FB01E09E
:10361000FEF74FFB06001CD0FEF748FC019005604A
:10362000039981800499C180A0F808A04481C0F862
:103630001480C0E9037901A8FEF7A2FC1298AE60DD
:103640002861DBF80000407CA861304607B0BDE887
:10365000F08F2846FEF74CFEB8F1000001D0FEF7CF
:1036600047FB0020F2E70000F8000020054B30B4D3
:103670001B68054C5B7C54F823301B6930BC0BF095
:10368000BBB90000F800002018010020F8B515466D
:103690000E460746FEF70AFC009000681621C06837
:1036A000426A0020904704466846FEF769FC002CF9
:1036B00003D02A4631463846A047F8BDF8B516462D
:1036C0000F46050012D0FEF7F1FB009044696846F2
:1036D000FEF756FC2846FFF747FE0346082800DDA4
:1036E0002CB13246394628460BF046FAF8BD324630
:1036F000394628460BF0E0FBF8BD10B5002821D074
:1037000009B30AB3B1F90040B2F900309C4200DAC3
:1037100023460380B1F90240B2F902309C4200DA3C
:1037200023464380B1F90440B2F904309C4200DDE5
:1037300023468380B1F90610B2F90620914200DCDD
:103740001146C18010BD11460A6802604968416097
:1037500010BD00280BD003880B44038083881944D4
:103760008180418811444180C1881144C1807047E3
:1037700070B50E4D0446D5E90001884209D10C49C7
:10378000884201D13C3000E00C3807C884E80700CB
:1037900006E090E80E0084E80E0009F021FD2860A4
:1037A000207A002800D0012070BD0000F003002026
:1037B000308700200448D0E90010814201D1012067
:1037C0007047002070470000F003002010B5094941
:1037D0000446086820B908480860084601F0ECFD76
:1037E00007490648086020460AF072FFBDE810400D
:1037F00000F05EB9FC03002011D80008998700088A
:103800002401002070B50025FFF7D4FB094CD4E952
:10381000002082420AD0D2E90056104609F0EAFCA4
:1038200020603146284605F0D3FA012500F050FF0C
:10383000284670BD440100202DE9FC41154DDDE90D
:1038400008742D68B5F90860864200DD3046B5F988
:103850000C60964200DA3246824219DBB5F90A6002
:103860008E4200DD3146B5F90E509D4200DA2B46FE
:103870008B420DDB00E02C46E5682D6825B1042D58
:1038800002D02568002DF6D1CDE9007402F00AFCC3
:10389000BDE8FC81F8000020B0F90220B1F9063043
:1038A0009A4213DCB1F90220B0F906309A420DDCDD
:1038B000B0F90020B1F904309A4207DCB1F90010E8
:1038C000B0F90400814201DC0120704700207047FC
:1038D0000146024870220068FCF7AFBDF8000020E6
:1038E00070B515460E4604000AD0FFF763FB2A4662
:1038F000314620460AF048FCBDE8704000F0E8BEC2
:1039000070BD0000024970220968FCF796BD0000F6
:10391000F800002010B5FFF74DFB02F08FFC02F01D
:103920005BFD04F009FCBDE8104000F0D1BE0000D2
:1039300070B50B4D04462868467CFFF73BFB022C14
:1039400009D22046FEF740FD28B128684474FFF7ED
:10395000E1FF0448046000F0BBFE304670BD00008B
:10396000F80000204803002010B50446FFF722FBB2
:10397000204602F083FCBDE8104000F0A9BE10B55F
:103980000446FFF717FB204602F0B0FCBDE81040EC
:1039900000F09EBE0149886070470000EC000020E6
:1039A00010B50446FFF706FB204602F0B7FC0446BC
:1039B00000F08EFE204610BD70B50446FFF7FAFAFF
:1039C00004480068C56904B1C46100F081FE28465E
:1039D00070BD0000F800002070B514460D46064684
:1039E000FFF7E8FA22462946304602F0B3FC0446C7
:1039F00000F06EFE204670BD70B50546FFF7DAFA9E
:103A000003480068847E857600F062FE204670BD23
:103A1000F800002070B50C460546FFF7CBFA0948C0
:103A2000224605800848048008480068417C084810
:103A300050F82100C1680B6A29469847BDE87040DC
:103A400000F046BE3C0100203E010020F8000020AE
:103A50001801002070B50546FFF7ACFA034800686E
:103A6000047E057600F034FE204670BDF80000208C
:103A700070B50446FFF79EFA04480068B0F92C5070
:103A8000848500F025FE284670BD0000F800002067
:103A900070B50446FFF78EFA04480068B0F92A5062
:103AA000448500F015FE284670BD0000F800002097
:103AB00002480068002800D0004770473C040020FE
:103AC00002498A6802B98860FFF7F2BF440100200A
:103AD0002DE9FC41984616460D460746FFF76AFA5F
:103AE0001C20FEF7E6F804002DD01C491A48086097
:103AF0002046FEF7DBF9009015B9FFF7E6F9054619
:103B000000980760C0E90465A0F80C806846FEF7DD
:103B100037FA204609F0E8FC114DA86840B90120A9
:103B2000A86005F10C010F480860084601F044FC4C
:103B30002046FEF7BBF90190296849B181602C60ED
:103B400001A8FEF71DFA00F0C3FD2046BDE8FC8188
:103B500000212C608160F3E7913B00080401002004
:103B60002804002039D8000810B504000ED0FFF753
:103B700021FA20460AF0DCF820460AF05BFE2046D7
:103B8000FEF7B6F8BDE8104000F0A2BD10BD000081
:103B90002DE9F04188B00025FFF70CFA184C676852
:103BA00025E000BFFFF791F906466068FEF77EF951
:103BB00001904169891B002915DC61680296049116
:103BC0000169039146686660D0F8008001A8FEF79D
:103BD000D7F902A84146884766B160680125B84216
:103BE00005D1002506E001A8FEF7CAF902E06068E9
:103BF0000028D7D100F06CFD08B02846BDE8F08160
:103C00002804002038B50C46050011D0FFF7D2F982
:103C10002846FEF74BF900908089204201D001240C
:103C200000E000246846FEF7ABF900F051FD00E02B
:103C30000124204638BD38B5040017D0FFF7BAF983
:103C40002046FEF733F90090FFF73FF90146009850
:103C50008269114441616846FEF792F920460AF0F4
:103C6000E9FD204609F040FC00F032FD38BD38B5D2
:103C70000C4605000BD0FFF79DF92846FEF716F914
:103C8000009084616846FEF77BF900F021FD38BDA5
:103C900038B50546002028600648046844B120462F
:103CA000FEF704F90090006928606846FEF768F99D
:103CB000204638BD2804002038B504004FF000002D
:103CC0000D46086011D02046FEF7F0F80090846899
:103CD00044B16846FEF754F92046FEF7E7F8009035
:103CE000006928606846FEF74BF9204638BD0000A1
:103CF0002DE9F04F97B01D461646894604464FF011
:103D00000008FE49DDF888B0DDF880A0C1F8008029
:103D1000CDF8408002282AD06A4603AB0BAF0DF1E4
:103D2000200C032C7DDB57D14FF000084FEA0C0725
:103D300055F828000CF0D4FD4DF828005AF828005A
:103D40000CF0CEFD03A941F8280059F828000CF02A
:103D5000C7FD0BA941F8280056F828000CF0C0FD5B
:103D600047F8280008F10108A045E1DBE6E06868B3
:103D70001F68C01B0CF0B4FD0446D9E90001081A05
:103D80000CF0AEFD21460CF0CDFCDD4C0546C4E93F
:103D9000000838460CF0A4FD29460CF0CDFD80F05B
:103DA0000040C4E90208DAE90071C81B0CF098FD74
:103DB0000546D6E90010401A0CF092FD29460CF099
:103DC000B1FC0546206138460CF08AFD29460CF00E
:103DD000B3FD80F00040B0E1002041464CF82010D7
:103DE00047F8201043F8201042F82010401C032808
:103DF000F4DB002760E000BF55F827000CF070FDF1
:103E0000119002990CF02CFC02905AF827000CF04B
:103E100067FD804605990CF023FC059059F82700B2
:103E200000E0BEE10CF05CFD13900D990CF018FC65
:103E30000D9056F827000CF053FD12900A990CF0E3
:103E40000FFC0A90119801460CF076FD00990CF0D9
:103E500007FC0090414611980CF06EFD01990CF0A2
:103E6000FFFB01900390414640460CF065FD04992C
:103E70000CF0F6FB0490139911980CF05DFD0B9972
:103E80000CF0EEFB0B90404613990CF055FD0C998D
:103E90000CF0E6FB0C90DDE911010CF04DFD0899EA
:103EA0000CF0DEFB0890404612990CF045FD099994
:103EB0000CF0D6FB7F1C0990A7429DDB029900986D
:103EC0000CF030FC0090059901980CF02BFC01904F
:103ED000DDE902100CF026FC0390DDE904010CF092
:103EE00021FC049002990B980CF01CFC0B90059996
:103EF0000C980CF017FC0C90029908980CF012FC2E
:103F00000890059909980CF00DFC099020460CF0DA
:103F1000E7FC0446214602980CF004FC029021467E
:103F200005980CF0FFFB059021460D980CF0FAFB6C
:103F30000D9021460A980CF0F5FB0A90059903981C
:103F40000CF0C6FD0646DDE9010134460CF0C0FD6B
:103F500021460CF0F1FC0446DDE904010CF0B8FD4B
:103F60000546029900980CF0B3FD29460CF0E4FCDC
:103F700021460CF0ADFD054610F0FF4F7ED0DDE987
:103F80000C01B04644460CF0A3FD814621460CF0DE
:103F9000D3FC0746DDE904010CF09AFD8246544645
:103FA0000D990B980CF094FD064621460CF0C4FCCC
:103FB00039460CF08DFD29460CF0B4FB504C2060C6
:103FC000DDE901010CF084FD0146149030460CF04F
:103FD000B3FC0646029900980CF07AFD0146159054
:103FE00048460CF0A9FC31460CF072FD29460CF055
:103FF00099FB60600C9900980CF09EFC06460B99AA
:1040000001980CF099FC31460CF062FD05990CF01A
:1040100093FC07460B9902980CF08EFC06460D990E
:1040200000980CF089FC31460CF052FD04990CF01C
:1040300083FC06460D9901980CF07EFC81460C9994
:1040400002980CF079FC49460CF042FD03990CF003
:1040500073FC31460CF004FB39460CF001FB294699
:104060000CF060FBA060DDE9090146460CF030FD74
:10407000804631460CF060FC064600E062E0D14626
:104080000A9908980CF024FD074649460CF054FCA8
:1040900031460CF01DFD29460CF044FBE06038462B
:1040A00014990CF049FC0646404615990CF044FC66
:1040B00031460CF00DFD29460CF034FB20610999C6
:1040C00000980CF039FC0646089901980CF034FC75
:1040D00031460CF0FDFC05990CF02EFC07460899C2
:1040E00002980CF029FC06460A9900980CF024FC72
:1040F00031460CF0EDFC049904E00000580100206A
:10410000008700200CF018FC06460A9901980CF074
:1041100013FC8046099902980CF00EFC41460CF005
:10412000D7FC03990CF008FC31460CF099FA39469B
:104130000CF096FA29460CF0F5FA1B496061012053
:10414000086001E0109860B3174C21980021C4E981
:10415000010B084609F00CFA0021E060084609F05E
:1041600031FA20612198ABF10101401E09F000FAFB
:1041700060612198ABF10101401E09F023FAA061B2
:104180006269E168914201DDE26061612169814219
:1041900001DDA1612061206818B1002017B0BDE8E1
:1041A000F08F0120FAE700005801002070B5174C8D
:1041B00006460D463268E16801208A421EDB296806
:1041C000236999421ADB63699A4217DCA26991421A
:1041D00014DC2946304600F0DBF800280ED13368A5
:1041E0000022002B01DA326004E061688B4201DBBF
:1041F000491E31602B68002B01DA2A6070BDA1686E
:104200008B42FBDB491E296070BD00005801002075
:1042100000B1014800F064B8AD41000870B5254C0C
:1042200086B06078F8B100F003F9E06000F0FEF8C5
:10423000E06803902069049000F03EF88DF80900D2
:1042400004A903A8FFF7B2FF0025B0B1A07870B3AE
:1042500060680090A06801908DF80850684600F0F2
:1042600057F8A57023E000F0EFF8206100F0DFF8C8
:104270006078401C607006B070BD039A6068111AC7
:1042800000D54942049BA068181A00D54042A67880
:1042900016B1084402280ADD62600092A36001267C
:1042A00001938DF80860684600F032F8A6706570DA
:1042B000E1E70000740100200148407A70470000E7
:1042C00078870020054910B591E81C0080E81C00A3
:1042D000087A002800D0012010BD0000F4860020DC
:1042E000014908607047000054010020074A002877
:1042F00006DB002904DB01231372C2E9000101E09F
:1043000000201072014800F003B8000078870020F8
:104310003EB504460C221149FBF799FF002813D043
:104320000F480E4D026882B194E80B008DE80B0037
:10433000684601A990479DE80E0085E80E00002818
:1043400002D16846FFF742FA3EBD2046FFF73EFA2B
:1043500094E8070085E807003EBD0000F4860020D1
:1043600054010020094B30B41A68821A00D5524219
:104370005C680C1B00D564422244022A04DDC3E9B8
:10438000000130BCFFF7B2BF30BC7047AC01002069
:104390002DE9F047054622480E460068E0B3D5F8FF
:1043A000008030680CF09CFA1E4C814661680CF06D
:1043B000C3FA074640460CF093FA804621680CF099
:1043C000BBFA39460CF04CF9A1680CF049F90CF035
:1043D0001BF9154F00223B460BF05CFD0BF00EFE67
:1043E0002860484621690CF0A7FA05464046E16876
:1043F0000CF0A2FA29460CF033F961690CF030F99F
:104400000CF002F900223B460BF044FD0BF0F6FDE8
:1044100030600020BDE8F087FFE70120FAE70000E8
:1044200058010020008700200000E03F70477047DF
:1044300010B50448006818B9D02003F0DDF910BDAC
:104440000020FCE70481214210B50448006818B937
:10445000902003F0D1F910BD0020FCE70481214237
:1044600010B50446FEF7A6FD044800680168204622
:104470008847044600F02CF9204610BD00010020BA
:104480002DE9F041084E0446056830680168284669
:104490008847074630684168284688472844206096
:1044A0003846BDE8F0810000000100202DE9F04110
:1044B0000C4606460025064F05E038684168304640
:1044C000884706440544641EF7D22846BDE8F081BB
:1044D000000100202DE9F0411E46069C1746884643
:1044E00005463A46A8687F1C3346D0F804C04146CA
:1044F0002846E047641EF4D1BDE8F08170B5B0F9FC
:104500000040091BB0F904408C422CDD00F114047A
:10451000B0F902500069521B02FB0040CA1800EBC0
:10452000E104521ED010B0EBE10501F007034FF09B
:10453000FF0102F0070221FA03F0C2F1070201FABB
:1045400002F1CEB221780FD001436D1E04F8011B99
:10455000002D05DDFF2229462046FBF7A0FF2C4455
:1045600020783043207070BD30400143217070BD11
:1045700010B5B0F90030B0F90240C91A00F11403C7
:104580000069121B02FB003000EBE10001F00703A1
:1045900002788021D9400A43027010BDB0F906109C
:1045A000026951431430FBF782BF00002DE9F84344
:1045B000804602F10F000011470003FB07F01C4684
:1045C000154689461430FDF774FB060018D0FEF737
:1045D000F1FC3046FDF76AFC0090A0F80080A0F8DE
:1045E00002908580C4800749816001218181076133
:1045F0006846FDF7C5FC00F06BF83046BDE8F8836F
:104600000020FBE71CB0010870B5B0F90660B0F9F6
:1046100004400B6800F1140596421BDD0069A342BB
:1046200002FB005000EBE30214DA641EE010A0EB82
:10463000E30512F8010B03F00704A040C4B206E042
:1046400045B1083312F8014B23F007036D1E002C0F
:10465000F6D004E0002070BD6006040E5B1C20064E
:10466000FAD5FF2C07D0184602E06406240E401C41
:104670006606FAD400E0D81DC443640705D006E0FE
:1046800012F8014BFF2C09D108306D1EF8D5C01A65
:10469000401C0B6070BD6206140E401C2206FAD44A
:1046A000F5E738B50546FEF785FC2846FDF7FEFB25
:1046B00000908189491E0CB284816846FDF760FC38
:1046C00014B92846FDF714FB00F002F838BD0000CD
:1046D0000348C168491EC16001D100F048B8704765
:1046E0000C0400202DE9F04116460F460546002433
:1046F000FEF760FC32463946284600F09BFE054432
:1047000008B1641CF6E7FFF7E3FF2046BDE8F0813F
:1047100010B54FF4F04100200BF064FB04464FF459
:10472000F0412046FDF7DCFA8020FDF713FC02483B
:10473000FFF730F910BD0000EC140108044A1268BC
:10474000111800BF024A12688A1A002AFADC704760
:10475000B800002070470020704700000148006842
:1047600070470000B80000207047704770477047DE
:104770000EB508B102AA00E00022002301A9684694
:1047800000F036FC0EBD0000074910B50C7818B1DA
:1047900001200870801E03E0002008706FF07F4049
:1047A00001F080F8204610BD3601002010B5082A1F
:1047B0000EDC0346012A18D0022A56D0042A76D0ED
:1047C00010F8042B03F8012B491EF9D1012010BD6C
:1047D000102A08DC4FEA000230F8043B22F8023BC2
:1047E000491EF9D1F2E7002010BD10F8042BD207C2
:1047F000120E491E34D010F8044B491E04F0010477
:1048000042EA84122CD010F8044B491E04F0010433
:1048100042EA441224D010F8044B491E04F001046B
:1048200042EA04121CD010F8044B491E04F00104A3
:1048300042EAC40214D010F8044B491E04F00104EB
:1048400042EA84020CD010F8044B491E04F0010423
:1048500042EA440204D010F8044B04F0010422435D
:1048600003F8012B0029C0D1B0E710F8042B920700
:10487000120E491E15D010F8044B491E04F0030413
:1048800042EA04120DD010F8044B491E04F0030450
:1048900042EA840205D010F8044B04F003042243DA
:1048A000491E03F8012B0029DFD18FE7FFE710F83D
:1048B000042B1207120E491E05D010F8044B04F009
:1048C0000F042243491E03F8012B0029EFD17DE795
:1048D00038B50024009400F01DF838BD0B4810B521
:1048E000016A002910D101210162FFF711FFFDF7D4
:1048F000AFF901F083FD0549054824310860BDE8A2
:104900001040084600F058BD10BD0000EC0000202B
:1049100039D700082DE9F0410D460699044601B942
:1049200001461F68082A09DC0E46012A1AD0022A0D
:104930005BD0042A7DD0082A13D18DE0102A07DC31
:10494000D3F810C00E46BCF1000F04D0022389E05A
:104950000020BDE8F08101CCB84726F8020B6D1E9F
:10496000F9D189E001CCB847C0074FEA10686D1E45
:1049700036D001CCB84748EA801000F0FF086D1E21
:104980002ED001CCB84748EA401000F0FF086D1E59
:1049900026D001CCB84748EA001000F0FF086D1E91
:1049A0001ED001CCB84748EAC00000F0FF086D1ED9
:1049B00016D001CCB84748EA800000F0FF086D1E11
:1049C0000ED001CCB84748EA400000F0FF086D1E49
:1049D00006D001CCB84740EA080000F0FF086D1E81
:1049E00006F8018B002DBDD146E001CCB847800709
:1049F0004FEA10686D1E16D001CCB84748EA001087
:104A000000F0FF086D1E0ED001CCB84748EA8000C8
:104A100000F0FF086D1E06D001CCB84740EA080040
:104A200000F0FF086D1E06F8018B002DDDD123E09C
:104A3000FFE701CCB84700074FEA10686D1E06D0AB
:104A400001CCB84740EA080000F0FF086D1E06F8E8
:104A5000018B002DEDD10FE0D3F810C0BCF1000F99
:104A600004D001232A462046E04705E001CCB847A0
:104A700006F8010B6D1EF9D101206AE77CB50646E8
:104A800028480D46006868B1002004F067FD06E084
:104A90006A462946304605F0EBFD04F021FD00286A
:104AA000F6D17CBD106800901F4C506801902268C0
:104AB000BDF8000032F84C1F0844ADF80000BDF806
:104AC000020091880844ADF80200BDF80400118886
:104AD0000844ADF80400BDF8060091880844ADF81C
:104AE0000600684604F03AFD0EE000BF2068BDF8FD
:104AF00000106A464184BDF8021081842946304680
:104B000005F0B6FD04F0ECFC0028EFD1206830F889
:104B1000221F428D891A01804188C28D891A4180E5
:104B20007CBD000038010020F80000202DE9FF4F77
:104B300085B09A4690460D46FEF798F94FF0000969
:104B4000DDF814B006464C4625B128680090686828
:104B5000019002E06846FEF76DF918F00C0F02D0E4
:104B60005546002713E0BDF902402DE029467F1C81
:104B7000059800F0B5FA01466D1A0598FFF796FC06
:104B800005990844059005A800F0EEFA08B9002D33
:104B9000ECD108F00C00042804D0082802D00C281E
:104BA00012D105E0BDF9060007FB1604641C0BE0FA
:104BB000BDF90600BDF90210401A07FB1600401CA3
:104BC00000EBD07001EB60045546CDF814B043E023
:104BD0002946059800F084FA07460146ED1B059822
:104BE00000F054FA18F003010ED0012939D002293F
:104BF0000DD1BDF90410BDF90020891A091A01EB85
:104C0000D17102EB610101E0BDF900108946174A3C
:104C1000401E484412683946A2F822909484ADF8A8
:104C20000C00A019401EADF80890ADF80E00ADF8CC
:104C30000A4002AA0598FFF721FF39460598FFF7B9
:104C400035FC059908440590FEF710F9044405A8C1
:104C500000F08AFA002801D1002DB9D109B0BDE8D1
:104C6000F08FBDF90410091A491CCFE7F8000020A5
:104C70002DE9FF4F8DB00020DDF86CA016460090A6
:104C80001D4604460246CAF8000008AB03A902A864
:104C900000F0AEF918B1002011B0BDE8F08F08980F
:104CA000854200DD0546614F0B9561493868407CBF
:104CB00051F82010049109690691FEF77FF80590DC
:104CC0003868407CFEF72CF95A498146884204D066
:104CD0005949894501D0012000E000200A9001CE09
:104CE0001A9988478346000E079077D0009870BBCA
:104CF0000D9800EB04084D480068B0F908004045E5
:104D000003DDA0EB0807804600E000270298049925
:104D100000EB840000EB8700CDE900010B990D98B2
:104D2000421809920E9B40461946521EFEF784FD1A
:104D300001200090059818280ADA0298DDE9052379
:104D400000EB840000EB8700E91B00F0AFF812E0F5
:104D50000A9880B1029800EB840000EB870709985D
:104D6000A0EB080849463868884701C7A8F1010048
:104D70005FEA0008F6D13148C06980B3DDE9020777
:104D800000EB840007EB8402CDE902022B4C361FB6
:104D90003046E4692B460299A047FF213068B1EB09
:104DA000106F02D10298006804E0029A1268B1EB19
:104DB000126F01D1039A1060029806F10406001DDB
:104DC00002900398001D03906D1EE7D10397DAF857
:104DD000000040F00101CAF8001020E021E0FFE7E8
:104DE0000798FF2811D0C0F1FF02029850F8241054
:104DF000584600F07DFA039941F82400DAF80000E3
:104E000040F00101CAF8001005E00298039950F83B
:104E1000240041F82400641C6D1E7FF460AF0398E9
:104E20003AE7039941F824B0E8E70000F8000020D1
:104E3000180100203B5F0008395F0008A403002030
:104E40002DE9FF4F87B00C46DDE91698DDE914BA6D
:104E50000546FEF7AFF81448099A0168C86C096D59
:104E6000471985180E190A98ADF810700C18ADF88E
:104E70001450ADF81260ADF8164004A804F06EFBB3
:104E80000BE0CDE90298CDE900BA23462A46314627
:104E9000384607F04FF904F023FB0028F1D1FFF763
:104EA00017FC0BB0BDE8F08FF80000202DE9F05F93
:104EB0000C1E16DD5E68014600EB8405082A12DC34
:104EC000611E012A26D0022A47D0042A6AD0082A65
:104ED00007D1071917F8010DB04745F8040D641EF6
:104EE000F8D1BDE8F09F102AFBDC5F693FB1224694
:104EF000BC46BDE8F04F02235DF804EB604701EBD0
:104F0000440700BF37F8020DB04745F8040D641E92
:104F1000F8D1E6E700EBE10001F0070710F801A97E
:104F20008146802020FA07F8B5F104050AEA080056
:104F3000C7F10701C840B04745F804093FB14FEA3F
:104F400048604FEA10687F1E641EEFD1C9E719F868
:104F500001A907274FF00108F6E700EBA10001F0D7
:104F6000030710F801A981467900C02020FA01F852
:104F70004FF0060BB5F104050AEA0800ABEB470158
:104F8000C840B04745F804093FB14FEA88604FEA8E
:104F900010687F1E641EEFD1A3E7032719F801A94B
:104FA000B846F7E700EB6100012710F801A9A74315
:104FB0008146B900F02020FA01F84FF0040B2D1FB4
:104FC0000AEA0800ABEB8701C840B04745F804097E
:104FD0003FB14FEA08704FEA10687F1E641EEFD1A0
:104FE0007FE719F801A901274FF00F08F6E7000045
:104FF0002DE9F047224C06461F46A0699046894697
:10500000002540B90120A06104F128011D48086075
:10501000084600F0D1F9606930B91B48006860614A
:1050200010B900F026FF606107B138604EB1A0688A
:1050300030B960698000FCF7A1FEA06000B90125CD
:105040003060B9F1000F0AD0E06830B960698000C3
:10505000FCF794FEE06000B90125C9F80000B8F142
:10506000000F0AD0206930B960698000FCF786FE25
:10507000206100B90125C8F800002846BDE8F08786
:10508000A4030020E9D700082C01002073B5124AC0
:1050900001A900981268904700240090C8B10F49F8
:1050A00000250968C969496959B10A684AB1019975
:1050B00090477CBD6846FFF7E3F90546FDF794FE8F
:1050C00004440198401E0190F4D5284600F040F8B1
:1050D000044420467CBD0000EC030020F8000020C2
:1050E00073B50D460098002490B10A490968C96952
:1050F000496959B14A684AB1294690477CBD68461A
:10510000FFF7BEF920B10A2802D0641CAC42F6DBDE
:1051100020467CBDF800002031B50024009808B975
:1051200005E0641C6846FFF7ABF90028F9D120467A
:1051300038BD0000044AB2F9002002600348B0F90B
:1051400000000860704700003C0100203E01002084
:1051500038B5002469460094FDF758FE0099814255
:1051600000DD0C1A204638BD016811F8012B12B180
:105170000A2A02D002E00120704701600020704737
:10518000B0F90030B1F90020934200DA0280B0F9A2
:105190000230B1F90220934200DA4280B0F90430C3
:1051A000B1F90420934200DD8280B0F90620B1F904
:1051B00006108A4200DDC180704770B5B1F9004029
:1051C000B2F900309C4200DD23460380B1F9025061
:1051D000B2F90240A54200DD2C464480B1F90460DA
:1051E000B2F90450AE4200DA35468580B1F90610B6
:1051F000B2F90620914200DB1146C1809D4201DBDD
:10520000A14201DA002070BD012070BD01460248B4
:105210000068407C00F002B8F80000202DE9F84357
:1052200001268946044602285DDA304F7A6802B1C9
:1052300090472E4D5FEA090005F1100532D0012894
:1052400003D0B9F1020F4ED118E055F8240088B907
:105250002046FDF7B9F8009018B3C0680D21426AE6
:105260006846904702003ED049460098904755F85E
:1052700024000026401C45F8240034E02046FDF7B9
:10528000A3F8009068B1C0680D21426A6846904753
:10529000040028D0386800B1804749460098A047EC
:1052A000002620E055F82400A846012812D1204607
:1052B000FDF78AF8009068B1C0680D21426A68461F
:1052C0009047050006D0386800B1804749460098ED
:1052D000A847002658F8241009B1012200E0002256
:1052E000891A48F824103046BDE8F883D40300201A
:1052F00070B5FF23B3EB116F29D0C3B200F47F4523
:1053000000F47F04060E5343554354435643C2F101
:10531000FF00CAB202FB003201F47F4303FB0053DB
:1053200001F47F0505FB0044090E01FB0065C2F393
:1053300007204FF47F4101EA1322090201EA1421F8
:105340004FF07F43104303EA05430843184370BD01
:105350002DE9F04F0646DDE90CB915460C46002054
:105360008046584519D20B9F4FF0FF0A01CE08CC5A
:10537000AAEB106202FB09F2B2FBFAF1CAB21946BB
:10538000FFF7B6FF20F07F4001C57F1EEED10998E0
:1053900004EB800408F10100E2E7BDE8F08F0B8820
:1053A000134403808B889B1A83804B88134443806B
:1053B000C988891AC18070470249CA694260C861B8
:1053C00070470000EC0000202DE9F843076806460E
:1053D00088460025384600F0CBF840B3404600F040
:1053E000D7F8441C3846FCF74BFD84420CD1F4B18D
:1053F0003846FCF75BFD224641460090FAF796FFDF
:105400006846FCF7BDFD11E02046FCF743FC0400B4
:105410000DD0FCF74BFD41460090FAF744FF68467B
:10542000FCF7AEFD3046FCF78DFC346001252846C4
:10543000BDE8F88310B5044600F009F8014620469F
:10544000BDE81040FFF732B8002309F0B9BA77B5CC
:1054500081B015460E466B46019809F0B1FA044634
:1054600001460198FFF722F801990844019001A82C
:10547000FFF706F80A2802D0012D02D012E0641CC2
:1054800010E020280ED1FDF7AFFC054607E02844C8
:10549000009001A8641CFEF7F3FF202802D10098B9
:1054A0008642F4DA04B0204670BD10B502E000F880
:1054B000011B521E0AB18307F9D1930818D001EBE2
:1054C000014402F0030204EB042406E010C01B1F99
:1054D00010C040F8084B40F8044C042BF6DA01E009
:1054E00010C05B1E002BFBD102E000F8011B521E16
:1054F000002AFAD110BD10B5830702D520F8021B8F
:10550000521E530811D001EB0144042B09DB10C0DB
:105510001B1F10C0042B40F8084B40F8044CF6DA6F
:1055200001E010C05B1E002BFBD1D20700D0018030
:1055300010BD024600204FF080414318934201D82D
:10554000D21A581840088908F7D1704700B907A047
:1055500021B906A102E03AB1401C491C02780B783F
:105560009A42F8D0012070470020704700000000E8
:1055700038B50D46012448B1FCF798FC2946009047
:10558000FFF7E4FF04466846FCF7FAFC204638BD06
:105590004FF0FF3128B100BF10F8012B491C002A41
:1055A000FAD10846704700F5806000F001B80000AD
:1055B00010B50023C0F30B00B0F5006F02DD01232E
:1055C000A0F50060B0F5806F01DDC0F500608111CD
:1055D0000C4C00F03F00C0F1400234F81100504381
:1055E000402A08D0102906DA04EB4101C2F140023A
:1055F000498801FB020020308009002B00D0404286
:1056000010BD00009C0D0108F0B504460D462A208F
:1056100004F00CFC201204F013FCE0B204F010FCC7
:10562000201204F00DFCE0B204F00AFC2B2004F080
:10563000FDFB281204F004FCE8B204F001FC28127F
:1056400004F0FEFBE8B204F0FBFB2E2004F0EEFBBE
:105650000B4806880688304600F03AF906460848A6
:105660000788384600F034F9074606F4784006F01B
:10567000FC0140EAC10040EAE7263046F0BD0000E8
:105680000000026000BFFEE70EB502F021F9012024
:10569000FEF7BEFDF0204FF4C871054A054BCDE979
:1056A00000210290044A05490520FEF721FB0EBDAA
:1056B0009800002084000020700000205C00002082
:1056C00008B50121102001F06FFA4FF4E070ADF839
:1056D000000048208DF8030069460C48FCF74EF89E
:1056E0004FF46060ADF8000010208DF803006946AB
:1056F0000648FCF743F80120054908600549C1F850
:10570000A80103490831086008BD000000100140ED
:10571000A401224200002242024612B10120444B61
:10572000187043480078002866D00120414B18606B
:10573000414BC3F8A8013F4B08331860012158E0E2
:10574000012904D002290FD0032925D118E0012016
:10575000384B1B1D18600020374BC3F8A4010120F3
:10576000344B0833186018E00120324B08331860BE
:105770000020314BC3F8A80101202E4B18600CE02B
:1057800001202C4B186000202B4BC3F8AC010120EA
:10579000284B1B1D186000E000BF00BF25488C3857
:1057A000006838B123488838006818B12148843827
:1057B0000068E0B900201E4B18701E488C38006845
:1057C00018B9481E1D4B185C70471A488838006885
:1057D00020B9481E194BDB1C185CF5E715488438C6
:1057E000006820B9481E154B9B1D185CECE7481C4F
:1057F000C1B20429A4DB18E000200E4B18600E4B48
:10580000C3F8A801C3F8AC011846D0F81801012864
:105810000BD1084888380068012806D1054884382B
:105820000068012801D1024B18700020CCE700006D
:105830004E000020A401224200002242400000202D
:1058400070B5FF25154CB5EB116F1DD1C2F10002EB
:105850002468030E02EB02120CD0FF2B12D2FF328F
:10586000C2F1FF015943B1FBF5F1114461F31F602F
:10587000204070BD4FF07F4120F07F4001EB02617E
:105880000843F5E7084670BD054B02EB0212D2B2A1
:105890001B6898472168084070BD00004C04002038
:1058A000A403002002490A680860104670470000FF
:1058B0004C0400200449054A0968497C52F821102B
:1058C0000969096808470000F80000201801002055
:1058D00010B50146C1F34032CB0B084645F6FF74C4
:1058E000204040EA4334A0B240EAC23010BD00007C
:1058F0002DE9F04F05468DB07B48DDF860901A9C8D
:1059000000681E4617464FF0000A78B11B9B199A93
:10591000CDF808900593CDE90324DDE91623CDE900
:105920000023046833463A46284680E0DDE9160243
:1059300001EB060805EB070C1043A8F10108ACF1D8
:10594000010C012806D0C9F1080005900020029141
:105950000990C6E065480268B2F90A30581A002872
:1059600006DD361A002E63DD1946199B00FB034441
:10597000B2F90E00A8EB0000002802DD361A002E56
:1059800056DDB2F90C00ACEB0000002800DD3F1A38
:10599000B2F908300020AB4235DD581B3F1A4B46A8
:1059A000B9F1080F26D006DC012B0BD0022B11D049
:1059B000042B28D116E0102B1ED0182B1FD0202B23
:1059C00021D11CE020F0070304EBE0041D4400F0AB
:1059D000070018E020F0030304EBA0041D4400F0CE
:1059E000030010E020F0010304EB60041D4400F00C
:1059F000010008E0044404E004EB400401E004EB8F
:105A0000800405440020002F12DD1B9BDDF864C0DC
:105A1000CDE90403CDE90069CDE902C4527C3448E4
:105A20003B4650F82200C26854680A462946A047FF
:105A30000DB0BDE8F08F1799029808440C902B49DF
:105A4000401E00900A68B2F90A30834241DCB2F984
:105A50000E10029881423CDB4FF0000BD8460395B4
:105A60000A9434E0BBF1000F05D10A984FF0080BFF
:105A700010F801AB0A900599ABEB090B3AFA01F06B
:105A80000AFA09F101F0FF0A04D118490968097CF2
:105A9000890716D415490968C96B0A680B921B9AC5
:105AA0000AB152F82000086016990398009B42182A
:105AB000521E029900F0DEF80C490B980968C96B78
:105AC00008600399169808F1010808440390B84546
:105AD000C8DB0998401C09900C980290199804445E
