:020000040800F2
:10000000681A03201D0200087B780008795D00084B
:1000100077780008250F00087B900008000000009A
:10002000000000000000000000000000237F000826
:10003000BD130008000000002D7A0008A18300080D
:1000400037020008370200083702000837020008AC
:10005000370200083702000837020008370200089C
:10006000370200083702000837020008370200088C
:10007000370200083702000837020008370200087C
:10008000370200083702000837020008370200086C
:10009000370200083702000837020008370200085C
:1000A000370200083702000837020008370200084C
:1000B00037020008258600083702000837020008CA
:1000C000370200083702000837020008370200082C
:1000D00037020008898F000837020008370200083D
:1000E000370200083702000837020008370200080C
:1000F00037020008370200083702000837020008FC
:1001000037020008370200083702000837020008EB
:100110003702000837020008CD86000837020008C1
:1001200037020008370200083702000837020008CB
:1001300000F002F800F063F80AA090E8000C824496
:100140008344AAF10107DA4501D100F058F8AFF273
:10015000090EBAE80F0013F0010F18BFFB1A43F0A5
:1001600001031847E0F8020000F9020010F8013B13
:100170000A4413F0030408BF10F8014B1D1108BF17
:1001800010F8015B641E05D010F8016B641E01F8C5
:10019000016BF9D1002D15D010F8014B03F00C03C1
:1001A0000C2BA1EB04040ABF10F8013BA4EB831451
:1001B000A4EB032405F1010314F8016B5B1E01F8A5
:1001C000016BF9D5914238BF10F8013BD1D370478C
:1001D0000023002400250026103A28BF78C1FBD850
:1001E000520728BF30C148BF0B607047642900F038
:1001F0008580002070471FB51FBD10B510BD00F0F1
:1002000005FB1146FFF7F7FF15F016FD00F023FB85
:1002100003B4FFF7F2FF03BC15F0B6FC09488047B2
:1002200009480047FEE7FEE7FEE7FEE7FEE7FEE7D8
:10023000FEE7FEE7FEE7FEE704480549054A064BF0
:1002400070470000A58300083101000868100320F2
:10025000681A032068120320681203207047000008
:100260000FB41CB50C0007AA009001D02044401E1A
:10027000074B7B4469460190069800F040FA002C39
:1002800003D06946002000F04DFA1CBC5DF814FB59
:10029000B90400002DE9F0410E460446002020621A
:1002A0002046E168884730B3252805D0D4E90121EC
:1002B0009047206A401CF2E7E16820460027884703
:1002C000050018D0A5F14100192802D820354FF4B7
:1002D00000673246294620462760FFF787FF40B176
:1002E000012804D0F61D26F007060836D8E7361D8B
:1002F000D6E72846DAE7206ABDE8F0812DE9F0412B
:100300000646002410687529314616A510D0AFF3B3
:100310000080002802DA404213A507E031688A070E
:1003200001D512A502E0490704D511A5012401E079
:10033000AFF3008000210A2206F1240709E0B0FB98
:10034000F2FCB0FBF2F302FB1C003030785418468C
:10035000491C0028F3D123462A463046BDE8F04127
:1003600000F06EB9000000002D0000002B0000001E
:100370002000000040EA010310B59B070FD1042ABA
:100380000DD310C808C9121F9C42F8D020BA19BA60
:10039000884201D9012010BD4FF0FF3010BD1AB1C5
:1003A000D30703D0521C07E0002010BD10F8013B1A
:1003B00011F8014B1B1B07D110F8013B11F8014B41
:1003C0001B1B01D1921EF1D1184610BD40EA01035A
:1003D000024630B59B0710D14FF0013400E008C24F
:1003E00008C91D1B9D4315EAC41FF8D013F0FF0177
:1003F00002F8011B0DD01B0AF8E711F8013B002B96
:1004000002F8013B05D011F8013B002B02F8013B3B
:10041000F3D130BD10B5431C02E010F8011B71B1DF
:100420008107FAD14FF0013202C88C1A8C4314EACA
:10043000C211F9D0C01A0A0603D0C01E10BDC01ADE
:1004400010BD0A0401D0801E10BD0902FCD0401E60
:1004500010BD032A40F2308010F0030C00F015802C
:1004600011F8013BBCF1020F624498BF11F801CBB7
:1004700000F8013B38BF11F8013BA2F1040298BF1C
:1004800000F801CB38BF00F8013B11F0030300F086
:100490006780083AC0F0088051F8043B083A51F8E8
:1004A00004CBA0E80810F5E7121D5CBF51F8043B2F
:1004B00040F8043BAFF30080D20724BF11F8013BA2
:1004C00011F801CB48BF11F8012B24BF00F8013B04
:1004D00000F801CB48BF00F8012B7047431A28BF32
:1004E0009A427FF6B6AF032A1044114440F22680A8
:1004F00010F0030F1EBF11F8013D521E00F8013D20
:1005000010F0030F7FF4F6AF11F0030300F02A811F
:10051000083AC0F00B8051F8043D083A51F804CD78
:1005200040F8043D40F804CDFFF7F3BF121D5CBF57
:1005300051F8043D40F8043DAFF30080D20724BFDA
:1005400011F8013D11F801CD48BF11F8012C24BF6D
:1005500000F8013D00F801CD48BF00F8012C7047BC
:1005600010B5203AC0F00B80B1E81850203AA0E84E
:100570001850B1E81850A0E81850BFF4F5AF5FEA82
:10058000027C24BFB1E81850A0E8185044BF18C935
:1005900018C0BDE810405FEA827C24BF51F8043BDC
:1005A00040F8043B08BF7047D20728BF31F8023B30
:1005B00048BF11F8012B28BF20F8023B48BF00F8C4
:1005C000012B704702F0FF0343EA032242EA024292
:1005D00000F0F4B84FF0000200B51346944696467A
:1005E000203922BFA0E80C50A0E80C50B1F1200146
:1005F000BFF4F7AF090728BFA0E80C5048BF0CC0F4
:100600005DF804EB890028BF40F8042B08BF704751
:1006100048BF20F8022B11F0804F18BF00F8012BC3
:100620007047704770477047704710B500F0E6F8A4
:10063000006810BD10B5044600F0E0F8046010BD7D
:100640002DE9F0470D4699469246044600F12408EC
:100650000168880604D5E06921F01001216000E0FE
:100660000120A84201DD471B00E00027A1697A199B
:1006700002EB0900081AA0612078C00602D42046C7
:10068000AFF30080002608E0D4E901211AF8060043
:100690009047206A401C761C20624E45F4DB20788F
:1006A000C0060AD52046AFF3008006E0D4E9012158
:1006B00030209047206A401C2062381EA7F10107B5
:1006C000F4DC07E0D4E9012118F805009047206A1E
:1006D000401C2062281EA5F10105F3DC2046AFF383
:1006E00000802078000602D50220BDE8F0870120B6
:1006F000FBE7000001694A1C02610878704700B5F9
:100700008FB0CDE901310021059105497944CDE94A
:10071000031011466846FFF7BDFD0FB000BD000095
:10072000E5FFFFFF0A6802F8010B0A607047D1E994
:1007300000239A4202D2531C0B6010707047431A78
:1007400028BF9A427FF60CAF104410F0030F1144FB
:100750001EBF11F8013D521E00F8013D10F0030FBD
:100760007FF4F6AF103AC0F00A8010B531E91850A6
:10077000103A20E91850BFF4F9AFBDE81040530714
:1007800024BF31E9081020E9081044BF51F8043DA6
:1007900040F8043D12F0030F08BF7047D20728BF8E
:1007A00031F8023D48BF11F8012C28BF20F8023D66
:1007B00048BF00F8012C70474FF000020429C0F038
:1007C000128010F0030C3FF407AFCCF1040CBCF125
:1007D000020F18BF00F8012BA8BF20F8022BA1EBD5
:1007E0000C01FFF7F9BE5FEAC17C24BF00F8012BC2
:1007F00000F8012B48BF00F8012B704700487047F4
:100800000410032000487047041003207546FFF7CA
:10081000F9FFAE4605006946534620F007008546BD
:1008200018B020B5FFF708FDBDE820404FF00006E6
:100830004FF000074FF000084FF0000B21F00701C8
:10084000AC46ACE8C009ACE8C009ACE8C009ACE80B
:10085000C0098D4670470446AFF300802046FFF77D
:10086000D7FC2DE9F04107460D46164605F0D2FBB0
:100870002912A02242EA4101C8B205F09BFB05F013
:10088000F7FB20B105F0E0FB0020BDE8F081E8B205
:1008900005F090FB05F0ECFB18B105F0D5FB00204E
:1008A000F3E705F0B7FB2912A12242EA4101C8B2E1
:1008B00005F080FB05F0DCFB18B105F0C5FB00205E
:1008C000E3E700240CE005F051FB3855701EA04210
:1008D00002D005F053FA01E005F030FB601C84B251
:1008E000B442F0DB05F0B0FB0120CEE72DE9F04784
:1008F000074688469146454600243AE014B105F083
:100900000F0040BB05F0A0FB00260EE005F082FBC7
:100910002912A02242EA4101C8B205F04BFB05F0C2
:10092000A7FB00B904E0701C86B2B6F57A7FEDDB58
:1009300000BFB6F57A7F04D105F086FB0020BDE844
:10094000F087E8B205F036FB05F092FB18B105F030
:100950007BFB0020F3E7385D05F02CFB05F088FBFE
:1009600018B105F071FB0020E9E7681C85B2601C36
:1009700084B24C45C2DB05F067FB0120DFE70028AD
:1009800000DC40427047000010B515F001F940F658
:10099000B83015F01FF94FF4A06006F0A7FF06F07D
:1009A00061FD05F007FD00F03FFE06F08DFD0A48F1
:1009B00000680A49B0FBF1F0401E84B2214640F2C3
:1009C000E73007F053FE08F005F8002015F070FA44
:1009D00005F09CFA10BD00000400002040420F000A
:1009E00038B5456804460146284608F09BFB0028B8
:1009F0002BD02068304A11280DD006DC0B2825D0DA
:100A00000E2833D00F2852D112E0282849D0B0F553
:100A1000107F4CD108E09268002A16D02146284663
:100A200001B0BDE830401047214628465268F7E73C
:100A3000284601F07DFD0090406E0468684601F094
:100A4000B5FD002C01D02846A04738BD284601F04E
:100A50006FFD0090683001F0B7FC009803216C3006
:100A600001F0C0FC684601F0A1FD20E0E1684868A3
:100A700009680D2902D0202913D105E0002810DDD6
:100A800028460EF075FA06E0002804DD2846BDE889
:100A900038400EF06DBA2846BDE8384002210EF00D
:100AA0007DBAE06818B90021284600F0CBF920464D
:100AB000BDE8384008F03EBE08060020F0B5044608
:100AC00085B08069B4F90850668A0027CDE90265CF
:100AD000CDE900170490B4F90C00B4F91060C11806
:100AE000B4F90A00B4F90E50104433462A4600F017
:100AF00007F80546616800F0BDF905B02846F0BD6D
:100B00002DE9F04F85B01F46DDE911B4DDE90E5641
:100B100090468946824602F0AFFD16484C34CDE936
:100B20000204CDE900563B4642464946504608F08D
:100B300049FD040018D001F0FBFC10225946049036
:100B400008F0D6FB049830220B493430FFF708FD3B
:100B5000094D04990C3D2868486604A801F026FD5B
:100B6000286841682046884704F036F905B02046D9
:100B7000BDE8F08FE109000814060020F0B5044636
:100B800080688B4989B051F82050606800287DD07A
:100B9000052804D006287AD0122879D1AEE0E86979
:100BA00000284FD095E80E008DE80F0004F11001E9
:100BB0000FC904F0BFFC002655F8260003F04FFAD9
:100BC000A169E8690A1A216901446069304402F0A8
:100BD00011FAA169E8690A1A21690144E069801BD8
:100BE00002F008FAE169E8690A1A616901442069BA
:100BF000304402F08FFAE169E8690A1A6169014438
:100C0000A069801B02F086FA761C022ED4DBA8684D
:100C100003F025FAE069E9696669431A2069421818
:100C20003144801C521E02F02BFBE169E869A26985
:100C30000B1A61690144101A401C921E02F020FB3D
:100C4000EE6913E05FF0000655F8260003F007FA9E
:100C5000E069831BA069821B6069811920693044A7
:100C600002F018FA761C022EEEDB0226D5E903010B
:100C7000CDE900016169E06908444310A069891C5D
:100C8000821B2069304402F079F902E089E012E029
:100C90008AE0D5E90501CDE90001E3696069012138
:100CA000184401EB6001A0699B1E821B206930443F
:100CB00002F064F978E0206801F03AFC04902068C2
:100CC00009F09AFF40B1A06808B1002008E004983C
:100CD000006F28B1012003E00498406F00B10220AA
:100CE000049901EB8000C56E04A801F05FFC0023AD
:100CF0001A462846216801F083FE55E0206801F07D
:100D000017FC0490866EEEB3B0F95C70A168D1B3A5
:100D1000032942D05FF0000100EB8101406D0C6CB3
:100D200003F0C6F9204603F09AF905A802F0CAFBC1
:100D3000BDF81410A88B0144ADF81410BDF81810BC
:100D4000081AADF81800BDF81600801CADF81600A2
:100D5000BDF81A00801EADF81A000498B0F96020A2
:100D6000B0F95E1005A803F056F804A801F01EFCC7
:100D7000022003F009FA304601F0DAFB3A4605A9F1
:100D8000079001E00BE006E001F040FF0DF11C00D0
:100D900001F00CFC08E00121BEE70221BCE704A839
:100DA000F6E7206809F0E8FB09B00020F0BD00007C
:100DB000908E0208042905D2034A52F821102022FD
:100DC000FFF7CEBB70470000908E020838B50500D3
:100DD0004FF000040DD002F04FFC284601F0A8FBB4
:100DE0000090408EC0F30024684601F0DFFB03F062
:100DF000F3FF204638BD0000032903D2024A02EB6C
:100E00008101C860704700001406002000294FF0DF
:100E1000100101D008F01ABA08F06BB938B50D46C8
:100E200004000ED002F028FC204601F081FB009067
:100E30004565684601F0BAFB204609F0FBF803F06F
:100E4000CBFF38BD4FF480720029114601D008F065
:100E5000FDB908F04EB90000042907D2044A52F83F
:100E60002130014620221846FFF77ABB7047000068
:100E7000908E02082DE9FF410E4605004FF0010457
:100E800021D002F0F9FB284601F052FB0190876E59
:100E900001A8009701F08AFB3146684604F00EFE77
:100EA00078B100980024B84208D0284601F040FBF1
:100EB00001900099816601A801F078FB284609F0AD
:100EC000B9F803F089FF04B02046BDE8F081F0B521
:100ED00004460D4616461F462A200AF071F9C4F34F
:100EE0000F200AF077F9E0B20AF074F9C5F30F2089
:100EF0000AF070F9E8B20AF06DF92B200AF060F9F7
:100F0000C6F30F200AF066F9F0B20AF063F9C7F3EE
:100F10000F200AF05FF9F8B20AF05CF92C200AF011
:100F20004FF9F0BD00BFFEE700B589B0012101A86F
:100F3000FFF740FF4FF47F40019000200290FF2018
:100F400003900690FF21079104900591012101A8CB
:100F5000FFF782FF002101A8FFF77EFF022104486E
:100F6000FFF77AFF00210846FFF746FF09B000BDF2
:100F7000580A002000B589B0022101A8FFF71AFF26
:100F80004FF47F400190002002904FF47F000390C7
:100F900006900146079104900591022101A8FFF7F0
:100FA0005BFF00216FF07F40FFF726FF09B000BD17
:100FB000F8B5446805460146204608F0B3F8002815
:100FC00036D028680B2839D00E2805D00F2821D01C
:100FD000B0F5107F3CD12CE0204601F0A9FA00903A
:100FE00010F8746F4778684601F0E0FA204609F07F
:100FF00003FE10B3E8684168002929DD0068202855
:1010000026D17F1CB7FBF6F006FB1071204600F0DE
:101010004DF91DE02546204601F08AFA0090006F48
:101020000468684601F0C2FA002C01D02846A047A7
:10103000F8BD294620460EF0CDF809E0204601F023
:1010400077FA0090783001F0BFF9684601F0AEFA07
:101050002846BDE8F84008F06DBBF0B585B0B0F9A2
:101060000850468A84690296CDE903540027CDE9E9
:101070000017B0F90C10B0F91050B0F90E40B0F9EB
:101080000A00194410442B46224600F003F805B02C
:10109000F0BD00002DE9F04F85B01D46DDE90E974B
:1010A00016468A468346DDF8488002F0E5FA254C6C
:1010B0000EB135B10AE020688068006880470646B6
:1010C000F7E7206880680068804705461D486FF094
:1010D0007041001DC068884201D147F0010708F146
:1010E0005400194ACDE90220CDE900972B4632463B
:1010F0005146584608F066FA05001CD001F018FA6F
:1011000010220490119908F0F3F80E4904983C223B
:10111000091D3430FFF724FA049821680167022181
:1011200080F874100F21C16704A801F03FFA20680D
:1011300041682846884703F04FFE05B02846BDE8C1
:10114000F08F000094080020B10F00082DE9FF4740
:101150000446006810B109F04FFD68B10022314823
:1011600050F8221060680A2841D007DCF0B3062846
:101170000DD0072854D106E00122F0E712280AD04A
:1011800019284DD137E020460AF0E0FB48E0204620
:101190000BF0A2FF44E0206801F0CAF90290B0F918
:1011A000548090F85650476C466B02A801F0FEF947
:1011B000206800F039F88146684608F0BDFBBDF8AC
:1011C000001009EB05000844ADF80000246A304621
:1011D00002F06EFF022002F0D7FF384602F03FFF18
:1011E00042466946204601F011FD19E007E020461D
:1011F0000CF054F814E0886904B0BDE8F08720686A
:1012000009F0BAF9206801F093F90390B0F90610DB
:10121000B0F90220891A491CC16703A801F0C6F978
:101220000020E9E7DCF8020838B5044602F024FAA9
:10123000204601F07DF90090C46F684601F0B6F9D0
:1012400003F0CAFD204638BDF8B50D4606004FF044
:10125000000412D002F010FA304601F069F9009053
:10126000816CA94204D085640C46304608F0E2FE49
:10127000684601F09BF903F0AFFD2046F8BD38B594
:101280000C46050011D002F0F7F9284601F050F99C
:101290000090416BA14203D04463284608F0CAFE87
:1012A000684601F083F903F097FD38BD38B50C4668
:1012B00005001BD002F0E0F9284601F039F9009052
:1012C00090F87410A1420CD980F87540684601F07E
:1012D0006DF9284608F0AEFE0521284608F02EFFDD
:1012E00002E0684601F062F903F076FD38BDFEB514
:1012F0000D46040022D0002D20D002F0BDF920467A
:1013000001F016F90190866F01A8009601F04EF9E0
:101310002946684604F0D2FB70B10098B04208D06C
:10132000204601F005F901900099816701A801F0BC
:101330003DF9204608F07EFE03F04EFDFEBD38B5B7
:101340000C46050011D002F097F9284601F0F0F89C
:101350000090416CA14203D04464284608F06AFE24
:10136000684601F023F903F037FD38BD00B589B0B8
:1013700024216846FFF72EF91920019003480068E0
:10138000806841686846884709B000BD940800201D
:101390007CB5FFF7C9FD08F0FDFA05460020009076
:1013A0002B46044A07210190034801F019FA04462C
:1013B00020467CBD01150108E0EA010870470000E5
:1013C00070B506460D4614462B462A463146304631
:1013D000FFF77DFDA0B205F0F5F804460148048052
:1013E00070BD0000000002602DE9F04100250026DC
:1013F000002700242848007830B92848006826498A
:1014000008700020BDE8F0812448006830B1002752
:1014100000202349487008464078F3E7012014F083
:10142000D9FB1E48006830B1002700201C494870D5
:1014300008464078E6E71948001F0068C6B205E094
:101440001648001F0068C5B20127641C13480068D5
:1014500010B914488442F3D3104800680E4908704C
:10146000BFB11048844214D200272EB9012D03D1F8
:1014700002200B49487009E0012E04D11DB901205A
:101480000749487002E00020054948700448407848
:10149000B8E70020B6E7000038000020180123421A
:1014A0003300002020A107002DE9F041002500268F
:1014B000002700242848007830B9284800682649C9
:1014C00008700020BDE8F0812448006830B1002792
:1014D00000202349C8700846C078F3E7012014F0C3
:1014E00079FB1E48006830B1002700201C49C870F5
:1014F0000846C078E6E71948001F0068C6B205E054
:101500001648001F0068C5B20127641C1348006814
:1015100010B914488442F3D3104800680E4908708B
:10152000BFB11048844214D200272EB9012D03D137
:1015300006200B49C87009E0012E04D11DB9052011
:101540000749C87002E000200549C8700448C07807
:10155000B8E70020B6E700003A0000200801234267
:101560003300002020A107002DE9F04100250026CE
:10157000002700242848007830B928480068264908
:1015800008700020BDE8F0812448006830B10027D1
:1015900000202349887008468078F3E7012014F082
:1015A00019FB1E48006830B1002700201C498870D4
:1015B00008468078E6E71948001F0068C6B205E0D3
:1015C0001648001F0068C5B20127641C1348006854
:1015D00010B914488442F3D3104800680E490870CB
:1015E000BFB11048844214D200272EB9012D03D177
:1015F00004200B49887009E0012E04D11DB9032095
:101600000749887002E00020054988700448807806
:10161000B8E70020B6E7000039000020100123429F
:101620003300002020A1070008B50121402006F06A
:101630001FFA03208DF802007E20ADF8000048203C
:101640008DF803006946024800F0DAFB08BD00008F
:101650000018014010B5034806F0F4FB06F0D4F87A
:1016600010BD000055D7000851B18200A2F1C04260
:10167000126842F001038200A2F1C042136009E047
:101680008200A2F1C0421268034B1A408300A3F10A
:10169000C0431A6070470000FEFF0F00D0E901123E
:1016A0001143C268114302691143426911438269BF
:1016B0001143C2691143026A1143426A1143826AAB
:1016C0001143C26A1143026B114302689200A2F1F6
:1016D000C0421160816808290BD101688900A1F11D
:1016E000C041096841F0400201688900A1F1C04190
:1016F0000A60416B0968426B526841EA0211426B11
:10170000926841EA0221426B928941EA0241426BAE
:10171000128A41EA0251426B127D41EA0261426B38
:10172000926911430268521C9200A2F1C0421160FA
:10173000C16AB1F5804F1BD1816B0968826B526819
:1017400041EA0211826B926841EA0221826B128A9D
:1017500041EA0251826B127D41EA0261826B926919
:10176000114302689200A2F1C042C2F8041107E0DE
:101770006FF0704201688900A1F1C041C1F80421F5
:10178000704700002DE9F0430446C56887B09046D5
:101790008946002002F080FC064625B1287910B168
:1017A00046F0020001E026F0020002F075FC20691C
:1017B000012558B1D4E902128DE82600039563880B
:1017C0002288046841464846A0471EE0124F134B4A
:1017D000214638681B68427CE068984730B9E08849
:1017E000012801D0002001E03868806BA288E388DE
:1017F000A1680095CDE90410CDE902320195638816
:1018000022884146484604F0EDFE07B03046BDE868
:10181000F04302F041BC0000300500202805002004
:101820001CB50024019401AC009400F0E7F81CBD45
:101830002DE9FF4F83B0814606988A46A0EB0A083F
:10184000109E00200090A2EB09043568934654EAEC
:10185000080018D02046FFF792F807464046FFF7E9
:101860008EF887420BDA2046444680464846D146E9
:1018700082465846DDF818B0069001200090002CF2
:1018800007DD204606E007B04846BDE8F04F00F00F
:101890003BB96042A0420AD04846D9466442C8F1EA
:1018A000000883464FF0FF37DDF818A000E001275D
:1018B0005148B8F1000F11D004EBD4714FEA610B1D
:1018C00001DACBF1000B4C480068807E88B3002F12
:1018D00002DA30682044306000257BE0009900295E
:1018E000016821D0897E11B10027804615E007B03C
:1018F0005A4649465046BDE8F04F04F0D5BF284649
:101900006D1C0EF0DDF838B9D8F8000009EB0701BE
:10191000406E4268504690477F1CA742EFDD6D1E27
:10192000356007B0BDE8F08F8A7E1AB10027804687
:1019300017E019E0486E5A465146036807B048461A
:10194000BDE8F04F184728466D1C0EF0B9F838B9BD
:10195000D8F8001009EB0700496E4A6851469047D5
:101960007F1CA742EFDDDAE700250FE008FB05B09A
:1019700090FBF4F101EB0A00009951B11E4A09EB0A
:1019800005011268526E526890476D1CA542EDDD4C
:10199000C7E7194909EB05030968496E4A6801461A
:1019A0001846F1E708FB05B090FBF4F101EB0A00E3
:1019B00001903068384430600EF082F848B90098E1
:1019C00090B10D4809EB05010068406E426801982E
:1019D00090476D1CA542E5DD3068002F01DA2044F8
:1019E0003060C01B30609CE7034909EB05000968C3
:1019F000496E4A680199EBE7300500202DE9FF4761
:101A00000F4640491646804609680C981D460A7ED6
:101A1000012A1CD0A8EB0600791B50EA01031CD058
:101A2000A2F101090FF0B6FA00F58060824604F0D9
:101A300034F900FB09F4504604F034F900FB09F1D5
:101A4000002C0CDAC4F50070801240420AE00090CD
:101A5000324639464046FFF7EBFEBDE8FF8704F506
:101A60000074A012002904DAC1F5007189124C42F9
:101A700002E001F500718C12002804DD411C01EB2D
:101A8000D171491003E000EBD0714910401E00EB0A
:101A9000D0704210002C04DD601C00EBD0704010B0
:101AA00003E004EBD4704010641E04EBD47308EB25
:101AB0000104ADF800403C18ADF80240A8EB020468
:101AC0005B10B21AADF80440ADF808203144FC1A9E
:101AD000EA1AADF80C102844ADF80A20ADF80E0053
:101AE0000023ADF806401A460421684600F07AF853
:101AF000394640460BF07EFD294630460BF07AFD14
:101B0000ABE7000030050020064A13681A7E012A60
:101B100005D0521E02EBD272521000F005B85A6E78
:101B200052681047300500202DE9F05F06468846D0
:101B300040F2C32002FB00F14FF47A7091FBF0F702
:101B400002FB02F102EBD27001EB600B1446B118FC
:101B5000234A301B7F1C1268526E13680A464146A6
:101B60009847012538E000BF05FB05F004FB0401A0
:101B700059451CDDBC4219DD194B06EB050AA6EBE5
:101B800005091B68AAF1010208EB04015B6E09F16B
:101B900001001B689847124BAAF10102A8EB04014F
:101BA0001B6809F101005B6E1B689847641E0C4BB3
:101BB0003219301B1B68924608EB05015B6E8146AB
:101BC0001B689847064B5246A8EB05011B68484620
:101BD0005B6E1B6898476D1CBD42C5DDBDE8F09F7C
:101BE000300500202DE9FF4F43F6FF740F46664293
:101BF00083B09B46814600210BE000BF09EB8100CA
:101C0000B0F90200A04200DA0446B04200DD064608
:101C1000491CB942F2DB67480068406900280DD0D2
:101C2000B0F906101A46A1EB0B01B14200DA0E46DC
:101C3000B0F90200801AA04200DD0446B4E0DFF8EB
:101C400078A100200546CAF8000088E0781E854289
:101C500001DA6B1C00E0002309EB850C09EB830221
:101C6000BCF90200B2F90210A04244D1A14215D140
:101C700039F92330059A39F9251003EB020C4D4A46
:101C800005981268084404EB0B01526E6045136816
:101C900001DA62462AE00246604627E02846A4466A
:101CA0004FF000087A1E0BE008B1401E00E0781EDD
:101CB00009EB8003B3F90230634504D108F1010850
:101CC0009045F1DB2346A34248D01A1B39F9250081
:101CD000A1EB040C059B92EA0C0F09D4354A184479
:101CE00004EB0B011268526E13680246984735E008
:101CF00009F07CFA32E0A14230D001DBA04203DDE2
:101D0000A0422BDBA14229DCE04688420ADC0346E4
:101D1000A04223DC0846A14220DBB8F900C0B2F99A
:101D2000001008E00B46A14218DCA04216DBB2F915
:101D300000C0B8F90010E21AA1EB0C0151430029D0
:101D4000A0EB030202DD01EB620102E0A1EB620104
:101D5000491CC01A91FBF0F06044C9E76D1CBD42FC
:101D6000FFF674AF0598009004EB0B000190002083
:101D70008046054613E01149B8F1000F31F915A06E
:101D800009D0009901EB0A0208440A490968496E22
:101D90000B680199984788F0010850466D1C064968
:101DA00009688D42E7DB641CB4427FF748AF07B097
:101DB000BDE8F08F30050020840500207C0E032054
:101DC00010B5002002F040F96FF07F4002F047F9B3
:101DD000012002F0BBF9002002F0C6F9002002F059
:101DE000D3F9002002F058F90448006802F060F9C5
:101DF000BDE81040002002F07BB900002C05002057
:101E00002DE9F04102460025002600200023002491
:101E1000002791F803C00CF00F0591F803C00CF0F7
:101E2000100CBCF1000F03D091F802C04CEA05057C
:101E300091F800C0BCF1000F31D0146800202BE0F5
:101E40004FF0010C0CFA00F3B1F800C00CEA0306E5
:101E50009E4220D183004FF00F0C0CFA03F7BC43D5
:101E600005FA03FC4CEA040491F803C0BCF1280F06
:101E700006D14FF0010C0CFA00FCC2F814C00AE0C5
:101E800091F803C0BCF1480F05D14FF0010C0CFADA
:101E900000FCC2F810C0401C0828D1D31460B1F86F
:101EA00000C0BCF1FF0F34DD546800202EE000F1CB
:101EB000080C4FF0010808FA0CF3B1F800C00CEA66
:101EC00003069E4221D183004FF00F0C0CFA03F75A
:101ED000BC4305FA03FC4CEA040491F803C0BCF1CE
:101EE000280F05D100F1080C08FA0CF8C2F814808C
:101EF00091F803C0BCF1480F07D100F1080C4FF076
:101F0000010808FA0CF8C2F81080401C0828CED34B
:101F10005460BDE8F0810000F0B50A4600230024BB
:101F20000021002500F00046B6F1004F02D11D4E01
:101F3000F16901E01B4E7168C0F3034583B200F400
:101F40004016B6F5401F08D121F07061154E766835
:101F500026F07066134F7E6012E000F48016B6F52E
:101F6000801F06D1032606FA05F4A14341F07061F3
:101F700006E0460D360103FA06F6B14341F0706102
:101F800022B1460D360103FA06F6314300F0004651
:101F9000B6F1004F02D1034EF16101E0014E7160D4
:101FA000F0BD0000000001404161704701617047D1
:101FB0002DE9F04FDFF828B191B04FF0FF35DBF895
:101FC0000030B3F922100691DE69B3F924A0F46958
:101FD000A189814206D8E289824203D3471AD4F804
:101FE000008012E0D4E90181002970D00A88824281
:101FF0006DD84D8885426AD3801A82B2486800EB5A
:102000008200B0F90070B0F90250781C5FD0307EC9
:10201000A27C014600FB02F9207CCDE90710B3F950
:102020002A60304605F032F8C0B20E90DBF800109E
:1020300007FB0980A37C8A6B0127CDE90402CDE967
:102040000273C869089AC17E807ECDE90001DDE98E
:102050000603514604F0C6FA681C18D046F0020088
:1020600005F014F8DBF80000A37C05FB0981826B06
:10207000CDE90273CDE90412C069089AC17E807E61
:10208000CDE90001DDE90603514604F0ABFADBF8C7
:1020900000005D46C069417E007E814214D9022E57
:1020A00012D086F0040004F0F1FF2868C069027EB7
:1020B000C37E857E02FB03A1437E089A06985344A3
:1020C00002FB050204F056FC0E9804F0DFFFDBF87B
:1020D0000000627C418C1144418411B0BDE8F08F56
:1020E0003005002004480068C069C06909B1027C5D
:1020F0000A60407C70470000300500200220088004
:102100007047C06982898A4202D8C2898A4210D245
:10211000806880B102888A420DD843888B420AD3F6
:10212000406800EB8100A0EB8200B0F900000028BD
:1021300001DB012070470020704700002DE9F043CB
:102140002F4C034687B020681946B0F92A80C06931
:10215000C06900F082F800284ED041680088181A43
:1021600001EBC0054046AE7804F090FF8146206840
:102170006A680123816BCDE90236CDE90421C1698A
:10218000CB7E8A7ECDE900230B7EB0F924102A781D
:10219000B0F9220004F026FA2068C069477E067E66
:1021A000B7421DD9C07E47434643B8F1020F17D04E
:1021B00001F08DF9804601F053F901F050FF2168DC
:1021C0002A78CB69B1F92200B1F92410DB7E02FB39
:1021D0000302CB19314404F0CDFB404601F03FFF30
:1021E000484604F053FF20686A78C369B0F92210AA
:1021F0009B7E02FB0311418407B0BDE8F083000021
:102200003005002030B50E4C05460B4620682946A7
:10221000C069C06900F021F8002810D0416800882A
:1022200024682A1A0120E46900EBC200085CA47E3D
:102230006043002B03D011F832106143196030BDA8
:102240003005002001200880704700B5C06900F00B
:1022500004F8002800D0012000BD06E002888A4270
:1022600002D842888A4202D280680028F6D170479C
:102270002DE9F0410025154E154C18E02069C5EBFD
:10228000051700EBC7007022001D3168FEF768F9E2
:102290002069002140F8371000EBC70000F10C0165
:1022A0008161011D0A1DC0E90F126D1C4164A06807
:1022B0008542E3DB0CF0ACFB2169C0EB001001EBC5
:1022C000C000001D3060BDE8F08100003005002036
:1022D0001808002070B50F490D480860084603F043
:1022E000E5FB0C4C143CA068C0EB0010C500284670
:1022F00000F086F82A460021206103F050FC4FF0E0
:10230000FF30206002F0ABFDBDE870400CF080BBF8
:10231000C5F000082C08002010B5040009D001F019
:10232000ABF9204608F0C6FF044602F055FD2046F2
:1023300010BD002010BD38B5054601F09DF92846B6
:10234000FFF7EAFF040009D000F0F2F82A46002166
:10235000009003F024FC684600F028F902F03CFDF0
:10236000204638BD024A106021F0030050607047DB
:10237000000E032010B5040016D001F07DF90B48C3
:10238000406B10F8341059B1022909D2042101EB35
:10239000C4014158486808F045FF20460DF0C6F9D1
:1023A000BDE8104002F018BD10BD0000400D032034
:1023B000002805D0034AD16B016001B14860D063A9
:1023C00070470000400D032010B5044601F054F999
:1023D0002068FFF7CFFF00202060BDE8104002F02A
:1023E000FBBC000070B50D460646002405E000BFAA
:1023F00006EB8400FFF7E8FF641CAC42F8DB70BD1D
:102400002DE9F04104460CF047FC2848E41C24F078
:102410000305016C2D1DA94200D90D46C46B13E0C4
:1024200054F8042CAA420ED184B1216809B1626823
:102430004A60616809B122680A60C26BA24231D168
:102440002168C1632EE02468002CE9D18046816BAD
:10245000C0680F1857F8040C3E1A306838B10020D5
:102460000DF0CEF957F8040C3E1A3068D0B97068F8
:10247000A84217DB3044441B3046241D0DF078F988
:10248000D8F80C10491BC8F80C10D8F814102944BF
:10249000C8F814107068401B02D0314608F0C2FE24
:1024A00044F8045C2046BDE8F0810000400D0320A4
:1024B00010B500240CF0F0FB0C490F2001EBC0021A
:1024C000526C1AB101EBC000406C08E0401EF5D51B
:1024D00008E04168A14200D90C46806810B18068CC
:1024E0000028F6D1A4F10C0010BD0000400D03201F
:1024F000034800680C38002800DC0020704700000A
:10250000400D0320002138B10449042202EBC00031
:10251000496B085841680C3908467047400D032044
:1025200002488169491C816170470000400D032009
:102530000549CA69521CCA61496B01EBC0010A789E
:10254000521C0A7000F04AB8400D032010B501F08B
:1025500093F8FFF7ADFF64220849B0F5800F04D966
:1025600090FBF2F4086A444303E0096A4143B1FB7B
:10257000F2F402F031FC204610BD0000400D0320B3
:102580000549102805D94A68B0EB520F02D350080C
:1025900000E0102088607047000E03200248816927
:1025A000491E816170470000400D03200A490268FE
:1025B0004B6B52F8082C03EBC2021378022B03D3A7
:1025C000CB690BB15B1ECB611178491E11700021E4
:1025D0000160084670470000400D0320002806D027
:1025E0000349042202EBC000496B085808307047C9
:1025F000400D032070B50C46054601F073F8C1B2DA
:1026000023462846BDE87040002200F001B80000D3
:10261000F0B52D271C68B0F1004F08D00026002827
:102620000DDA651C1D6027704042012408E0651C1E
:1026300001261D606FF000402770491E01E0002454
:10264000091BC9B22AB3491EC9B222E00C46491E71
:10265000C9B2944205D1124C27781C68651C1D60D4
:102660002770104C54F8215090FBF5F4E4B20A2C7A
:1026700011D804FB150011B90EB1641CE4B20A2C88
:1026800002D10124491CC9B21D686F1C30341F607F
:102690002C700029DAD1196800200870F0BD000004
:1026A000240500200091020870B514460D46064628
:1026B00000F0E2FF204600F017FF0300174804EB8C
:1026C000840109D050F8210041688068711A2A1AE3
:1026D000184601F0FDFC1CE000EB8104A268B24248
:1026E00001D0012200E00022E368AB4201D00123C7
:1026F00000E000231A430CD0236943B150F82100B5
:10270000816840686A1A311A184601F04BFCC4E926
:102710000265BDE8704002F05FBB0000C40F0320FB
:1027200010B5C2B2CBB2D21A00D5524293B25B43BB
:10273000C0F30722C1F30724121B00D55242000C3C
:1027400092B2A0EB114002FB023200B2002801DA83
:10275000404200B280B200FB002010BD10B5002145
:10276000084600F047FF43F6FF725042BDE81040B4
:1027700013460146AFF300802DE9FC411C46154687
:102780000E46074600F078FF042004F07FFC8046E8
:102790001248C068C16C006D0F4406440D440444E7
:1027A000ADF80070ADF80450ADF80260ADF8064029
:1027B000684608F0ADF807E023462A463146384619
:1027C00004F0D8F808F066F80028F5D1404604F087
:1027D0005DFC02F001FBBDE8FC8100002405002047
:1027E0002DE9F8431C00DDE9089816460F4605461A
:1027F00002D107F0CFF8044600962E6843464A46B9
:1028000021462846B047061E39D007F0B8F8814661
:10281000698A304606F01AFD304607F005FF484643
:1028200007F002FF4FF000080CE000BFCDF8008079
:1028300055F81CCF00231A4649462846E04700B306
:1028400007F0F2FE7F1E002FF0DC1D21484607F046
:1028500086FD601C12D000F00FFF07F0CFF830B1FA
:10286000FFF7BCFE8469B44201D02000F8D1B44225
:1028700002D0304607F04EFE02F0AEFA3046BDE818
:10288000F883304606F08EFF0020F8E72DE9F0418E
:102890001C4616460D460746022B02DB0020BDE80B
:1028A000F0811C20FFF7ACFD0028F8D00DB10561C8
:1028B0000AE0094A52F8241009B905E011460A68ED
:1028C000002AFBD1096901618461868200210160CF
:1028D0004160C0E90217E2E75005002070B51D46CF
:1028E000FFF7D4FF040009D000F00EF8E06800689C
:1028F00020B90348006800EB85008465204670BD60
:1029000030050020FFF754BD70B590B38269022AEC
:1029100030DA1E4C54F8221019B944F8220032E083
:1029200019464B68002BFBD106E0CB68C5681B68D5
:102930002D68AB4203DD09680029F6D11AE0C1B168
:10294000CB68C6681B683668B3420CD1838A012BFA
:1029500005D008E01946DB681B68AB4203DB0B6857
:10296000002BF7D129B14B6833B118604A68426037
:1029700004E0FFE7012070BD44F82200486088426F
:1029800000D100210160002070BD00005005002032
:1029900010B503E00468FFF7B7FF20460028F9D11F
:1029A00010BD000010B50B4B8169002253F8214087
:1029B000844204D1046843F8214001684A604168B8
:1029C00009B103680B60016809B143684B6002609C
:1029D000426010BD5005002000207047022801DB36
:1029E00000207047054951F8200004E0C1680968DB
:1029F0000029F6D000680028F8D170475005002063
:102A00002DE9F8431D461646884604000CD0FFF712
:102A10008FFD0090006807686846FFF7C7FD2B46EA
:102A2000324641462046B847BDE8F8832DE9F041DB
:102A3000044602F00DFA06191EE000BF00F0A4FBE8
:102A4000052F00DD052700F017FE11480568FFF788
:102A500067FD2C0017D000BF02F0BEF9641EFBD149
:102A6000384602F0E5F91DB100F006FE6D1EFBD1FF
:102A7000FFF794FD02F0B0F902F0EAF9371A002FDF
:102A8000DCDCBDE8F081384602F0D2F9F0E7000066
:102A9000240800201FB503A9CDF80CD0FFF7AAFD2C
:102AA000684600F001F81FBD2DE9FC4706005FD025
:102AB00000F0E2FD00F030FD3C4C81462068B0F9AA
:102AC000228000F065FD216807468A8CD01B88842F
:102AD00041E000BF47F6FF71304602F07BFE8246C0
:102AE0000146304602F04CFE2168054691F82C0064
:102AF00000F00300012841D002283BD000204A8C7E
:102B0000101A4884ADF800006A1E1044ADF80400A5
:102B1000888CADF80200A9F101010844ADF8060067
:102B20006A465146304602F023FB2168BDF8020098
:102B300088845146304602F03DF8064430780A2831
:102B40001ED00D281CD0BDF8000021682844488400
:102B5000307818B1761C30780028BBD12068818C81
:102B600039448184818D21F00301818502F034F99B
:102B7000BDE8FC8705EBD5704010C0E72846BEE7EE
:102B8000206890F82C1001F0030101290BD00229D4
:102B900009D0018C418431780A29D9D1828C02EB89
:102BA00009018184D4E7A0F82280F4E730050020F1
:102BB00070B514460D46064600F05EFD05480068F7
:102BC000458484843046FFF76FFFBDE8704002F013
:102BD00003B90000300500202DE9F04107460A48FE
:102BE00015460E460068B0F92C0040F0020001F0D6
:102BF000BBFA04462A4631463846FFF7D9FF20463D
:102C0000BDE8F04101F0B0BA3005002047F6FF738F
:102C1000AFF300802DE9FC411F4690460D460600AB
:102C20004FF000041AD000F027FD65B1284607F0E8
:102C3000EBFC040007D002462946684602F037FE46
:102C4000684607F0E1FC3B4642462946304602F022
:102C5000E7FA204607F0D8FC02F0BEF8BDE8FC8198
:102C60002DE9FF4F87B09046894607007ED000F0DF
:102C700003FDD9F80040D9F8045021B228B2401A17
:102C8000401C029000F048FC064618F00C0F1ED0C5
:102C900038460A9A029902F0A9F808F00C010429B2
:102CA00004D0082902D00C2911D104E0291400FB1A
:102CB0001610401C09E02114C1EB254200FB162030
:102CC000401C00EBD07001EB600060F31F444846ED
:102CD00007F09AFC5FEA000B09D00246494604A8B7
:102CE000CDE9044502F0E3FD04A807F08DFCA6F150
:102CF000010A38460A9A029902F020FF03900AEB73
:102D0000244060F31F45CDE900453846039902F0A1
:102D100037FD18F003010FD001292DD002290FD162
:102D2000B9F90420B9F90010521A101A401C00EB2E
:102D3000D07001EB600001E0B9F80000ADF80000D0
:102D40006A463846039902F013FA38460A9A0299FD
:102D500002F0EAFE074406EB244060F31F44387893
:102D60000028C6D1584607F04FFC00E001E002F011
:102D700033F80BB0BDE8F08FB9F80410081A401C06
:102D8000DCE700007CB514460D46064600F074FCF6
:102D900011480068C16C006D0D4404443188681E00
:102DA0000844ADF80400ADF800507188601E084476
:102DB000ADF80600ADF80240684607F0A9FD06E050
:102DC000224629463046FEF7DDFC07F063FD002869
:102DD000F6D102F001F87CBD300500201CB50A4692
:102DE0000146684602F055FE00F046FC2548BDF855
:102DF0000010006830F84C2F1144ADF80010BDF8F9
:102E0000021082881144ADF80210BDF80410028847
:102E10001144ADF80410BDF8061080880844ADF8E0
:102E20000600684607F074FD27E000BFBDF90040CA
:102E30000BE000BFBDF90210204603F001FDBDF913
:102E40000610204603F0FCFCA41CBDF90400A042BF
:102E5000F0DABDF902400AE0BDF90000214603F0B6
:102E6000EFFCBDF90400214603F0EAFCA41CBDF907
:102E70000600A042F0DA07F00DFD0028D6D101F0DF
:102E8000ABFF1CBD300500202DE9F04F87B09B46FD
:102E9000DDE9109892460C46054600F0EDFB164819
:102EA0000168C86C096D47190E1900EB0A0501EBA2
:102EB0000B04ADF81070ADF81450ADF81260ADF819
:102EC000164004A807F024FD88B1DFF830B04FF0B9
:102ED000000ACDE90098CDE902BA2B4622463946D0
:102EE00030460AF044FA07F0D5FC0028F1D101F091
:102EF00073FF07B0BDE8F08F30050020A968000817
:102F00002DE9FF4F87B09346DDE915980C4605463D
:102F1000DDF850A000F0B0FB16480168C86C096DE0
:102F2000471900EB0B050A980E190C18ADF8147030
:102F3000ADF81850ADF81660ADF81A4005A807F0C6
:102F4000E7FC90B14FF0010B0B49CDE900A9CDE9A9
:102F5000028123462A46CDF810B0314638460AF0A1
:102F6000B0FA07F097FC0028EED101F035FF0BB066
:102F7000BDE8F08F30050020E96700082DE9F04F2B
:102F800087B09B46DDE9109892460C46054600F056
:102F900073FB16480168C86C096D47190E1900EBE0
:102FA0000A0501EB0B04ADF81070ADF81450ADF844
:102FB0001260ADF8164004A807F0AAFC88B1DFF84B
:102FC00030B04FF0010ACDE90098CDE902BA2346AE
:102FD0002A46314638460AF0CAF907F05BFC002859
:102FE000F1D101F0F9FE07B0BDE8F08F3005002007
:102FF000E96700082DE9FC4114460D46064600F03D
:103000003BFB114F3968C86C096D054404440E44FC
:10301000ADF80050ADF80440ADF80260ADF80660C0
:10302000684607F075FC08E0386822463146406E75
:1030300003682846984707F02DFC0028F4D101F0DA
:10304000CBFEBDE8FC810000300500202DE9F041F9
:103050001C4615460E46074600F00EFB0C4801685C
:10306000C86C096D074405440E440C44002007F069
:103070004FFC07E023462A4631463846FEF7D0FB90
:1030800007F008FC0028F5D1BDE8F04101F0A4BE2E
:10309000300500202DE9FC411C4616460D4607462A
:1030A00000F0EAFA1A480168087ECA6C096D1744F4
:1030B0000D440C44401E391A1644ADF80010311866
:1030C000ADF80410291A2044ADF80600ADF802103E
:1030D000684607F01DFC15E032462946384603F0E5
:1030E00083FB32462146384603F07EFB621E691C94
:1030F000384603F0D9FB621E691C304603F0D4FB4E
:1031000007F0C8FB0028E7D101F066FEBDE8FC81AE
:10311000300500207CB514460D46064600F0ACFA9A
:103120000F480068C16C006D0E4405440444ADF8BE
:103130000060ADF80460ADF80250ADF80640684696
:1031400007F0E6FB06E022462946304603F0ACFBDA
:1031500007F0A0FB0028F6D101F03EFE7CBD000088
:103160003005002070B50C46054600F0C7F910B1D7
:103170000121C0E9001400F07FFA284607F00CFB9B
:10318000BDE8704001F028BE10B5002400E0012425
:1031900000F004F80028FAD1204610BD094810B507
:1031A0000068002410B1804700B1012406F072FBD2
:1031B00000B101240448006810B1804700B1012427
:1031C000204610BD3C0500205805002070B516466D
:1031D0000C46054600F050FA0B480068C16C006DC3
:1031E0000D440444002007F093FB06E032462146DC
:1031F0002846FEF799FC07F04DFB0028F6D1BDE804
:10320000704001F0E9BD0000300500202DE9FC47C9
:103210001D4616468846814600F02EFA164C206858
:10322000C16C006D0E440544002007F071FBF0B145
:10323000124F20681121407C57F820000190C0688F
:10324000426A01A890475FEA000C06D03346424626
:10325000494600950198E04705E02B463246414635
:103260004846FEF7BFFC07F015FB0028E1D101F04E
:10327000B3FDBDE8FC8700003005002050050020AC
:103280002DE9FC411C4615460E46074600F0F4F9B0
:1032900010480068C16C006D0F4406440D4404449E
:1032A000ADF80070ADF80450ADF80260ADF806401E
:1032B000684607F02DFB07E023462A46314638468C
:1032C00003F058FB07F0E6FA0028F5D101F084FD81
:1032D000BDE8FC81300500202DE9F04F87B01C4689
:1032E00015460E46074600F0C7F92F48016802A8A8
:1032F000CA6C096D02EB070A02EB05090E4401EBEB
:103300000408ADF808A0ADF80C90ADF80A60ADF86F
:103310000E8007F0FDFAE0B3A8EB0600401C059014
:10332000109C0598B0EB440F32DBA9EB0A00401C5F
:10333000B0EB440F2CDB04FB04F02746354606EBCC
:10334000040B04901AE0049807FB170002F06BFCD2
:103350000AEB0401091A0191A9EB04010844024691
:1033600000902946019803F03FFADDE90020A91BEF
:10337000A8EB010103F038FA6D1C7F1EAB45E2DAC1
:10338000A8EB04034A46294650465B1E03F0F2FAB6
:1033900000E003E007F07EFA0028C1D101F01CFD37
:1033A00007B0BDE8F08F00003005002008B50B46DF
:1033B000002805D0009281888268C08800F001F85A
:1033C00008BD10B50828029C30D008DC04FB01F4CD
:1033D00001280AD0022813D0042804D11CE01028A8
:1033E00028D020282CD0002010BD04EBD30003F0FF
:1033F0000701105CC1F10701C84000F0010010BDD9
:1034000004EB93000621105C01EA4301C1F10601BF
:10341000C84000F0030010BD04EB5300D907105C56
:1034200002D000F00F0010BD000910BD04FB0130F8
:10343000105C10BD481004FB003032F8100010BDC5
:10344000881004FB003052F8200010BD034951F8E9
:103450002000C1688A6A082110470000500500203A
:1034600010B500F009F903F02FFB03F00FFC044640
:1034700001F0B2FC204610BD10B5044600F0FCF887
:10348000054800210068C06942682046904704460C
:1034900001F0A2FC204610BD3005002070B50C469E
:1034A000054600F0E9F8064821460068C069426810
:1034B00028469047044601F08FFC204670BD00006E
:1034C00030050020002801D006F036BA704710B54C
:1034D00000F0D2F803F000FB03F0D8FB044601F043
:1034E0007BFC204610BD00000021022802D20249C8
:1034F00051F8201008467047100800201FB5002121
:103500000191029103912A210091694606F018FF6A
:10351000039804B010BD000010B500F0ADF80448E9
:103520000068C069447E01F057FC204610BD0000D1
:103530003005002070B515460E46044600F09CF894
:103540002A463146204603F033FB040002D0002017
:103550003060286001F040FC204670BD70B50C461C
:10356000054600F089F82146284602F05DF9BDE8DD
:10357000704001F031BC10B5044602F047F9014635
:103580002046BDE8104002F0FBB801F061BC00002D
:1035900010B5002400F070F80B48006890F82C106B
:1035A00001F00C01042904D0082906D00C2907D108
:1035B00003E0C069047E641E02E0C069007E440826
:1035C00001F00AFC204610BD30050020017EC07EBF
:1035D00048437047024951F820000069006870476D
:1035E00050050020024951F82000006940687047EA
:1035F0005005002070B50D46044600F03DF8204609
:103600000BF080FA044628460BF084FA044301F0DC
:10361000E3FB204670BD000070B501F0D9FC144DED
:103620002E20287001F01AFC12480BF0E7FA03F084
:1036300053FB064603F0E4FA10B103F0F5FA38B98B
:1036400003F0FBFA044603F0E4FA214603F018FD08
:103650000021084600F05AFD06F042FCFEF708FE85
:10366000286900B1804701206870304670BD0000B5
:10367000240500200C0E032070B5184CE06820B122
:1036800001F0E3FB6168884204D001F0E9FB01F03E
:10369000DCFB6060E068401CE06001281CD10BF09E
:1036A000B7F905462068854216D0002813DBFFF7DE
:1036B00093F901462068C0EB0012206900EBC202BA
:1036C0005167C5EB0511064A00EBC100011D1160F1
:1036D000406FFFF75DF9256070BD000018080020FD
:1036E0003005002010B5011E01DD024600E04A420F
:1036F000064B012053F82040944202D8401C0A286F
:10370000F8DB002900DA401C10BD0000009102081F
:103710001CB5040004D10E480068046E002C16D0BD
:10372000FFF7AAFF2046FEF703FF009044696846B2
:10373000FEF73CFF4CB12046FEF7FAFE019081688F
:103740008968884701A8FEF731FF01F045FB1CBDE1
:103750003005002001490A4600F002B801F0FFFFE1
:103760002DE9F04387B015460C465FEA000846D0C5
:10377000FFF782FF002000F08FFC8146214800689F
:10378000066E4046FEF7D4FE00900068806900F0A7
:1037900031FC074640F6FF70C44204D10098B0F9EE
:1037A0000440B0F906500098611E0289ADF804404B
:1037B0001144ADF808104189681E0844ADF8065060
:1037C000ADF80A0005F078FE6846FEF7EFFE01A8A6
:1037D00007F09EF806E02A462146404600F0D0FA5F
:1037E00007F058F80028F6D1384600F003FC3046C0
:1037F00000F090F9484600F04FFC01F0EDFA07B0F8
:10380000BDE8F083300500202DE9FE4F9846914633
:103810008A46834600270C9EFFF72EFF1848194959
:103820000068407C51F82040E1680968042903D011
:103830002468002CF8D100E01CB9FFF7CFF8041E73
:103840001BD0E0680121C26A20469047050011D0D4
:103850002469A0688047401C02D10B4C46F0010649
:103860000096CDE9015443464A465146584600F079
:10387000E5F9074601F0B0FA3846BDE8FE8F0000D2
:1038800030050020500500209003020838B50400E0
:103890001CD0FFF7F1FE0E480068006EA04201D177
:1038A00000F09AFB2046FEF743FE0090406908B105
:1038B00001F07BFA00980068FFF724F86846FEF7ED
:1038C00075FE2046FEF756FD01F086FA38BD000071
:1038D000300500202DE9FF4F83B09A468B460746FE
:1038E000FFF7CAFEDFF83891D9F80000447C4D4854
:1038F00000570128204606DD03F088F905462046DA
:1039000003F098F905E003F069F90546204603F055
:103910006BF904461FB302A901A8FFF71FFEB7F910
:103920000000002800DA0020B7F902608046002E6F
:1039300000DA002601984119B7F90400491E0BF07E
:10394000CCFA054602980119B7F90600491E0BF09A
:10395000C4FAA5EB0802841B521C641C03E04FF060
:10396000000846462A46BAF1000F01D1C4F1000A08
:10397000002A51DD002C4FDD10980090534631464F
:103980004046FFF741FF5FEA000A10D000F07CF8E4
:103990000746A04206D0D9F80000806C10B1322151
:1039A00007F046FB504600F0B5F8002523E05946E5
:1039B0000598884701F010FA012007B0BDE8F08FA4
:1039C000611BB94202DA504600F088F83DB1721925
:1039D0004146504600F0C6F85046FFF799FE59465A
:1039E000059888471048016809B10020884750466B
:1039F000FFF7B0FE3D44A542E2DB5046FFF746FF2D
:103A0000002000F087F8A74206D0D9F80000806CAB
:103A100010B1332107F00CFB01F0DEF90020CCE7F8
:103A2000300500206C0500208008002038B5050016
:103A30004FF0000411D0FFF71FFE2846FEF778FD77
:103A40000090006800698068804703F0CDFC044660
:103A50006846FEF7ABFD01F0BFF9204638BD38B52A
:103A600004000ED0FFF708FE2046FEF761FD00F1CE
:103A7000180400906846FEF799FD01F0ADF9204664
:103A800038BD002038BD000038B504460025FFF7DA
:103A9000F3FD1CB908480068046E44B12046FEF7E7
:103AA00047FD0090B0F90A506846FEF77FFD01F02F
:103AB00093F9284638BD00003005002070B5054652
:103AC0000024284607F0CEFD641C18B1BDE8704004
:103AD00000F07AB8052CF4DB70BD000038B50C4658
:103AE000050004D10A480068056E002D0FD0FFF7CD
:103AF000C3FD2846FEF71CFD0090B0F90A10A14254
:103B000000DD44816846FEF751FD01F065F938BDDE
:103B100030050020F8B50546FFF7AEFD104E3068C1
:103B2000046ECDB10CB100F057FA05F0F3FD284654
:103B3000FEF7FEFC009031680D660068FEF7E4FEBB
:103B40006846FEF733FD03F0FFFA03F079FA00BF91
:103B500001F042F92046F8BD00F03EFAF8E7000017
:103B6000300500207CB515460E46040004D11548EA
:103B70000068046E002C24D0FFF77EFD2046FEF77F
:103B8000D7FC2DB20090C58034B2848003F058FA7F
:103B90000098406980B1FEF7CBFC009A0190B2F921
:103BA00008108180B2F90A20C28011B10AB10480E4
:103BB000458001A8FEF7FAFC6846FEF7F7FC01F025
:103BC0000BF97CBD3005002001490A4600F002B81F
:103BD00001F0FFFF7FB515460C4606002DD0FFF71C
:103BE0004BFD3046FEF7A4FC40F6FF710190CC423D
:103BF00003D1B0F90440B0F906500289611E1144A6
:103C0000ADF80840ADF80C104189681E0844ADF8C5
:103C10000E00ADF80A5001A8FEF7C8FC02A806F095
:103C200077FE06E02A462146304600F091F806F07D
:103C300031FE0028F6D101F0CFF87FBD2DE9FF4F0E
:103C4000DFF8E8B083B01C46DBF80010DDE9106057
:103C500092464FF000084B7C42461299FEF716FE42
:103C6000050060D028698068804703F0BDFB81466D
:103C70000AFB09F1C91DCF08FEF768FCF10705D161
:103C8000C11700EB9170801000EB4000002C09DCA4
:103C90001FB11838B0FBF7F000E000206442A042EA
:103CA00000DC0446F00707D10090DDE9030123465C
:103CB000524600F0FFFF8046002C03DC2846FEF74A
:103CC00021FE30E004FB07F01830F10702D0FEF7C8
:103CD00023FB01E0FEF72FFB06001CD0FEF728FCBB
:103CE00001900560039981800499C180A0F808A023
:103CF0004481C0F81480C0E9037901A8FEF756FC9E
:103D00001298AE602861DBF80000407CA861304664
:103D100007B0BDE8F08F2846FEF7F4FDB8F10000CB
:103D200001D0FEF727FB0020F2E70000300500205D
:103D3000054B30B41B68054C5B7C54F823301B6981
:103D400030BC0CF07BBC000030050020500500208A
:103D5000F8B515460E460746FEF7EAFB00900068E8
:103D60001621C068426A0020904704466846FEF764
:103D70001DFC002C03D02A4631463846A047F8BD2A
:103D8000F8B516460F46050012D0FEF7D1FB00909D
:103D900044696846FEF70AFC2846FFF747FE0346DB
:103DA000082800DD2CB13246394628460CF006FDC5
:103DB000F8BD3246394628460CF0A0FEF8BD10B5D5
:103DC000002821D009B30AB3B1F90040B2F900309C
:103DD0009C4200DA23460380B1F90240B2F9023076
:103DE0009C4200DA23464380B1F90440B2F9043022
:103DF0009C4200DD23468380B1F90610B2F906200B
:103E0000914200DC1146C18010BD11460A68026073
:103E10004968416010BD00280BD003880B44038023
:103E2000838819448180418811444180C1881144AC
:103E3000C180704770B50E4D0446D5E90001884237
:103E400009D10C49884201D13C3000E00C3807C848
:103E500084E8070006E090E80E0084E80E000AF00F
:103E60006FFE2860207A002800D0012070BD00007D
:103E7000FC070020280F03200448D0E900108142ED
:103E800001D101207047002070470000FC0700208E
:103E900010B509490446086820B908480860084672
:103EA00001F004FE07490648086020460CF08CFA31
:103EB000BDE8104000F078B908080020B1F0000813
:103EC000159B00085C05002070B50025FFF7D4FBAA
:103ED000094CD4E9002082420AD0D2E900561046AB
:103EE0000AF038FE20603146284606F02FF90125F9
:103EF00000F072FF284670BD880500202DE9FC41C6
:103F0000154DDDE908742D68B5F90860864200DDBD
:103F10003046B5F90C60964200DA3246824219DB2F
:103F2000B5F90A608E4200DD3146B5F90E509D426A
:103F300000DA2B468B420DDB00E02C46E5682D684D
:103F400025B1042D02D02568002DF6D1CDE90074ED
:103F500002F060FFBDE8FC8130050020B0F90220CE
:103F6000B1F906309A4213DCB1F90220B0F90630FB
:103F70009A420DDCB0F90020B1F904309A4207DC16
:103F8000B1F90010B0F90400814201DC0120704752
:103F9000002070470146024870220068FCF7E0BA32
:103FA0003005002070B515460E4604000AD0FFF714
:103FB00063FB2A46314620460BF050FEBDE87040B8
:103FC00000F00ABF70BD0000024970220968FCF7CA
:103FD000C7BA00003005002010B5FFF74DFB02F016
:103FE000E5FF03F0B1F805F067FABDE8104000F016
:103FF000F3BE000070B50B4D04462868467CFFF701
:104000003BFB022C09D22046FEF7E8FC28B12868C9
:104010004474FFF7E1FF0448046000F0DDFE304621
:1040200070BD0000300500205407002070B50C461C
:10403000054606F08BF8002805D121462846BDE844
:10404000704000F0C1B870BD10B50446FFF714FB16
:10405000204602F0CBFFBDE8104000F0BDBE10B519
:104060000446FFF709FB204602F0F8FFBDE81040C8
:1040700000F0B2BE10B50446FFF7FEFA05496FF036
:10408000704009680863204602F0EEFFBDE810406A
:1040900000F0A2BE3005002010B50446FFF7ECFA90
:1040A000204602F0F3FF044600F096FE204610BDC5
:1040B00070B50446FFF7E0FA04480068C56904B12A
:1040C000C46100F089FE284670BD00003005002064
:1040D00070B514460D460646FFF7CEFA224629462D
:1040E000304602F0EFFF044600F076FE204670BD39
:1040F00070B50546FFF7C0FA03480068847E8576F0
:1041000000F06AFE204670BD3005002070B50C46F8
:104110000546FFF7B1FA09482246058008480480A1
:1041200008480068417C084850F82100C1680B6AC3
:1041300029469847BDE8704000F04EBE7405002047
:1041400076050020300500205005002070B505469A
:10415000FFF792FA03480068047E057600F03CFE03
:10416000204670BD3005002070B50446FFF784FA84
:1041700004480068B0F92C50848500F02DFE2846D4
:1041800070BD00003005002070B50446FFF774FADA
:1041900004480068B0F92A50448500F01DFE284606
:1041A00070BD00003005002002480068002800D0E3
:1041B000004770474808002002498A6802B98860B1
:1041C000FFF7F2BF880500207CB50A4C0546CDE913
:1041D00000016068019A6E46C0E9005221680AF049
:1041E000A1FC6060E16809B130468847A560FFF72F
:1041F000DBFF7CBD880500202DE9FC419846164672
:104200000D460746FFF738FA1C20FEF794F8040025
:104210002DD01C491A4808602046FEF789F9009005
:1042200015B9FFF7B2F9054600980760C0E90465C3
:10423000A0F80C806846FEF7B9F920460AF0B6FDF2
:10424000114DA86840B90120A86005F10C010F4884
:104250000860084601F02AFC2046FEF769F9019043
:10426000296849B181602C6001A8FEF79FF900F030
:10427000B3FD2046BDE8FC8100212C608160F3E79E
:10428000B94200083C05002034080020D9F000089D
:1042900010B504000ED0FFF7EFF920460BF082FABC
:1042A00020460CF061F92046FEF764F8BDE81040A6
:1042B00000F092BD10BD00002DE9F04188B000254E
:1042C000FFF7DAF9184C676825E000BFFFF75DF9E2
:1042D00006466068FEF72CF901904169891B0029A8
:1042E00015DC616802960491016903914668666075
:1042F000D0F8008001A8FEF759F902A84146884786
:1043000066B160680125B84205D1002506E001A824
:10431000FEF74CF902E060680028D7D100F05CFDA0
:1043200008B02846BDE8F0813408002038B50C46B6
:10433000050011D0FFF7A0F92846FEF7F9F8009024
:104340008089204201D0012400E000246846FEF765
:104350002DF900F041FD00E00124204638BD38B5BC
:10436000040017D0FFF788F92046FEF7E1F8009027
:10437000FFF70BF9014600988269114441616846D4
:10438000FEF714F920460CF0EFF820460AF00EFD77
:1043900000F022FD38BD38B50C4605000BD0FFF704
:1043A0006BF92846FEF7C4F8009084616846FEF772
:1043B000FDF800F011FD38BD38B505460020286035
:1043C0000648046844B12046FEF7B2F80090006940
:1043D00028606846FEF7EAF8204638BD3408002019
:1043E00038B504004FF000000D46086011D020469B
:1043F000FEF79EF80090846844B16846FEF7D6F850
:104400002046FEF795F80090006928606846FEF7A0
:10441000CDF8204638BD00002DE9F04F97B01D467D
:104420001646894604464FF00008FE49DDF888B07C
:10443000DDF880A0C1F80080CDF8408002282AD0A5
:104440006A4603AB0BAF0DF1200C032C7DDB57D17B
:104450004FF000084FEA0C0755F8280012F022FB35
:104460004DF828005AF8280012F01CFB03A941F867
:10447000280059F8280012F015FB0BA941F8280074
:1044800056F8280012F00EFB47F8280008F1010842
:10449000A045E1DBE6E068681F68C01B12F002FB84
:1044A0000446D9E90001081A12F0FCFA214612F07C
:1044B0001BFADD4C0546C4E90008384612F0F2FA52
:1044C000294612F01BFB80F00040C4E90208DAE93B
:1044D0000071C81B12F0E6FA0546D6E90010401A32
:1044E00012F0E0FA294612F0FFF90546206138463D
:1044F00012F0D8FA294612F001FB80F00040B0E13A
:10450000002041464CF8201047F8201043F82010B6
:1045100042F82010401C0328F4DB002760E000BFB5
:1045200055F8270012F0BEFA1190029912F07AF9AC
:1045300002905AF8270012F0B5FA8046059912F059
:1045400071F9059059F8270000E0BEE112F0AAFACF
:1045500013900D9912F066F90D9056F8270012F09D
:10456000A1FA12900A9912F05DF90A901198014689
:1045700012F0C4FA009912F055F9009041461198D2
:1045800012F0BCFA019912F04DF9019003904146E6
:10459000404612F0B3FA049912F044F904901399CA
:1045A000119812F0ABFA0B9912F03CF90B904046BF
:1045B000139912F0A3FA0C9912F034F90C90DDE97A
:1045C000110112F09BFA089912F02CF9089040465C
:1045D000129912F093FA099912F024F97F1C0990AC
:1045E000A7429DDB0299009812F07EF90090059990
:1045F000019812F079F90190DDE9021012F074F9D6
:104600000390DDE9040112F06FF9049002990B9810
:1046100012F06AF90B9005990C9812F065F90C905C
:104620000299089812F060F908900599099812F01B
:104630005BF90990204612F035FA044621460298AB
:1046400012F052F902902146059812F04DF90590AA
:1046500021460D9812F048F90D9021460A9812F063
:1046600043F90A900599039812F014FB0646DDE918
:104670000101344612F00EFB214612F03FFA0446C7
:10468000DDE9040112F006FB05460299009812F0DC
:1046900001FB294612F032FA214612F0FBFA0546D8
:1046A00010F0FF4F7ED0DDE90C01B046444612F019
:1046B000F1FA8146214612F021FA0746DDE90401AC
:1046C00012F0E8FA824654460D990B9812F0E2FA7D
:1046D0000646214612F012FA394612F0DBFA294654
:1046E00012F002F9504C2060DDE9010112F0D2FA1B
:1046F00001461490304612F001FA064602990098DD
:1047000012F0C8FA01461590484612F0F7F9314602
:1047100012F0C0FA294612F0E7F860600C99009890
:1047200012F0ECF906460B99019812F0E7F93146C0
:1047300012F0B0FA059912F0E1F907460B990298C8
:1047400012F0DCF906460D99009812F0D7F93146BF
:1047500012F0A0FA049912F0D1F906460D990198C9
:1047600012F0CCF981460C99029812F0C7F949462B
:1047700012F090FA039912F0C1F9314612F052F892
:10478000394612F04FF8294612F0AEF8A060DDE984
:104790000901464612F07EFA8046314612F0AEF923
:1047A000064600E062E0D1460A99089812F072FAD3
:1047B0000746494612F0A2F9314612F06BFA294633
:1047C00012F092F8E0603846149912F097F9064614
:1047D0004046159912F092F9314612F05BFA2946DB
:1047E00012F082F820610999009812F087F90646C4
:1047F0000899019812F082F9314612F04BFA0599A6
:1048000012F07CF907460899029812F077F90646EB
:104810000A99009812F072F9314612F03BFA0499A5
:1048200004E000009C050020F80E032012F066F959
:1048300006460A99019812F061F980460999029892
:1048400012F05CF9414612F025FA039912F056F97C
:10485000314611F0E7FF394611F0E4FF294612F026
:1048600043F81B4960610120086001E0109860B3C3
:10487000174C21980021C4E9010B08460AF0DAFA26
:104880000021E06008460AF0FFFA20612198ABF1B0
:104890000101401E0AF0CEFA60612198ABF10101DE
:1048A000401E0AF0F1FAA0616269E168914201DDFF
:1048B000E26061612169814201DDA16120612068BE
:1048C00018B1002017B0BDE8F08F0120FAE7000012
:1048D0009C05002070B5174C06460D463268E1680D
:1048E00001208A421EDB2968236999421ADB636929
:1048F0009A4217DCA269914214DC2946304600F046
:10490000DBF800280ED133680022002B01DA326078
:1049100004E061688B4201DB491E31602B68002B8B
:1049200001DA2A6070BDA1688B42FBDB491E296059
:1049300070BD00009C05002000B1014800F064B883
:10494000D548000870B5254C86B06078F8B100F005
:1049500003F9E06000F0FEF8E0680390206904903D
:1049600000F03EF88DF8090004A903A8FFF7B2FF94
:104970000025B0B1A07870B360680090A068019085
:104980008DF80850684600F057F8A57023E000F055
:10499000EFF8206100F0DFF86078401C607006B02E
:1049A00070BD039A6068111A00D54942049BA06843
:1049B000181A00D54042A67816B1084402280ADD2C
:1049C00062600092A360012601938DF8086068463A
:1049D00000F032F8A6706570E1E70000B80500202D
:1049E0000148407A70470000700F0320054910B558
:1049F00091E81C0080E81C00087A002800D0012003
:104A000010BD0000EC0E0320014908607047000053
:104A100098050020074A002806DB002904DB012353
:104A20001372C2E9000101E000201072014800F099
:104A300003B80000700F03203EB504460C22114954
:104A4000FBF798FC002813D00F480E4D026882B186
:104A500094E80B008DE80B00684601A990479DE89B
:104A60000E0085E80E00002802D16846FFF710FA14
:104A70003EBD2046FFF70CFA94E8070085E80700E2
:104A80003EBD0000EC0E032098050020094B30B419
:104A90001A68821A00D552425C680C1B00D5644229
:104AA0002244022A04DDC3E9000130BCFFF7B2BF93
:104AB00030BC7047F00500202DE9F047054622483C
:104AC0000E460068E0B3D5F80080306811F0EAFFC8
:104AD0001E4C8146616812F011F80746404611F0FD
:104AE000E1FF8046216812F009F8394611F09AFE7C
:104AF000A16811F097FE11F069FE154F00223B46A8
:104B000011F0C4FA11F076FB28604846216911F0D3
:104B1000F5FF05464046E16811F0F0FF294611F027
:104B200081FE616911F07EFE11F050FE00223B46CD
:104B300011F0ACFA11F05EFB30600020BDE8F087A8
:104B4000FFE70120FAE700009C050020F80E032093
:104B50000000E03F7047704710B50448006818B97E
:104B6000D02003F0B9FF10BD0020FCE704812142F2
:104B700010B50448006818B9902003F0ADFF10BDCF
:104B80000020FCE7048121422DE9F041084E044653
:104B900005683068016828468847074630684168DC
:104BA00028468847284420603846BDE8F081000048
:104BB000380500202DE9F0410C4606460025064F39
:104BC00005E0386841683046884706440544641E5D
:104BD000F7D22846BDE8F081380500202DE9F041E4
:104BE0001E46069C1746884605463A46A8687F1C1E
:104BF0003346D0F804C041462846E047641EF4D14D
:104C0000BDE8F08170B5B0F90040091BB0F904406F
:104C10008C422CDD00F11404B0F902500069521BE3
:104C200002FB0040CA1800EBE104521ED010B0EBAA
:104C3000E10501F007034FF0FF0102F0070221FA3E
:104C400003F0C2F1070201FA02F1CEB221780FD0CF
:104C500001436D1E04F8011B002D05DDFF222946CE
:104C60002046FBF7AFFC2C4420783043207070BD09
:104C700030400143217070BD10B5B0F90030B0F97B
:104C80000240C91A00F114030069121B02FB003034
:104C900000EBE10001F0070302788021D9400A43CC
:104CA000027010BDB0F90610026951431430FBF7D1
:104CB00091BC00002DE9F843804602F10F0000117D
:104CC000470003FB07F01C46154689461430FDF7E4
:104CD00032FB060018D0FEF7CFFC3046FDF728FC6B
:104CE0000090A0F80080A0F802908580C480074959
:104CF00081600121818107616846FDF757FC00F062
:104D00006BF83046BDE8F8830020FBE73CF802086A
:104D100070B5B0F90660B0F904400B6800F11405F5
:104D200096421BDD0069A34202FB005000EBE30248
:104D300014DA641EE010A0EBE30512F8010B03F097
:104D40000704A040C4B206E045B1083312F8014B95
:104D500023F007036D1E002CF6D004E0002070BD88
:104D60006006040E5B1C2006FAD5FF2C07D01846FF
:104D700002E06406240E401C6606FAD400E0D81D4A
:104D8000C443640705D006E012F8014BFF2C09D19B
:104D900008306D1EF8D5C01A401C0B6070BD62064D
:104DA000140E401C2206FAD4F5E738B50546FEF786
:104DB00063FC2846FDF7BCFB00908189491E0CB2BC
:104DC00084816846FDF7F2FB14B92846FDF7D2FA54
:104DD00000F002F838BD00000348C168491EC160F8
:104DE00001D100F03EB87047180800202DE9F041CD
:104DF00016460F4605460024FEF73EFC324639466D
:104E0000284600F091FE054408B1641CF6E7FFF760
:104E1000E3FF2046BDE8F08110B54FF4163103489A
:104E2000FDF7A0FA8020FDF7ABFB10BD400B002082
:104E3000044A1268111800BF024A12688A1A002A2E
:104E4000FADC7047A800002070470020704700007F
:104E50000148006870470000A800002070477047B4
:104E6000704770470EB508B102AA00E00022002387
:104E700001A9684600F036FC0EBD0000074910B5D8
:104E80000C7818B101200870801E03E00020087023
:104E90006FF07F4001F080FB204610BD6E050020C2
:104EA00010B5082A0EDC0346012A18D0022A56D073
:104EB000042A76D010F8042B03F8012B491EF9D1EF
:104EC000012010BD102A08DC4FEA000230F8043B34
:104ED00022F8023B491EF9D1F2E7002010BD10F87C
:104EE000042BD207120E491E34D010F8044B491E71
:104EF00004F0010442EA84122CD010F8044B491E3D
:104F000004F0010442EA441224D010F8044B491E74
:104F100004F0010442EA04121CD010F8044B491EAC
:104F200004F0010442EAC40214D010F8044B491EF4
:104F300004F0010442EA84020CD010F8044B491E2C
:104F400004F0010442EA440204D010F8044B04F0D7
:104F50000104224303F8012B0029C0D1B0E710F867
:104F6000042B9207120E491E15D010F8044B491E4F
:104F700004F0030442EA04120DD010F8044B491E59
:104F800004F0030442EA840205D010F8044B04F054
:104F900003042243491E03F8012B0029DFD18FE7C8
:104FA000FFE710F8042B1207120E491E05D010F867
:104FB000044B04F00F042243491E03F8012B00297F
:104FC000EFD17DE738B50024009400F01DF838BD1E
:104FD0000B4810B5016A002910D101210162FFF7C9
:104FE0001BFFFDF777F902F0C1F8054905482431A8
:104FF0000860BDE81040084600F058BD10BD000034
:1050000024050020D9EF00082DE9F0410D4606994E
:10501000044601B901461F68082A09DC0E46012A28
:105020001AD0022A5BD0042A7DD0082A13D18DE041
:10503000102A07DCD3F810C00E46BCF1000F04D0D4
:10504000022389E00020BDE8F08101CCB84726F8B2
:10505000020B6D1EF9D189E001CCB847C0074FEAB9
:1050600010686D1E36D001CCB84748EA801000F0B9
:10507000FF086D1E2ED001CCB84748EA401000F062
:10508000FF086D1E26D001CCB84748EA001000F09A
:10509000FF086D1E1ED001CCB84748EAC00000F0E2
:1050A000FF086D1E16D001CCB84748EA800000F01A
:1050B000FF086D1E0ED001CCB84748EA400000F052
:1050C000FF086D1E06D001CCB84740EA080000F08A
:1050D000FF086D1E06F8018B002DBDD146E001CC06
:1050E000B84780074FEA10686D1E16D001CCB8474C
:1050F00048EA001000F0FF086D1E0ED001CCB84742
:1051000048EA800000F0FF086D1E06D001CCB847C9
:1051100040EA080000F0FF086D1E06F8018B002D24
:10512000DDD123E0FFE701CCB84700074FEA106864
:105130006D1E06D001CCB84740EA080000F0FF0819
:105140006D1E06F8018B002DEDD10FE0D3F810C0D5
:10515000BCF1000F04D001232A462046E04705E0B9
:1051600001CCB84706F8010B6D1EF9D101206AE7A2
:105170007CB5064628480D46006868B1002005F059
:10518000C7FB06E06A462946304606F033FB05F0C9
:1051900081FB0028F6D17CBD106800901F4C506840
:1051A00001902268BDF8000032F84C1F0844ADF8A9
:1051B0000000BDF8020091880844ADF80200BDF877
:1051C000040011880844ADF80400BDF80600918879
:1051D0000844ADF80600684605F09AFB0EE000BFF3
:1051E0002068BDF800106A464184BDF80210818431
:1051F0002946304606F0FEFA05F04CFB0028EFD1B8
:10520000206830F8221F428D891A01804188C28DA2
:10521000891A41807CBD0000700500203005002007
:105220002DE9FF4F85B09A4690460D46FEF774F97A
:105230004FF00009DDF814B006464C4625B1286849
:1052400000906868019002E06846FEF73BF918F0AC
:105250000C0F02D05546002713E0BDF902402DE0A7
:1052600029467F1C059800F0B5FA01466D1A05988D
:10527000FFF7A0FC05990844059005A800F0EEFA98
:1052800008B9002DECD108F00C00042804D008283F
:1052900002D00C2812D105E0BDF9060007FB160468
:1052A000641C0BE0BDF90600BDF90210401A07FBB3
:1052B0001600401C00EBD07001EB60045546CDF8A1
:1052C00014B043E02946059800F084FA07460146E9
:1052D000ED1B059800F054FA18F003010ED00129D7
:1052E00039D002290DD1BDF90410BDF90020891A69
:1052F000091A01EBD17102EB610101E0BDF9001067
:105300008946174A401E484412683946A2F822903E
:105310009484ADF80C00A019401EADF80890ADF8CB
:105320000E00ADF80A4002AA0598FFF721FF3946A2
:105330000598FFF73FFC059908440590FEF7ECF847
:10534000044405A800F08AFA002801D1002DB9D143
:1053500009B0BDE8F08FBDF90410091A491CCFE768
:10536000300500202DE9FF4F8DB00020DDF86CA046
:10537000164600901D4604460246CAF8000008ABD7
:1053800003A902A800F0AEF918B1002011B0BDE8E1
:10539000F08F0898854200DD0546614F0B95614905
:1053A0003868407C51F82010049109690691FEF795
:1053B0004DF805903868407CFEF714F95A4981464B
:1053C000884204D05949894501D0012000E00020DD
:1053D0000A9001CE1A9988478346000E079077D02D
:1053E000009870BB0D9800EB04084D480068B0F9B8
:1053F0000800404503DDA0EB0807804600E00027D9
:105400000298049900EB840000EB8700CDE90001CD
:105410000B990D98421809920E9B40461946521E50
:10542000FEF76CFD01200090059818280ADA029812
:10543000DDE9052300EB840000EB8700E91B00F0A9
:10544000AFF812E00A9880B1029800EB840000EBFC
:1054500087070998A0EB080849463868884701C7BC
:10546000A8F101005FEA0008F6D13148C06980B3B5
:10547000DDE9020700EB840007EB8402CDE90202BC
:105480002B4C361F3046E4692B460299A047FF217A
:105490003068B1EB106F02D10298006804E0029A04
:1054A0001268B1EB126F01D1039A1060029806F1F5
:1054B0000406001D02900398001D03906D1EE7D1A5
:1054C0000397DAF8000040F00101CAF8001020E06C
:1054D00021E0FFE70798FF2811D0C0F1FF020298F2
:1054E00050F82410584600F07DFA039941F8240042
:1054F000DAF8000040F00101CAF8001005E0029857
:10550000039950F8240041F82400641C6D1E7FF4B8
:1055100060AF03983AE7039941F824B0E8E7000048
:105520003005002050050020AB6C0008A96C000875
:10553000B00700202DE9FF4F87B00C46DDE9169833
:10554000DDE914BA0546FEF797F81448099A016890
:10555000C86C096D471985180E190A98ADF81070B6
:105560000C18ADF81450ADF81260ADF8164004A850
:1055700005F0CEF90BE0CDE90298CDE900BA23465B
:105580002A463146384608F065FA05F083F90028C6
:10559000F1D1FFF721FC0BB0BDE8F08F3005002002
:1055A0002DE9F05F0C1E16DD5E68014600EB8405F8
:1055B000082A12DC611E012A26D0022A47D0042ABA
:1055C0006AD0082A07D1071917F8010DB04745F826
:1055D000040D641EF8D1BDE8F09F102AFBDC5F6962
:1055E0003FB12246BC46BDE8F04F02235DF804EB14
:1055F000604701EB440700BF37F8020DB04745F89C
:10560000040D641EF8D1E6E700EBE10001F00707A6
:1056100010F801A98146802020FA07F8B5F10405A9
:105620000AEA0800C7F10701C840B04745F8040975
:105630003FB14FEA48604FEA10687F1E641EEFD109
:10564000C9E719F801A907274FF00108F6E700EBB1
:10565000A10001F0030710F801A981467900C020DC
:1056600020FA01F84FF0060BB5F104050AEA08002C
:10567000ABEB4701C840B04745F804093FB14FEADA
:1056800088604FEA10687F1E641EEFD1A3E70327EE
:1056900019F801A9B846F7E700EB6100012710F8F7
:1056A00001A9A7438146B900F02020FA01F84FF084
:1056B000040B2D1F0AEA0800ABEB8701C840B04776
:1056C00045F804093FB14FEA08704FEA10687F1EA1
:1056D000641EEFD17FE719F801A901274FF00F08E9
:1056E000F6E700002DE9F047224C06461F46A06968
:1056F00090468946002540B90120A06104F12801A7
:105700001D480860084600F0D1F9606930B91B48AF
:105710000068606110B901F064FA606107B1386037
:105720004EB1A06830B960698000FCF769FEA060E6
:1057300000B901253060B9F1000F0AD0E06830B936
:1057400060698000FCF75CFEE06000B90125C9F8E3
:105750000000B8F1000F0AD0206930B960698000FC
:10576000FCF74EFE206100B90125C8F8000028466C
:10577000BDE8F087B007002089F00008640500202C
:1057800073B5124A01A9009812689047002400904E
:10579000C8B10F4900250968C969496959B10A6842
:1057A0004AB1019990477CBD6846FFF7EDF905467F
:1057B000FDF762FE04440198401E0190F4D528468E
:1057C00000F040F8044420467CBD0000F8070020AB
:1057D0003005002073B50D460098002490B10A49A9
:1057E0000968C969496959B14A684AB12946904767
:1057F0007CBD6846FFF7C8F920B10A2802D0641CB6
:10580000AC42F6DB20467CBD3005002031B50024DB
:10581000009808B905E0641C6846FFF7B5F9002850
:10582000F9D1204638BD0000044AB2F900200260D8
:105830000348B0F9000008607047000074050020BC
:105840007605002038B5002469460094FDF726FE51
:105850000099814200DD0C1A204638BD016811F81C
:10586000012B12B10A2A02D002E001207047016028
:1058700000207047B0F90030B1F90020934200DAFF
:105880000280B0F90230B1F90220934200DA42807E
:10589000B0F90430B1F90420934200DD8280B0F900
:1058A0000620B1F906108A4200DDC180704770B54C
:1058B000B1F90040B2F900309C4200DD234603807C
:1058C000B1F90250B2F90240A54200DD2C464480F5
:1058D000B1F90460B2F90450AE4200DA3546858071
:1058E000B1F90610B2F90620914200DB1146C180E1
:1058F0009D4201DBA14201DA002070BD012070BD94
:10590000014602480068407C00F002B830050020E3
:105910002DE9F84301268946044602285DDA304F16
:105920007A6802B190472E4D5FEA090005F1100533
:1059300032D0012803D0B9F1020F4ED118E055F84A
:10594000240088B92046FDF749F8009018B3C068D4
:105950000D21426A6846904702003ED049460098B1
:10596000904755F824000026401C45F8240034E0F8
:105970002046FDF733F8009068B1C0680D21426AF7
:1059800068469047040028D0386800B180474946EF
:105990000098A047002620E055F82400A8460128DA
:1059A00012D12046FDF71AF8009068B1C0680D21A9
:1059B000426A68469047050006D0386800B18047C3
:1059C00049460098A847002658F8241009B101223A
:1059D00000E00022891A48F824103046BDE8F88318
:1059E000E007002070B5FF23B3EB116F29D0C3B2DD
:1059F00000F47F4500F47F04060E5343554354439F
:105A00005643C2F1FF00CAB202FB003201F47F43E9
:105A100003FB005301F47F0505FB0044090E01FB65
:105A20000065C2F307204FF47F4101EA1322090207
:105A300001EA14214FF07F43104303EA0543084372
:105A4000184370BD2DE9F04F0646DDE90CB9154647
:105A50000C4600208046584519D20B9F4FF0FF0A94
:105A600001CE08CCAAEB106202FB09F2B2FBFAF1FC
:105A7000CAB21946FFF7B6FF20F07F4001C57F1E6E
:105A8000EED1099804EB800408F10100E2E7BDE8DB
:105A9000F08F0B88134403808B889B1A83804B887C
:105AA00013444380C988891AC18070470249CA6972
:105AB0004260C86170470000240500202DE9F843CA
:105AC0000768064688460025384600F0CBF840B304
:105AD000404600F0D7F8441C3846FCF713FD8442DA
